:400000000080002011000000110D0000110D000080B500AF024A034B1B68136000F0AAFEBC760040FA46004010B5054C237833B9044B13B10448AFF300800123237010BD33
:400040005881FF1F00000000A0540000084B10B51BB108490848AFF300800848036803B910BD074B002BFBD0BDE81040184700BF000000005C81FF1FA0540000C880FF1FFA
:400080000000000080B500AF012001F06BF80346002B2BD001F08CF803469AB2144B1A80144B1B78002B03D1134B1B78002B1DD0124B1B881A460E4B1988114B23F8121088
:4000C0000E4B1B88B3F5FA6F07D10E4801F04CFF094B00221A7000F01BF9064B00221A70064B1B8801339AB2044B1A8000BF80BD4691FF1F4891FF1F4491FF1F7481FF1F3D
:40010000A481FF1FA8540000B0B590B000AFF860C7E900234FF000034FF00004C7E90E344FF000034FF00004C7E90C3454A3D3E90023D7E9000103F07DFE03460C46184617
:40014000214651A3D3E9002303F09EFF03460C461846214602F056FA02460B4603F0B8FC03460C46C7E908340023FB622EE0D7E90E23D7E9080103F05DFE03460C461846BD
:400180002146D7E90C2303F0A1FC03460C4625461C46FB6A5B00FA6813441B88184603F0E3FD02460B462046294603F091FC03460C46C7E90634D7E90E34C7E90C34D7E97F
:4001C0000634C7E90E34FB6A0133FB62B7F85020FB6A9A42CBDCD7E90E23D7E90E0103F029FE03460C4625461C46D7E90C23D7E90C0103F01FFE02460B462046294603F067
:4002000067FC03460C4625461C46D7E90E23D7E9080103F00FFE02460B4610461946D7E90C2303F007FE02460B462046294603F04DFC03460C46C7E90434154801F094FEF7
:400240004FF000024FF00003D7E9040104F082F80346002B0DD00F4A0F4B15461C460FCC28606960AA60EB6020682861094801F07BFED7E90434184621464037BD46B0BD16
:40028000182D4454FB211940000000000088C340B85400009481FF1FCC540000B0B586B000AFC7E902011346FB80FB88022292FBF3F3184603F058FD04460D46D7E9020111
:4002C00002F0E8F902460B462046294603F0B2FD03460C46C7E90434094801F045FED7E904230849084804F03FF9074801F03CFED7E90434184621461837BD46B0BD00BFAA
:40030000E0540000F05400009481FF1F0000000090B5A1B002AFA64801F026FE4FF4FA6300934FF00002A34BA348FFF7EDFEC7E91C014FF4FA6300934FF000029F4B9E4889
:40034000FFF7E2FEC7E91A014FF4FA63009390A3D3E900239848FFF7D7FEC7E918014FF4FA6300938CA3D3E900239348FFF7CCFEC7E916014FF4FA63009389A3D3E9002342
:400380008D48FFF7C1FEC7E914014FF4FA6300934FF000028A4B8848FFF7B6FEC7E912014FF4FA63009380A3D3E900238248FFF7ABFEC7E910014FF4FA62D7E91C01FFF797
:4003C0006DFFC7E90E014FF4FA62D7E91A01FFF765FFC7E90C014FF4FA62D7E91801FFF75DFFC7E90A014FF4FA62D7E91601FFF755FFC7E908014FF4FA62D7E91401FFF7D9
:400400004DFFC7E906014FF4FA62D7E91201FFF745FFC7E904014FF4FA62D7E91001FFF73DFFC7E90201D7E90C23D7E90E0103F04FFB03460C4618462146D7E90A2303F0C8
:4004400047FB03460C4618462146D7E9082303F03FFB03460C4618462146D7E9062303F037FB03460C4618462146D7E9042303F02FFB03460C4618462146D7E9022303F0B8
:4004800027FB03460C46184621464FF000024D4B03F0FAFD03460C46C7E90034D7E9000103F0A0FF0346DBB21A464749474804F05BF8464801F058FDD7E90A23D7E9000107
:4004C00003F02AFF0346002B07D0414A41493F4804F04AF83D4801F047FDD7E90023D7E90E0103F037FF0346002B14D0D7E90023D7E9060103F02EFF0346002B0BD036483F
:4005000004F02AF8354A3349304804F02DF82F4801F02AFD3DE1D7E90023D7E90E0103F019FF0346002B14D0D7E90023D7E9040103F010FF0346002B0BD0294804F00CF8F5
:40054000284A2449214804F00FF8204801F00CFD1FE1D7E90023D7E90E0103F0FBFE0346002B45D0D7E90023D7E9020103F0F2FE0346002B3CD01C4803F0EEFF1B4A15499F
:40058000124803F0F1FF114801F0EEFC01E100BF5C8FC2F528A48A400000000000688D400000000000E492400000000000149740FC54000000388540A481FF1F00108840B3
:4005C00000E0944000001040185500009481FF1F2455000038550000405500005055000060550000705500008055000090550000D7E90023D7E90C0103F0ACFE0346002B22
:4006000014D0D7E90023D7E9060103F0A3FE0346002B0BD0614803F09FFF614A6149624803F0A2FF604801F09FFCB2E0D7E90023D7E90C0103F08EFE0346002B14D0D7E96F
:400640000023D7E9040103F085FE0346002B0BD0564803F081FF564A5249534803F084FF514801F081FC94E0D7E90023D7E90C0103F070FE0346002B14D0D7E90023D7E9E9
:40068000020103F067FE0346002B0BD0494803F063FF494A4349444803F066FF424801F063FC76E0D7E90023D7E90A0103F052FE0346002B14D0D7E90023D7E9060103F091
:4006C00049FE0346002B0BD03C4803F045FF3C4A3449354803F048FF334801F045FC58E0D7E90023D7E90A0103F034FE0346002B14D0D7E90023D7E9040103F02BFE0346D2
:40070000002B0BD02F4803F027FF2F4A2549264803F02AFF244801F027FC3AE0D7E90023D7E90A0103F016FE0346002B14D0D7E90023D7E9020103F00DFE0346002B0BD018
:40074000224803F009FF224A1649174803F00CFF154801F009FC1CE0D7E90023D7E9080103F0F8FD0346002B13D0D7E90023D7E9040103F0EFFD0346002B0AD0154803F08D
:40078000EBFE154A0749084803F0EEFE064801F0EBFB002318467C37BD4690BDA0550000B0550000385500009481FF1FC0550000D0550000E0550000F05500000056000005
:4007C0001056000020560000305600004056000050560000605600007056000080B582B000AF00F097FC01F021FB01F03DFC254B00221A70244B00221A70244B00221A70BD
:40080000234B00221A7000F09DFC224801F0ACFB01F03CFE204801F07DFE62B601F068FB0346FB71FB79582B21D0582B0BDC432B15D0432B02DC002B21D021E0452B1AD08B
:40084000532B10D01CE0652B15D0652B02DC632B05D015E0732B06D0782B08D010E00A4B01221A700CE0074B01221A7008E0054B00221A7004E0054B01221A7000E000BFB3
:40088000CCE700BF4491FF1F4891FF1F4591FF1F4991FF1F805600008500000080B582B000AF786039603A680021786803F0F1FD00BF0837BD4680BD80B584B000AFF860DC
:4008C000B9607A607A68B968F86803F0D7FD00BF1037BD4680BD00BF80B483B000AF0346FB71FEE780B487B000AF7860396000233B6100237B6127E07B699B007A6813441E
:400900001B68BB60BB68FB73BB6823F0FF03BB6014E03B695B003A6813441B781A46BB68134419463B695B003A6813445B780B703B6901333B61FB7B013BFB73FB7B002B02
:40094000E7D17B6901337B617B691E2BD4D900BF1C37BD4680BC704780B582B000AF464B00221A80454B50221A70454B17221A80444B18221A70444B19221A80434B182218
:400980001A70434B40F213121A80424B18221A70042241494148FFF78FFF414B02221A704FF0402308221A703E4B03221A703E4B3E4A1278D2B21A703D4B08221A803D4BDB
:4009C00041F251221A800023FB7019237B6014E0FB785B00DAB2384B1B78DBB203F00103DBB21343DBB203F00303FB704FF4F07001F0DEFD7B68013B7B607B68002B02D00D
:400A0000FB78032BE4D17B68002B02D10320FFF763FF2A4B4FF480721A80284B07221A70274B00221A70274B48221A70234B00221A70254B02221A70244B04221A70244A51
:400A4000234B1B78DBB243F00F03DBB21370214A204B1B78DBB243F00103DBB213701E4A1D4B1B78DBB263F07F03DBB2137000BF0837BD4680BD00BF804000408240004082
:400A80008440004086400040884000408A4000408C4000408E400040B0040048004100400043004000420040A1460040080100492242004020420040254200400440004094
:400AC0000640004008400040014000400B400040A2430040A1430040A043004080B483B000AF0E4B1B78FB710D4AFB7903F00703DBB213700B4AFB791B09DBB213700A4BD8
:400B000010221A70094B10221A70094B44221A7000BF0C37BD4680BC704700BFCF0100496E5800406F580040905A0040005B00407658004080B483B000AF0346FB71FB79B6
:400B4000012B0ED8FB79094A52F82330FA79074951F822201178FA790548825C0A43D2B21A7000BF0C37BD4680BC7047945600009C56000080B483B000AF0346FB71FB791C
:400B8000012B10D8FB790A4A52F82330FA79084951F822201178FA790648825CD243D2B20A40D2B21A7000BF0C37BD4680BC7047945600009C56000080B582B000AF72B642
:400BC0003F4A3F4B1B78DBB243F00403DBB213700023FB7113E0FA7913465B0013445B00384A13443B603B681A683B689B889BB219461046FFF752FEFB790133FB71FB79EE
:400C0000082BE8D930494FF09040FFF76BFE2F4B0A221A7004212E48FFF740FE04212D48FFF73CFE2C4A2C4B1B78DBB243F00203DBB21370294A294B1B78DBB243F002037C
:400C4000DBB21370264A264B1B78DBB243F04003DBB21370234A234B1B78DBB243F01003DBB213700A2220492048FFF725FE08221F492048FFF720FE0A221F491F48FFF777
:400C80001BFE1F4A1E4B1B78DBB243F00803DBB213701C4B60221A70FFF75EFE194B80221A70194B01221A70FFF718FF0E220C491648FFF701FE00BF0837BD4680BD00BF93
:400CC000E8460040A05600007C0000488358004000760040087600400350014013500140A0430040C243004090040048C05100409C04004812510040A40400482051004044
:400D0000224300400048004004000840B043004080B500AF03F086FB03461B680C2B00D1FEE7FEE780B584B000AF78600F4B1A687B6813441A460E4BD31A802B09DC0B4B7F
:400D40001B68FB60094B1A687B681344074A136007E003F067FB02460C2313604FF0FF33FB60FB6818461037BD4680BDCC80FF1F5891FF1F80B586B000AF224B7B61224B46
:400D80003B61204B7B6135E03B691B68FB603B695B68BB603B699B683B6000237B600CE0FB681A68BB681A60BB680433BB60FB680433FB607B6804337B607A683B689A42C9
:400DC000EED13B69DB683B6000237B6008E0BB6800221A60BB680433BB607B6804337B607A683B689A42F2D13B6910333B617B69013B7B617B69002BC6D103F019FBFFF75D
:400E0000EDFCFEE701000000485A000080B582B000AF194B194A1A60194A194B1B6843F40073136000237B600FE07B68032B04D8144A7B6852F8233000E0134B13497A684F
:400E400041F822307B6801337B607B682F2BECD90F4B1B78DAB20F4B1A700F4B0B4A1A60FFF7AAFE00F08AFD0C4B00221A6000BF0837BD4680BD00BF0CED00E00004FA058C
:400E800014ED00E000000000110D00000080FF1FBC760040C480FF1F08ED00E0C080FF1F80B582B002AF324B01221A70314B00221A70102000F054FC102000F037FD072138
:400EC0001D2000F08FFF2C4B04221A702B4B00221A702B4B00221A702A4A2A4B1B78DBB243F01803DBB21370274B00221A70274B00221A70264B00221A70264B0A221A70E5
:400F0000254B00221A70254B00221A70244B12221A70244B13221A70234B00221A70234B14221A700123009308234FF4004248F6B651002000F02CFA1D4A0D4B1B78DBB215
:400F4000013B1C499B000B449B7813701A4A084B1B78DBB2013B174931F823301380044B1B78DBB2184600F061F900BFBD4680BDD080FF1F7881FF1F9658004097580040D6
:400F80009E580040075B004093580040885B0040895B004080580040815800408358004088580040895800408D580040014E00400E4E00408081FF1F0C4E004080B582B0EA
:400FC00000AF01F014FB0346FB71444B1B78BB71434A434B1B78DBB243F00103DBB213703F4A3F4B1B78DBB243F01003DBB213703C4A3C4B1B78DBB243F00103DBB21370C0
:40100000384A384B1B78DBB243F01003DBB21370354A354B1B78DBB243F00203DBB21370324A324B1B78DBB243F00203DBB213702F4A2F4B1B78DBB243F00303DBB2137011
:40104000032000F093FE284A274B1B78DBB223F00203DBB21370254A244B1B78DBB223F00203DBB21370234A224B1B78DBB243F00603DBB21370204B7A221A701F4A1F4BD0
:401080001B78DBB243F00103DBB213701C4A1C4B1B78DBB243F00103DBB21370194A194B1B78DBB243F00103DBB21370164A164B1B78DBB243F00103DBB21370134B4FF0A2
:4010C00000521A60124B4FF000521A60FB79184601F091FA00BF0837BD4680BDD080FF1FAA430040BA430040F8460040F9460040915800407758004082580040A1430040E5
:40110000B1430040A2430040B243004080E200E000E100E080B500AF084B1B78002B09D1074B1B78DBB2002B01D1FFF7B9FE034B01221A70FFF742FF00BF80BD7A81FF1FEC
:401140007B81FF1F80B400AF054A054B1B78DBB243F00103DBB2137000BFBD4680BC7047004E004080B485B000AF0346FB710D4B1B78DBB2002B03D00B4B1B78FB7305E0AA
:401180000A4B1B78DBB203F00103FB73FB7B012B02D0FB79002BEAD0FB7B18461437BD4680BC70477981FF1F7881FF1F014E004080B483B000AF174B1B78DBB203F0030324
:4011C0007B717B79012B03D8134B1B88FB8011E0114B1B78DBB2FB80104B1B78DBB29BB21B029AB2FB881343FB807B79032B01D10B4B1B780B4B1B78DBB2002B02D00A4B7A
:4012000000221A70B7F9063018460C37BD4680BC704700BF144E0040104E0040114E0040124E00407981FF1F7881FF1F80B582B000AF0346FB71384B00221A70FB79012B7E
:4012400065D1364B38221A70354B04221A70354B06221A70344B00221A70344B00221A70334B0F221A70334B00221A70324B00221A70324B00221A70314B01221A70314BC1
:4012800014221A70304B09221A70304B0A221A702F4B00221A702F4B11221A702E4B12221A702E4B01221A702D4B00221A702D4B00221A702C4B0A221A702C4B43221A7078
:4012C000442000F01DF92A4B58221A70294B00221A70294B05221A70284B02221A70284B00221A70274B00221A70002000F066F9254BFA221A600121052000F073F901212E
:40130000952000F055FA21491D2000F043FD00BF0837BD4680BD00BF7981FF1F004E0040024E0040034E0040044E0040054E0040064E0040084E0040094E00400A4E0040A0
:40134000144E0040845800408558004086580040875800408A5800408B5800408C5800408E5800408F580040905800409158004094580040955800409A5800409B58004090
:401380009C5800409D5800404C91FF1F7D15000090B587B000AF0446084611461A462346FB710346BB800B467B801346BB7197F82830002B00F08B8097F82830012B00F281
:4013C0008680FB79013B092B4AD801A252F823F0F91300006114000061140000F91300006114000061140000131400002D1400006114000047140000BB790F2B04D9374BF0
:401400001B78DBB2FB752EE0354B1B78DBB2FB7529E0BB790F2B04D9324B1B78DBB2FB7521E0314B1B78DBB2FB751CE0BB790F2B04D92E4B1B78DBB2FB7514E02C4B1B7842
:40144000DBB2FB750FE0BB790F2B04D9294B1B78DBB2FB7507E0284B1B78DBB2FB7502E00023FB7500BFBA8897F917305B0113443B617B883A6902FB03F3FB60FB68DB0B6E
:40148000BB82BB790D2B12D8BA8ABB79C3F10E0342FA03F3BB8297F82830013BBA790132D1B2164A9B0013440A469A7007E097F82830013B114A9B0013440F229A7097F814
:4014C0002830013B0D49BA8A21F8232002E0002000F040FC00BF1C37BD4690BD180100491C010049190100491D0100491A0100491E0100491B0100491F0100498081FF1F87
:4015000080B584B000AF0346FB7101F070F80346FB73174A164B1B78DBB243F00303DBB21370144A134B1B78DBB243F00303DBB21370114AFB791370032000F017FC0C4AB0
:401540000B4B1B78DBB223F00303DBB21370094A084B1B78DBB223F00303DBB21370FB7B184601F048F800BF1037BD4680BD00BFF8460040F94600409258004080B400AFC9
:4015800000BFBD4680BC704780B582B000AF0023FB7106E0FB791846FFF7ECFAFB790133FB71FB79012BF5D9034BFF221A7000BF0837BD4680BD00BFD180FF1F80B582B0EF
:4015C00000AF0346FB71FFF7DFFFFB791846FFF7B1FA034AFB79137000BF0837BD4680BDD180FF1F80B584B000AF03460A46FB8013467B7100F0CEF80346FB7300F0A4F8E5
:401600000346BB81FA88BB899A4200F08880464B1B78DBB203F00103FB72FB7B002B20D1BB89002B02D0FB88002B1AD1BB89002B0BD13E4AFB8813803D4A3D4B1B78DBB2F2
:4016400023F04003DBB2137069E0394A384B1B78DBB243F04003DBB21370344AFB8813805DE0FB7A002B33D0324B00221A70324B01221A70314B00221A70314A304B1B7897
:40168000DBB203F07F03DBB21370294B1B78DBB203F00803002B02D0FB88002B18D1294ABB891380234B07221A7000BF214B1B78DBB203F00103002BF8D11B4A1A4B1B78F4
:4016C000DBB223F00103DBB213701A4B00221A70154B1B78DBB203F00103002B13D0194AFB881380134A7B79002B01D0032300E00123137000BF0F4B1B78DBB203F00103FD
:40170000002BF8D10BE0094AFB8813800649064B1B78DAB2FB7A1343DBB20B70FFE700BF1037BD4680BD00BFA2430040804000408240004001400040104000401440004018
:40174000084000400240004080B400AF034B1B889BB21846BD4680BC704700BF8040004080B483B000AF0346FB710949084B1B78DBB25AB297F9073023F007035BB2134348
:401780005BB2DBB20B7000BF0C37BD4680BC70478240004080B400AF044B1B78DBB203F00703DBB21846BD4680BC70478240004080B584B000AF03460A46FB8013467B7177
:4017C00000F0CEF80346FB7300F0A4F80346BB81FA88BB899A4200F08880464B1B78DBB203F00103FB72FB7B002B20D1BB89002B02D0FB88002B1AD1BB89002B0BD13E4A7D
:40180000FB8813803D4A3D4B1B78DBB223F04003DBB2137069E0394A384B1B78DBB243F04003DBB21370344AFB8813805DE0FB7A002B33D0324B00221A70324B01221A7041
:40184000314B00221A70314A304B1B78DBB203F07F03DBB21370294B1B78DBB203F00803002B02D0FB88002B18D1294ABB891380234B07221A7000BF214B1B78DBB203F0D6
:401880000103002BF8D11B4A1A4B1B78DBB223F00103DBB213701A4B00221A70154B1B78DBB203F00103002B13D0194AFB881380134A7B79002B01D0032300E00123137016
:4018C00000BF0F4B1B78DBB203F00103002BF8D10BE0094AFB8813800649064B1B78DAB2FB7A1343DBB20B70FFE700BF1037BD4680BD00BFA14300400041004002410040CB
:40190000014000401440004010400040084000400240004080B400AF034B1B889BB21846BD4680BC704700BF0041004080B483B000AF0346FB710949084B1B78DBB25AB2A7
:4019400097F9073023F007035BB213435BB2DBB20B7000BF0C37BD4680BC70470241004080B400AF044B1B78DBB203F00703DBB21846BD4680BC70470241004080B483B076
:4019800000AF134B7F221A70124B80221A707F23FB710CE0FB79DB0003F1804303F5F043FA79013AD2B21A70FB79013BFB71FB79002BEFD1FB79DB0003F1804303F5F043D3
:4019C00000221A7000BF0C37BD4680BC704700BFD580FF1FD480FF1F80B485B000AF03460A46FB711346BB710123FB60FB79172B2FD8BB79002B0ED0FB791A01184B13443B
:401A0000FA791101164A0A441278D2B242F02002D2B21A700DE0FB791A01114B1344FA7911010F4A0A441278D2B222F02002D2B21A70FB791A010A4B1344FA791101084A46
:401A40000A441278D2B242F00102D2B21A700023FB60FB6818461437BD4680BC704700BF1070004080B485B000AF03460A46FB711346BB710123FB60FB79172B1BD8FB798A
:401A80001A01104B13441B78DBB223F00E03FB72FB791A010B4B1344BA795200D2B252B202F00E0251B297F90B200A4352B2D2B21A700023FB60FB6818461437BD4680BC77
:401AC000704700BF1070004080B485B000AF0346FB710B46BB8013467B800123FB60BB8841F6FF72934202D14FF40053BB807B8841F6FF72934202D14FF400537B80FB79C8
:401B0000172B17D8FB79DB0003F1804303F5EC430433BB60BB68BA881A80FB79DB0003F1804303F5EC430633BB60BB687A881A800023FB60FB6818461437BD4680BC704736
:401B400080B485B000AF03460A46FB711346BB710123FB60FB79172B07D8FB791A01064B1344BA795A720023FB60FB6818461437BD4680BC704700BF1070004090B484B002
:401B800000AF0446084611461A462346FB710346BB710B467B7113463B710123FB60FB79172B34D8FB79DB0003F1804303F5EC43BA7902F07F02D1B27A79D201D2B20A436D
:401BC000D2B21A70FB79DB0003F1804303F5EC433A7E1201D1B23A7902F00F02D2B20A43D2B25A70FB79DB0003F1804303F5EC433A7F02F00F02D2B29A70FB79DB0003F1CD
:401C0000804303F5EC430022DA700023FB60FB6818461037BD4690BC704700BF80B582B000AFFF23FB7100F0E2FC0346BB71104B1B78182B12D90F4B1B78FB710C4B1B78BD
:401C4000013BDAB20A4B1A70FB79DB0003F1804303F5F0431B78DAB2064B1A70BB79184600F0C9FCFB7918460837BD4680BD00BFD480FF1FD580FF1F90B484B000AF0446E5
:401C8000084611461A462346FB710346BB800B46BB711346FB700123FB6097F90730002B23DBBB8823F47F6323F00F039BB2002B1BD1FB79DB0003F1804303F5F043BB6005
:401CC000BB68BA881A80FB79DB0003F1804303F5F043BA799A70FB79DB0003F1804303F5F043FA78DA700023FB60FB6818461037BD4690BC704700BF80B485B000AF0346DE
:401D0000FB710B46BB8013467B800123FB6097F90730002B17DBFB79DB0003F1804303F5F0430433BB60BB68BA881A80FB79DB0003F1804303F5F0430633BB60BB687A88C8
:401D40001A800023FB60FB6818461437BD4680BC704700BF80B483B000AF0346FB7101BE00BF0C37BD4680BC704700BF80B582B000AF0346FB80FB88054A127802FB03F320
:401D8000184600F015FC00BF0837BD4680BD00BFE480FF1F80B584B000AF03463960FB710F4B1B68FB60FB791F2B02D90020FFF7D1FFFB7903F01F0310339B00FA68134408
:401DC0001B68BB60FB7903F01F0310339B00FA6813443A681A60BB6818461037BD4680BD08ED00E080B582B000AF03460A46FB711346BB71BB79072B02D90020FFF7AAFF8C
:401E0000FB791F2B02D90020FFF7A4FFFB7903F01F0303F1604303F56443BA795201D2B21A7000BF0837BD4680BD00BF80B500AF064B1B78002B04D100F00AF8034B0122D5
:401E40001A7000F025F800BF80BD00BF8481FF1F80B400AF094B72221A70094B20221A70084B06221A70084B47221A70074B00221A7000BFBD4680BC704700BF896400408E
:401E80008A65004028640040386400408865004080B582B000AF00F0AAFB0346FB71114A104B1B78DBB243F02003DBB213700E4A0D4B1B78DBB243F01003DBB213700B4A07
:401EC0000A4B1B78DBB243F01003DBB2137000F06DF8FB79184600F08EFB00BF0837BD4680BD00BF996400409A6500409865004080B483B000AF0023FB710C4B1B78BB7106
:401F0000BB7903F02003002B09D0094B1B78FB71BB7903F01E03002B01D00023FB71FB7918460C37BD4680BC704700BF6A6500404A65004080B483B000AF0346FB7100BFDB
:401F4000074B1B78DBB203F00403002BF8D1054AFB79137000BF0C37BD4680BC704700BF686500404865004080B584B000AF78600023FB810C4B1B78002B10D009E0FB8919
:401F80007A6813441B781846FFF7D4FFFB890133FB81FB897A6813441B78002BEFD100BF1037BD4680BD00BF8481FF1F80B400AF094A094B1B78DBB243F00403DBB21370A3
:401FC000064A064B1B78DBB243F00403DBB2137000BFBD4680BC7047A2430040B243004080B500AF00F038F9022000F06DF9002000F08AF9FFF712FE03461A46084B1A702B
:40200000FFF70CFE03461A46064B1A706621064800F03CF86421054800F06CF800BF80BD8981FF1F8A81FF1FD85600004057000080B500AF00F02EF9094B1B780121184689
:40204000FFF7CAFC074B1B7801211846FFF7C4FC002000F079F900F081F800BF80BD00BF8781FF1F8881FF1F80B500AF064B1B78002B04D1FFF7B4FF034B01221A70FFF734
:40208000D7FF00BF80BD00BF8681FF1F80B582B000AF78600B467B807B681B0C9AB24FF480430121012000F073F803461A460F4B1A700F4B18780E4B1A7879880123FFF7B9
:4020C000DBFD0B4B1B787A6891B245F682321846FFF712FE054B1A78054B1B7819461046FFF72EFD00BF0837BD4680BD8781FF1F8981FF1F80B582B000AF78600B467B8046
:402100007B681B0C9AB24FF480430121012000F071F803461A460F4B1A700F4B18780E4B1A7879880123FFF7A7FD0B4B1B787A6891B245F682321846FFF7DEFD054B1A7878
:40214000054B1B7819461046FFF7FAFC00BF0837BD4680BD8881FF1F8A81FF1F80B400AF094A094B1B78DBB243F00803DBB21370064A064B1B78DBB243F00803DBB2137046
:4021800000BFBD4680BC7047A2430040B243004090B585B002AF0446084611461A462346FB710346BB710B46BB8013467B80104B00221A700E4B1878BA79F9790023019320
:4021C000002300930023FFF7D9FC094B1B787A88B9881846FFF778FC054B1B7802211846FFF740FC024B1B7818460C37BD4690BDEC80FF1F90B585B002AF0446084611463E
:402200001A462346FB710346BB710B46BB8013467B80104B01221A700E4B1878BA79F97900230193002300930023FFF7A7FC094B1B787A88B9881846FFF746FC054B1B78B2
:4022400002211846FFF70EFC024B1B7818460C37BD4690BDED80FF1F80B500AF0A4B00221A700A4B00221A70094A094B1B78DBB243F00803DBB21370002000F045F8022017
:4022800000F022F800BF80BD2858004029580040975A004080B400AF094A094B1B78DBB243F00403DBB21370064A064B1B78DBB243F00403DBB2137000BFBD4680BC7047B2
:4022C000A8430040B843004080B483B000AF0346FB710C4A0B4B1B78DBB223F00203DBB213700849074B1B78DAB2FB7903F00203DBB21343DBB20B7000BF0C37BD4680BC5F
:40230000704700BF2858004080B582B000AF0346FB710C4A0B4B1B78DBB223F00C03DBB213700849074B1B78DAB2FB7903F00C03DBB21343DBB20B7000F016F800BF08377F
:40234000BD4680BD2858004080B483B000AF0346FB71044AFB79137000BF0C37BD4680BC704700BF825B004080B483B000AF0B4B1B78DBB203F00C039B08DBB20633FB7116
:40238000074AFB7903F1924303F594731B78DBB2137000BF0C37BD4680BC7047285800400A46004080B500AF224A224B1B78DBB203F00103DBB213701F4A1F4B1B78DBB2CE
:4023C00023F00303DBB213701C4A1C4B1B78DBB223F03003DBB21370184A184B1B78DBB243F03003DBB21370144A144B1B78DBB223F00F03DBB21370104A104B1B78DBB22F
:4024000043F00F03DBB213700D4A0D4B1B78DBB243F00103DBB2137040F2F31000F058F840F2F31000F066F8002000F041F800BF80BD00BF004F0040024F00400B4F00407B
:40244000014F004080B400AF0D4A0D4B1B78DBB243F00103DBB213700A4A0A4B1B78DBB243F00103DBB21370074A074B1B78DBB243F00103DBB2137000BFBD4680BC704704
:40248000A3430040B3430040004F004080B500AF064B1B78002B04D1FFF784FF034B01221A70FFF7CFFF00BF80BD00BF8B81FF1F80B483B000AF0346FB71044AFB7913703C
:4024C00000BF0C37BD4680BC704700BF034F004080B485B000AF0346FB80FB88FB81044AFB89138000BF1437BD4680BC704700BF044F004080B483B000AF0346FB80044AD9
:40250000FB88138000BF0C37BD4680BC704700BF064F004080B582B000AF786000F03CF8786800F009F8072000F018F800F028F800BF0837BD4680BD80B485B000AF7860F1
:40254000054B1B68FB60FB6840337A681A6000BF1437BD4680BC704708ED00E080B483B000AF0346FB71054AFB795B01DBB2137000BF0C37BD4680BC704700BF00E400E0B1
:4025800080B400AF034B01221A6000BFBD4680BC704700BF00E100E080B400AF034B01221A6000BFBD4680BC704700BF80E100E0142816D902B4012114381049097811F06B
:4025C000C001890904B40E4A515C04BC00BF00BF00BF8841FDD500BF00BF02BC704700BF00BF70F10400FCD570470B050709EFF3108072B6704780F310887047004800401A
:40260000EA25000030B5214A21F00043934287B01BDD1F4A934205DD02460B4601F056FA07B030BD02AA00F093F800F0030001281AD002280FD008B3DDE9020101230093D4
:40264000DDE9042301F07CF8EAE70022002300F05BFB07B030BDDDE90423DDE9020100F053FB01F10041DBE70090DDE90423DDE9020101F065F801F10041D1E7DDE90423B3
:40268000DDE9020100F040FBCAE700BFFB21E93FFFFFEF7F2DE9F04F8BB004460D4600F06DFA284B064693F900A00F46BAF1FF3F12D022462B462046294601F055FE8346BC
:4026C00050B94FF000084FF000092046294642464B4601F021FE20B9304639460BB0BDE8F08F194A0123CDF820B0CDE90445CDE9024501920093BAF1000F15D042464B46A1
:402700004046494601F0C0FCBAF1020FCDE906010CD101F087FE21230360089B63B9DDE906010BB0BDE8F08FCDE90689684601F04BF90028F1D1ECE701F074FE089B0360AB
:40274000EDE700BFEE80FF1FA4570000000000002DE9F04F944C21F00047A7428FB040F381801446914A0E46974226DC84A3D3E90023002940F3A08101F0A8F98C4B804640
:402780009F42894600F083807FA3D3E9002301F09DF902460B464046C4E90023494601F095F979A3D3E9002301F090F90125C4E9020128460FB0BDE8F08F7E4A974240F381
:4027C00083807D4A974258DC3D15A5F21645A7EB05518B46824601F0DDFD01F0C5FA8046894642464B4650465946CDE9088901F06DF90022714B01F01DFB8B46824601F0D0
:40280000C9FD01F0B1FA8046894642464B4650465946CDE90A8901F059F90022674B01F009FB00220023CDE90C0101F06BFD002800F06A81002340464946002201F062FDF0
:40284000002814BF012302235D480221019000912A46214608A800F07BFB002EC0F24A81054606E0C2E9000100250024C2E90245002528460FB0BDE8F08F02460B4601F07A
:4028800025F90025C4E90201C4E90001F1E740A3D3E9002301F01AF93FA3D3E9002306460F4601F013F902460B463046C4E90023394601F00BF938A3D3E9002301F006F97D
:4028C0000125C4E90201D4E700F0F0FF34A3D3E900238046894601F0ADFA0022394B01F0F7F801F057FD054601F03EFA24A3D3E90023CDE9040101F09DFA02460B4640463E
:40290000494601F0E3F820A3D3E9002382468B46DDE9040101F08EFA1F2DCDE9020155DC294B6A1E53F822309F424FD002460B465046594601F0CAF802460B46814688463F
:40294000C4E900234A4643465046594601F0BEF8DDE9022301F0BAF802460B46002EC4E9022386DA4A4608F1004301F1004184E80C00E160A0606D427BE700BFAFF3008061
:4029800000004054FB21F93F3163621A61B4D03D0000601A61B4D03D7370032E8A19A33B83C8C96D305FE43FFB21E93F7BD90240FB21F93FFB213941FFFFEF7F00007041B8
:4029C0002C5800000000E03FAC570000DDE902235046594601F07AF83F15C1F30A53FB1A102B81468846C4E90001ABDD58A3D3E90023DDE9040101F01DFA804689460246A4
:402A00000B465046594601F061F8CDE9060102460B465046594601F059F842464B4601F055F84DA3D3E9002380468946DDE9040101F000FA42464B4601F048F802460B46A5
:402A4000CDE90201DDE9060101F040F80B4602468846C1F30A517F1A312F8146C4E9002372DD3FA3D3E90023DDE9040101F0E2F98046894602460B46DDE9060101F026F8F0
:402A800002460B4682468B46DDE9060101F01EF842464B4601F01AF833A3D3E9002380468946DDE9040101F0C5F942464B4601F00DF8CDE9020139E701F00AF82E4B804616
:402AC0009F42894622D02AA3D3E9002301F000F802460B464046C4E90023494600F0F6FF23A3D3E9002300F0F3FF4FF0FF35C4E90201BEE66268E36802F1004203F100436D
:402B000045426260E360B4E603239DE610A3D3E9002300F0DDFF10A3D3E9002306460F4600F0D6FF02460B463046C4E90023394600F0CCFF08A3D3E9002300F0C9FF4FF0D6
:402B4000FF35C4E9020194E6DDE906ABFAE600BF0000601A61B4D03D7370032E8A19A33B0000002E8A19A33BC14920259A837B393163621A61B4D03DFB21F93F2DE9F04114
:402B80005F4E0C46B6460E407645054600F0988000290B46024674DD5FEA215E7FD0AEF2FF3EC3F313031EF0010F43F4801363D100273E4603EBD2710B444FEA6E0E52009D
:402BC00016204FF4001174189C424FEAD2754FEA420202DC1B1B66180F44013805EB43034FEA5101EFD1844620244FF0004109E020D003EBD275013C4FEA51012B444FEA39
:402C0000420220D09E4201EB0C05F1DA002D05EB010C09DBB0469542A3EB060300D9013B4646521B0844E4E7BCF1000FF2DB06F10108F0E7954217D8002D05EB010C49DBAD
:402C400098460023ECE7134310D140087B1003F17F5303F50013FA0703EB0E57394648BF40F00040BDE8F0813346C2E7411C35D000F001031844E8E75B0003EBD2735200C2
:402C800096E721F000460643ECD079BB8E46D30AAEF1150E5205002BF9D0DD0221D4002100E001465B00DC0201F10100F9D5C0F1200422FA04F42343C1EB0E0E82406EE705
:402CC00002460B4601F0B6F82A46234600F000FFBDE8F081BCF1000FA9DAB1E701372046B4E720244FF0FF310020E2E702460B4600F0ECFE02460B4601F0C6F9B2E700BFFE
:402D00000000F07F000000002DE9F04F21F00046B6F1795F85B00C4692469B4605466BDA01F038FB002800F0E7802A4623462846214601F07FF874A3D3E9002380468946E5
:402D400001F078F872A3D3E9002300F0C1FE42464B4601F06FF870A3D3E9002300F0B6FE42464B4601F066F86DA3D3E9002300F0AFFE42464B4601F05DF86BA3D3E9002308
:402D800000F0A4FE42464B4601F054F868A3D3E9002300F09DFE42464B4601F04BF8CDE900010022644B4046494601F043F8DDE9002306460F464046494601F03BF8524645
:402DC000804689465B462846214601F033F802460B464046494600F079FE02460B463046394600F073FE02460B460020534900F06DFE05B0BDE8F08F02460B4601F01AF883
:402E000041A3D3E900238046894601F013F840A3D3E9002300F05CFE42464B4601F00AF83DA3D3E9002300F051FE42464B4601F001F83BA3D3E9002300F04AFE42464B4617
:402E400000F0F8FF38A3D3E9002300F03FFE42464B4600F0EFFF36A3D3E9002300F038FE4B46424600F0E6FF354BCDE900019E4297DD344B00229E4238DCA6F500130020D3
:402E80002E4916461F4600F021FECDE902010022294B4046494600F0CDFF32463B4600F015FEDDE9002306460F464046494600F0C1FF5246804689465B462846214600F0CD
:402EC000B9FF02460B464046494600F0FFFD02460B463046394600F0F9FD02460B46DDE9020100F0F3FD05B0BDE8F08F164B0026CDE90223154FCAE71049002005B0BDE8A7
:402F0000F08F00BFAFF30080D43888BEE9FAA8BDC4B1B4BD9EEE213EAD529C804F7E923E9015CB19A001FA3E7751C1166CC1563F4C5555555555A53F0000E03F0000F03F24
:402F40003233D33F0000E93F0000E73F0000D23F2DE9F04F794CADF51D7D1F460B93D31E84FB0354DB17C3EBA403A69E744C23EAE37554F826406B1C26460994A3EB830355
:402F80007C1E0D95029402EBC3032D1B341904900A91089316D42C44013422AEA79F08E057F8250000F0E0FE0135A542E6E9020108D0002DF4DA013500200021A542E6E96F
:402FC0000201F6D1099B002B2FDB099B74AADDF8089002EBC30B0DF5E47A029B002BC0F295810B9B0026C3EB090824AB03EBC808049B0027A3F1080524AB03EBC904F5E96D
:40300000022374E8020100F015FF02460B463046394600F05DFD444506460F46EFD1EAE90267DA4509F10109D7D1099B10A91D4603F18043023B9B001A1D0A440B440F927B
:403040000E939CAB03EBC503002D53E928672BDD9CAB03EBC504A83C0DF13C0A0DF5E47B0022384B3046394600F0E4FE01F092F900F07AFE0022344B8046894600F0DAFEDD
:4030800002460B463046394600F020FD01F082F974E802234AF8040F4946404600F018FD5C4506460F46DBD1089C30463946224600F08EFC00224FF07F5306460F4600F0EC
:4030C000B9FE00F0F9FB0022204B00F0B3FE02460B463046394600F0F9FC0F46064601F059F9814600F040FE02460B463046394600F0ECFC002C06460F4640F3EE80681E61
:4031000010AB53F82030C4F1180243FA02F101FA02F29B1AC4F1170810AA42F82030894443FA08F8B8F1000F3DDD002D09F1010940F3D382002214460FA911E0ABAAAA2A9B
:40314000345900000000703E0000704100002040C3F180700BB108600124013295420DDD51F8043F002CF3D0C3F1FF13013203F57F4395420B604FF00104F1DC089B002BD3
:403180000DDD012B00F0B180022B08D16A1E10AB53F8223010A9C3F3150341F82230B8F1020F00F08180002200233046394601F0A9F8002800F05B82099B05F1FF3B5B4500
:4031C00010DC05F1804310AA013B0F9802EB8303002253F80419834242EA0102F9D1002A40F0B180099B10AA013B52F82330002B40F071820E9A012352F804190133002932
:40320000FAD0E9186A1C8A420C914BDC0D990B985118DB0001F180410593A79B05440139E80003EB810A24ABD20003EB000B74AB13440193A2F10803069007934FF00009F5
:403240005AF8040F00F090FD029BEBE80201002B4FF000064FF000071BDB069B03EB0904079B09EB030824AB1C449844049BA3F10805F5E9022374E8020100F0DBFD024653
:403280000B463046394600F023FC444506460F46EFD1019B09F10809E3E802670193059B9945CDD10C9DCCE632463B460020B04900F00CFC06460F46002C3FF474AF089A1A
:4032C0000020AB4900F084FB02460B463046394600F0FCFB06460F4665E710D16B1E10AA52F823304FEAE3581CE76A1E10AB53F8223010A9C3F3160341F822304FE7002266
:403300009C4B01F01DF858B980464CE700260027EAE90267DA4509F101097FF45EAE84E6002D09F10109C8BF4FF002083FF702AF32463B4600208E4900F0C8FB4FF002082D
:4033400006460F462FE7089A10AB53F82B30183ACDF81490CDF8048008926BB90BF18043013B10A901EB830353F804190BF1FF3B183A0029F8D00892089A00207C4900F0B9
:4033800027FBBBF1000F04460D46C0F2B6814FEACB030DF5E87810AA02EB8B0608EB03090493043609F1080756F8040D00F0DCFC22462B4600F03EFD002267E902016E4BD7
:4033C0002046294600F036FDB84504460D46EBD14B46CDF818B09B460DF5987ACDF808A0DDF824A04FF00009BAF1000FC0F226815DA3D3E90023DFF884815D460026002760
:40340000002403E0A14510DBF8E90223F5E8020100F010FD02460B463046394600F058FB0134A24506460F46ECDA029BABF1080B03EBC903C3E9006772AB5B4509F10109A3
:40344000D2D1A69BDDF818B0DDF808A0032B00F28380DFE813F0D100950095000400BBF1000F40F35481049BCDF808B053449846D3E90067D34658E9029A32463B4648466E
:40348000514600F025FB04460D4602460B464846514600F01BFB32463B4600F019FBC8E9000168E90245C34526462F46E3D1DA46DDF808B0BBF1010F40F32981049B0DF539
:4034C0009C7B53449846D3E90067994659E902343046CDE902341A463946234600F0F8FA04460D4602460B46DDE9020100F0EEFA32463B4600F0ECFAC9E9000169E9024548
:40350000CB4526462F46E1D100231D4608F1080850AC184678E90223294600F0D9FA444503460D46F5D1019A002A00F0D880DAF80440DAF80C200A9FDAF80010DAF80800D6
:4035400005F1004504F1004402F100427D613B617C60FA603960B860059B03F007000DF51D7DBDE8F08F00BF00000040FB21F93F0000F03F0000E03F0000703E48590000F7
:4035800000242146049D0835554475E90223204600F09EFA55450446F7D1019B002B50D00A9F01F100450B46DAE9000187E83000224600F08BFABBF1000F03460D460DDD53
:4035C00001241846FAE90223294600F081FA0134A34503460D46F4DA019A0AB105F10045184629460A9BC3E90201059B03F007000DF51D7DBDE8F08F00231C46049A083276
:40360000924418467AE90223214600F061FA0BF1FF3BBBF1FF3F03460C46F2D1019A0AB104F10044184621460A9BC3E90001059B03F007000DF51D7DBDE8F08F0026002751
:40364000F3E626460F4622460A9C0B46DAE90001C4E9006700F03AFABBF1000F03460D46AEDC184629460A9BC3E90201BDE7089B30465A423946CDF81490CDF8048000F0D9
:40368000A7F900222C4B06460F4600F059FE002840D00022294B3046394600F0CBFB00F079FE044600F060FB0022234B00F0C2FB0B4602463946304600F008FA00F06AFE5F
:4036C000089B05F1010B1833089310AB43F8250043F82B4050E6012393E500244EE51846DAE90067DAE9022329460A9DC5E90067C5E90401C5E902232EE7A69B032B3FF67B
:403700002BAFDFE803F0151010020DF5987A00231D4608E73046394600F03CFE10ABAB4643F8250028E6002421460DF5987A34E700231C4672E700BF000070410000703E46
:403740002DE9F04F21F00046B6F1795F85B00C4690469946054604DA00F01CFE002800F085802A4623462846214600F063FB06460F4602460B462846214600F05BFB3EA360
:40378000D3E9002382468B463046394600F052FB3BA3D3E9002300F099F932463B4600F049FB39A3D3E9002300F092F932463B4600F040FB36A3D3E9002300F087F93246F9
:4037C0003B4600F037FB34A3D3E9002300F080F90E9BCDE900019BB30022334B4046494600F028FBDDE90023CDE902015046594600F020FB02460B46DDE9020100F066F9FE
:4038000032463B4600F016FB42464B4600F05EF923A3D3E9002306460F465046594600F009FB02460B463046394600F051F902460B462846214600F049F905B0BDE8F08F7E
:4038400002460B463046394600F0F4FA14A3D3E9002300F03BF952465B4600F0EBFA2A46234600F035F905B0BDE8F08F2846214605B0BDE8F08F00BF7CD5CF5A3AD9E53D28
:40388000EB9C2B8AE6E55A3E7DFEB157E31DC73ED561C119A0012A3FA6F810111111813F495555555555C53F0000E03F21F00041704700BF00000000C1F30A522DE9F843E8
:4038C000A2F2FF36132E0B4604460D46884607461CDC002E3FDB3A4A864642FA06F901EA0902024317D034A3D3E9002300F0F0F80022002300F02EFD20B1002D40DB28EAAF
:403900000905002738462946BDE8F883332E06DDB6F5806F2FD020461946BDE8F883A2F213424FF0FF3929FA02F910EA090FF2D021A3D3E9002300F0CBF80022002300F0A6
:4039400009FD0028DED0002D20DB454627EA090738462946D8E718A3D3E9002300F0B8F80022002300F0F6FC0028CBD0002D18DB00273D46C6E702460B4600F0A9F8CCE773
:403980004FF4801343FA06F6B044B8E7142E10D00123C6F1340603FA06F6371928BF9844D3E725F00042074B224318BF1D460027A8E705F10108C8E79C7500883CE4377E4E
:4039C000FFFF0F000000F0BF0020704700000000F8B5C1F30A5604460D460B46174606BB21F00043034325D000222F4B00F022FA2E4A044697420D460B462ADBC1F30A56D8
:403A0000363E40F2FE723E44964228DC002E12DD23F0FF4323F4E00343EA065520462946F8BD40F2FF729642EBD102460B4600F04FF8F8BDF8BD16F1350F1DDA4CF2503320
:403A40009F420CDC14A1D1E9000122462B4600F031F811A3D3E9002300F0ECF9F8BD22460FA1D1E900012B4600F024F80CA3D3E9002300F0DFF9F8BD23F0FF4323F4E00354
:403A8000363643EA0655204629460022084B00F0D1F9F8BDAFF3008059F3F8C21F6EA5019C7500883CE4377E00005043B03CFFFF0000903C03F0004321F0004242EA03018E
:403AC000704700BF81F0004102E000BF83F0004330B54FEA41044FEA430594EA050F08BF90EA020F1FBF54EA000C55EA020C7FEA645C7FEA655C00F0E2804FEA5454D4EBC5
:403B00005555B8BF6D420CDD2C4480EA020281EA030382EA000083EA010180EA020281EA0303362D88BF30BD11F0004F4FEA01314FF4801C4CEA113102D0404261EB410138
:403B400013F0004F4FEA03334CEA133302D0524263EB430394EA050F00F0A780A4F10104D5F1200E0DDB02FA0EFC22FA05F2801841F1000103FA0EF2801843FA05F35941A7
:403B80000EE0A5F120050EF1200E012A03FA0EFC28BF4CF0020C43FA05F3C01851EBE37101F0004507D54FF0000EDCF1000C7EEB00006EEB0101B1F5801F1BD3B1F5001F3B
:403BC0000CD349085FEA30004FEA3C0C04F101044FEA445212F5800F80F09A80BCF1004F08BF5FEA500C50F1000041EB045141EA050130BD5FEA4C0C404141EB010111F415
:403C0000801FA4F10104E9D191F0000F04BF01460020B1FA81F308BF2033A3F10B03B3F120020CDA0C3208DD02F1140CC2F10C0201FA0CF021FA02F10CE002F11402D8BFC8
:403C4000C2F1200C01FA02F120FA0CFCDCBF41EA0C019040E41AA2BF01EB0451294330BD6FEA04041F3C1CDA0C340EDC04F11404C4F1200220FA04F001FA02F340EA0300CE
:403C800021FA04F345EA030130BDC4F10C04C4F1200220FA02F001FA04F340EA0300294630BD21FA04F0294630BD94F0000F83F4801306BF81F480110134013D4EE77FEACB
:403CC000645C18BF7FEA655C29D094EA050F08BF90EA020F05D054EA000C04BF1946104630BD91EA030F1EBF0021002030BD5FEA545C05D14000494128BF41F0004130BD2B
:403D000014F580043CBF01F5801130BD01F0004545F0FE4141F470014FF0000030BD7FEA645C1ABF194610467FEA655C1CBF0B46024650EA013406BF52EA033591EA030F81
:403D400041F4002130BD00BF90F0000F04BF0021704730B54FF4806404F132044FF000054FF0000150E700BF90F0000F04BF0021704730B54FF4806404F1320410F00045C0
:403D800048BF40424FF000013EE700BF42004FEAE2014FEA31014FEA02701FBF12F07F4393F07F4F81F06051704792F0000F14BF93F07F4F704730B54FF4607401F0004578
:403DC00021F0004120E700BF50EA010208BF704730B54FF000050AE050EA010208BF704730B511F0004502D5404261EB41014FF4806404F132045FEA915C3FF4DCAE4FF08C
:403E000003025FEADC0C18BF03325FEADC0C18BF033202EBDC02C2F1200300FA03FC20FA02F001FA03FE40EA0E0021FA02F11444C1E600BF70B54FF0FF0C4CF4E06C1CEA5C
:403E400011541DBF1CEA135594EA0C0F95EA0C0F00F0DEF82C4481EA030621EA4C5123EA4C5350EA013518BF52EA033541F4801143F4801338D0A0FB02CE4FF00005E1FB84
:403E800002E506F00042E0FB03E54FF00006E1FB03569CF0000F18BF4EF0010EA4F1FF04B6F5007F64F5407404D25FEA4E0E6D4146EB060642EAC62141EA55514FEAC520B0
:403EC00040EA5E504FEACE2EB4F1FD0C88BFBCF5E06F1ED8BEF1004F08BF5FEA500E50F1000041EB045170BD06F0004646EA010140EA020081EA0301B4EB5C04C2BFD4EB27
:403F00000C0541EA045170BD41F480114FF0000E013C00F3AB8014F1360FDEBF002001F0004170BDC4F10004203C35DA0C341BDC04F11404C4F1200500FA05F320FA04F0AD
:403F400001FA05F240EA020001F0004221F0004110EBD37021FA04F642EB06015EEA430E08BF20EAD37070BDC4F10C04C4F1200500FA04F320FA05F001FA04F240EA020081
:403F800001F0004110EBD37041F100015EEA430E08BF20EAD37070BDC4F1200500FA05F24EEA020E20FA04F301FA05F243EA020321FA04F001F0004121FA04F220EA0200DE
:403FC00000EBD3705EEA430E08BF20EAD37070BD94F0000F0FD101F00046400041EB010111F4801F08BF013CF7D041EA060195F0000F18BF704703F00046520043EB03031F
:4040000013F4801F08BF013DF7D043EA0603704794EA0C0F0CEA135518BF95EA0C0F0CD050EA410618BF52EA4306D1D181EA030101F000414FF0000070BD50EA410606BF0B
:404040001046194652EA430619D094EA0C0F02D150EA013613D195EA0C0F05D152EA03361CBF104619460AD181EA030101F0004141F0FE4141F470014FF0000070BD41F0B8
:40408000FE4141F4780170BD70B54FF0FF0C4CF4E06C1CEA11541DBF1CEA135594EA0C0F95EA0C0F00F0A7F8A4EB050481EA030E52EA03354FEA013100F088804FEA03331A
:4040C0004FF0805545EA131343EA12634FEA022245EA111545EA10654FEA00260EF000419D4208BF964244F1FD0404F5407402D25B084FEA3202B61A65EB03055B084FEAF8
:4041000032024FF480104FF4002CB6EB020E75EB030E22BFB61A754640EA0C005B084FEA3202B6EB020E75EB030E22BFB61A754640EA5C005B084FEA3202B6EB020E75EB80
:40414000030E22BFB61A754640EA9C005B084FEA3202B6EB020E75EB030E22BFB61A754640EADC0055EA060E18D04FEA051545EA16754FEA06164FEAC30343EA52734FEAD1
:40418000C2025FEA1C1CC0D111F4801F0BD141EA00014FF000004FF0004CB6E711F4801F04BF01430020B4F1FD0C88BFBCF5E06F3FF6AFAEB5EB030C04BFB6EB020C5FEA5A
:4041C000500C50F1000041EB045170BD0EF0004E4EEA113114EB5C04C2BFD4EB0C0541EA045170BD41F480114FF0000E013C90E645EA060E8DE60CEA135594EA0C0F08BF17
:4042000095EA0C0F3FF43BAF94EA0C0F0AD150EA01347FF434AF95EA0C0F7FF425AF104619462CE795EA0C0F06D152EA03353FF4FDAE1046194622E750EA410618BF52EAD0
:4042400043067FF4C5AE50EA41047FF40DAF52EA43057FF4EBAE12E74FF0FF3C06E000BF4FF0010C02E000BF4FF0010C4DF804CD4FEA410C7FEA6C5C4FEA430C18BF7FEAEB
:404280006C5C1BD001B050EA410C0CBF52EA430C91EA030F02BF90EA020F0020704710F1000F91EA030F58BF994208BF90422CBFD8176FEAE37040F0010070474FEA410CF1
:4042C0007FEA6C5C02D150EA013C07D14FEA430C7FEA6C5CD6D152EA033CD3D05DF8040B704700BF8446104662468C461946634600E000BF01B5FFF7B7FF002848BF10F140
:40430000000F01BD4DF808EDFFF7F4FF0CBF012000205DF808FB00BF4DF808EDFFF7EAFF34BF012000205DF808FB00BF4DF808EDFFF7E0FF94BF012000205DF808FB00BF4C
:404340004DF808EDFFF7CEFF94BF012000205DF808FB00BF4DF808EDFFF7C4FF34BF012000205DF808FB00BF4FEA410C7FEA6C5C02D150EA013C0AD14FEA430C7FEA6C5CC2
:4043800002D152EA033C02D14FF0000070474FF0010070474FEA410212F5001215D211D56FF47873B3EB625212D94FEAC12343F0004343EA505311F0004F23FA02F018BF69
:4043C000404270474FF00000704750EA013005D111F0004008BF6FF0004070474FF00000704700BF4A0011D212F5001211D20DD56FF47873B3EB62520ED44FEAC12343F05D
:40440000004343EA505323FA02F070474FF00000704750EA013002D14FF0FF3070474FF000007047014B1868704700BF5081FF1F0E4B70B51E460E4C0025E41AA410A54229
:4044400004D056F8253098470135F8E701F0EAFA084B094C1E46E41AA4100025A54204D056F8253098470135F8E770BD305A0000305A0000305A0000385A000010B5431E44
:404480000A44914204D011F8014B03F8014FF8E710BD03460244934202D003F8011BFAE77047000070B50E46054618B183690BB900F030FAAB69AC6813B9284600F02AFA09
:4044C000224B9C4201D16C6808E0214B9C4201D1AC6803E01F4B9C4208BFEC68A3891B0701D523693BB92146284600F0B5F810B14FF0FF3070BD013EA36816F8011F013B47
:40450000A36091B1002B04DAA269934206DB0A2904D023685A1C22601970EDE72246284600F046F80130E7D1E2E7002B08DA22460A21284600F03CF80130D9D00A2070BD6C
:4045400023680A205A1C2260187070BD90590000B0590000D0590000024B01461868FFF7A1BF00BF5081FF1F0EB400B54FF402719CB0ADF814106FF00041049107914FF652
:40458000FF711DAB02900690084853F8042BADF81610006802A9019300F0AAFB029B00221A701CB05DF804EB03B070475081FF1FF8B50F461446064618B183690BB900F007
:4045C000A9F9224B9C4201D1746808E0204B9C4201D1B46803E01F4B9C4208BFF468A369A360A3891A0709D523693BB123682069FDB2181A636998420FDB08E021463046B7
:4046000000F02AF80028F1D04FF0FF30F8BD2146304600F015F90028F6D1A368013BA36023685A1C22601F706269431C934204D0A389DB0707D50A2D05D12146304600F09F
:40464000FFF80028E0D12846F8BD00BF90590000B0590000D0590000324B70B51D6806460C4625B1AB6913B9284600F053F92E4B9C4201D16C6808E02C4B9C4201D1AC6828
:4046800003E02B4B9C4208BFEC68B4F90C309AB215071DD4D00602D4092232603AE0510712D5616B41B104F14403994202D0304600F01AFA00236363A38923F02403A38110
:4046C0000023636023692360A38943F00803A38123694BB9A38903F42073B3F5007F03D02146304600F0C4F9A28912F0010305D00023A36063695B42A36103E0920758BF41
:404700006369A36023695BB9B4F90C3003F0800080B230B143F04003A3814FF0FF3070BD002070BD5081FF1F90590000B0590000D05900008A892DE9F041054610070C4601
:4047400059D44B68002B02DC0B6C002B17DDE66AAEB102F48052002392B22F682B600AB1606D15E0216A01232846B047411C0FD12B686BB11D2B01D0162B03D12F60002060
:40478000BDE8F081A38943F04003A381BDE8F081A3895A0705D56368C01A636B0BB1236CC01A00230246E66A216A2846B047431CA38906D129681D2939D8204ACA40D607C2
:4047C00035D5002262602269D904226004D5421C01D12B6803B96065616B2F600029CED004F14403994202D0284600F07DF900206063BDE8F0810F69002FC0D093070E68A5
:404800000CBF4B690023C7EB06080F608B6002E00744C0EB0808B8F1000FB0DD43463A46216A2846A66AB0470028F1DCA38943F04003A3814FF0FF30BDE8F08101004020E6
:4048400038B50B6905460C46DBB118B183690BB900F060F80C4B9C4201D16C6808E00B4B9C4201D1AC6803E0094B9C4208BFEC68B4F90C302BB121462846BDE83840FFF733
:4048800059BF002038BD00BF90590000B0590000D0590000014900F0A9B800BF4148000010B50446002303604360836081814366C281036143618361194608225C30FFF70E
:4048C000E8FD054B24626362044BA362044BE362044B236310BD00BF31520000535200008B520000AF52000070B568234D1E5D430E4605F1740100F043F9044640B10021E7
:4049000080E842000C30A06005F16802FFF7C1FD204670BD836910B5044633BB8364C3640365124B124A1B688262984204BF0123836100F01FF86060204600F01BF8A06096
:40494000204600F017F80022E06004216068FFF7A7FF01220921A068FFF7A2FF02221221E068FFF79DFF0123A36110BD8C59000095480000F8B51C4B07461E68B36913B944
:404980003046FFF7C7FF4836B4687368013B04D4B4F90C507DB16834F8E733680BB13668F2E704213846FFF79FFF30600028F6D10C233B60F8BD4FF6FF73E3810123A38124
:4049C00065662560A560656025616561A5610822294604F15C00FFF75CFD6563A563A564E5642046F8BD00BF8C5900002DE9F8438046894600F14804002694B1A5686768C7
:404A0000013F0CD4AB89012B07D9B5F90E30013303D029464046C84706436835F0E72468EBE73046BDE8F88370B50E46B1F90E1090B0002914461D4606DA00232B60B3893D
:404A40001A060ED540230EE001AA00F057FC0028F3DB029A02F47042A2F500535A425A412A604FF480630020236010B070BD00008B8973B59E0705460C4610D401AB6A469B
:404A8000FFF7D2FF00990646284600F079F868B9B4F90C309A0522D443F00203A38104F14703236023610123636118E00D4BAB62A389206043F08003A381009B206163618F
:404AC000019B4BB1B4F90E10284600F029FC18B1A38943F00103A381A0893043A08102B070BD00BF9548000038B50546002944D051F8043C0C1F002BB8BFE41800F05BFC3A
:404B00001E4A1368114613B96360146030E0A3420DD92268A018834201BF18685B681218226063600C6023E0A24203D813465A68002AF9D118681918A1420BD12168014469
:404B400058188242196013D110685268014419605A600DE002D90C232B6009E021686018824201BF106852680918216062605C602846BDE8384000F01FBC38BD9081FF1F3E
:404B800070B5CD1C25F0030508350C2D38BF0C25002D064601DBA94202D90C23336046E000F009FC234B1C681A462146A1B10B685B1B0ED40B2B03D90B60CC18CD501EE0E2
:404BC0008C420BBF63684B681360636018BF0C4615E00C464968E9E7174C23681BB9304600F016FB20602946304600F011FB431C18D0C41C24F00304A0420DD125603046E1
:404C000000F0DAFB04F10B00231D20F00700C31A0ED05A42E25070BD211A304600F0F8FA0130EBD10C233360304600F0C5FB002070BD00BF9081FF1F8C81FF1F2DE9F04787
:404C40008E6882469E420C46914698463ED88A8912F4906F3AD02568096902236F1A656905EB450595FBF3F57B1C43449D4238BF1D4653050FD52946FFF782FF064698B11C
:404C80003A462169FFF7FAFBA38923F4906343F08003A38113E02A4600F08FFB064670B921695046FFF720FF0C23CAF80030A3894FF0FF3043F04003A381BDE8F087266170
:404CC0003E44266046466561ED1BA560464528BF464649463246206800F052FBA36800209B1BA36023681E442660BDE8F08700002DE9F04F9DB003938B8980461C060D4689
:404D000016460DD50B695BB94021FFF739FF2860286118B90C23C8F80030CDE040236B610023099320238DF82930DFF89CB130238DF82A3037463C4614F8013B1BB9B7EB4E
:404D4000060910D003E0252BF9D02746F3E74B46324629464046FFF771FF013000F0A780099B4B4409933B78002B00F0A08000234FF0FF3204930793059206938DF853309C
:404D80001A930126052221784E4800F0EBFA671C049B38B14B4A3C46801A06FA00F018430490EFE7D90644BF20228DF853201A0744BF2B228DF8532022782A2A03D0079A9C
:404DC00000210A200BE0039A111D12680391002A10DA524243F00200079204900BE027463B780134303B092B03D800FB02320121F5E701B107923B782E2B1ED17B782A2B25
:404E00000AD1039B02371A1D1B680392002BB8BF4FF0FF33059310E0002319460593781C0A2407463A780130303A092A03D804FB01210123F5E703B10591032239782248A7
:404E400000F090FA40B14023CBEB000003FA00F0049B013718430490397806221B487E1C8DF8281000F07EFA88B1194B33B9039B073323F007030833039314E003AB00937C
:404E80002A46144B04A94046AFF3008007E003AB00932A460F4B04A9404600F093F8B0F1FF3F824603D0099B5344099342E7AB895B0601D4099801E04FF0FF301DB0BDE8E8
:404EC000F08F00BFF0590000F6590000FA590000000000003D4C00002DE9F04791461F460A698B6806469342B8BF1346C9F8003091F843200C46DDF8208012B10133C9F8C4
:404F000000302368990642BFD9F800300233C9F80030256815F0060510D104F1190A07E00123524639463046C04701301AD00135E368D9F800209B1A9D42F1DB94F84330CE
:404F40002268003318BF012392060FD5E118302081F843005A1C94F845102244023382F8431003E04FF0FF30BDE8F08704F1430239463046C0470130F4D02268D9F80050F6
:404F8000E36802F00602042A08BF5D1B2269A3680CBF25EAE57500259342C4BF9B1AED184FF000091A344D4509D00123224639463046C0470130D5D009F10109F3E70020E1
:404FC000BDE8F0872DE9F04317460A7E85B06E2A984606460C460C9B01F1430E00F0AE8011D8632A22D009D8002A00F0BB80582A40F0CA8081F84520834955E0642A1ED021
:40500000692A1CD0C0E0732A00F0B08009D86F2A2ED0702A40F0B8800A6842F020020A603EE0752A24D0782A3AD0ADE01A6801F14205111D1960136884F84230A8E0216824
:405040001A6811F0800F02D0111D196008E011F0400F02F10401196002D0B2F9003000E01368002B3CDA2D225B4284F8432037E021681A6811F0800F02D0111D196007E0D6
:4050800011F0400F02F10401196001D0138800E01368227E5C496F2A14BF0A2208221BE078225A4984F845202268186812F0800F00F104051D6003D1550601D5038800E0C6
:4050C0000368D00744BF42F0200222601BB9226822F0200222601022002084F8430001E049490A226568002DA56008DB206820F0040020602BB9002D7DD175460CE0002BA2
:4051000079D07546B3FBF2F002FB1033CB5C05F8013D03460028F5D1082A0BD12368DA0708D5236962689A42DEBF302305F8013C05F1FF35C5EB0E0323612EE008681A68E0
:4051400010F0800F496903D0101D1860136808E010F0400F02F104001860136801D0198000E0196000232361754616E01A68111D1960156800216268284600F0F3F808B12C
:40518000401B6060636804E004F1420584F8422001232361002384F84330CDF800803B4603AA21463046FFF797FE013002D14FF0FF3026E023692A4639463046C0470130D5
:4051C000F5D023689B0710D5002504F1190907E001234A4639463046C0470130E7D00135E368039A9B1A9D42F2DBE068039B9842B8BF184605E00B7804F1420584F8423077
:405200008AE705B0BDE8F083015A0000125A000038B5064C0023054608462360FBF782FD431C02D1236803B12B6038BD5091FF1F10B50C46B1F90E1000F0E6F80028ABBF4B
:40524000636DA3891B1823F48053ACBF6365A38110BD2DE9F0411F468B890546DB050C46164605D502230022B1F90E1000F068F8A389324623F48053A381B4F90E103B4621
:405280002846BDE8F04100F017B810B50C46B1F90E1000F055F8431CA38915BF606523F4805343F48053A38118BFA38110BDB1F90E1000F013B8000038B5074C054608466F
:4052C0001146002222601A4600F0E2F8431C02D1236803B12B6038BD5091FF1F38B5064C002305460846236000F0AAF8431C02D1236803B12B6038BD5091FF1F38B5074C59
:405300000023054608461146236000F0A1F8431C02D1236803B12B6038BD00BF5091FF1F38B5064C002305460846236000F098F8431C02D1236803B12B6038BD5091FF1FB1
:4053400038B5074C054608461146002222601A4600F08EF8431C02D1236803B12B6038BD5091FF1F10B5C9B202449042034605D01C7801308C42F8D1184610BD002010BDA9
:40538000884210B501EB020301D8421E0BE09842FBD28118D21AD34204D013F8014D01F8014DF8E710BD994204D011F8014B02F8014FF8E710BD70477047F8B5074615462B
:4053C0000E4621B91146BDE8F840FFF7D9BB1AB9FFF78AFB2846F8BD00F028F885420ED929463846FFF7CCFB044650B131462A46FFF744F831463846FFF776FB01E03046D1
:40540000F8BD2046F8BD000038B5074C054608461146002222601A4600F032F8431C02D1236803B12B6038BD5091FF1F51F8040C0028BEBF091851F8043CC01804387047EB
:40544000024B58221A604FF0FF3070475091FF1F024B58221A604FF0FF3070475091FF1F024B58221A600020704700BF5091FF1F024B58221A604FF0FF3070475091FF1F27
:40548000024B58221A604FF0FF3070475091FF1F024B58221A604FF0FF3070475091FF1F00000000000000004F6E20746865206C696D6974200D0A004F6E207468652066EA
:4054C000696C746572200D0A00000000506F7765722062696767657220746F20300D0A004F6E2074686520636F656666200D0A00436F6566663A2025640D0A004F6E2074A8
:40550000686520476F6572747A656C20436F6D70757465200D0A000054483A2025730D0A00000000546865206B65792069732058585858580A00000025730D0A0000000042
:40554000546865206B6579206973203100000000546865206B657920697320310A000000546865206B6579206973203200000000546865206B657920697320320A000000B9
:40558000546865206B6579206973203300000000546865206B657920697320330A000000546865206B6579206973203400000000546865206B657920697320340A00000071
:4055C000546865206B6579206973203500000000546865206B657920697320350A000000546865206B6579206973203600000000546865206B657920697320360A00000029
:40560000546865206B6579206973203700000000546865206B657920697320370A000000546865206B6579206973203800000000546865206B657920697320380A000000E0
:40564000546865206B6579206973203900000000546865206B657920697320390A000000546865206B6579206973203000000000546865206B657920697320300A000000AC
:40568000434F4D20506F7274204F70656E200D0A00000000035B00402443004040000000004F00400C00005100401000305100404000F051004010000000014000100014A5
:4056C0000140000800400140000A004C01400002005001402000000080878F969EA5ADB4BBC1C8CED4D9DEE3E8ECEFF3F5F8FAFBFCFCFCFCFBFAF8F5F3EFECE8E3DED9D4B8
:40570000CEC8C1BBB4ADA59E968F8780787069615A524B443E37312B26211C1713100C0A070504030303030405070A0C1013171C21262B31373E444B525A61697078000079
:4057400080878F979FA6AEB5BCC2C9CFD5DBE0E5E9EDF1F4F6F9FAFCFCFCFCFCFAF9F6F4F1EDE9E5E0DBD5CFC9C2BCB5AEA69F978F87807870686059514A433D36302A245D
:405780001F1A16120E0B09060503030303030506090B0E12161A1F242A30363D434A5159606870787371727400000000FB21F93FFB2109407CD91240FB2119407A6A1F4004
:4057C0007CD92240BBFD2540FB2129403A462C407A6A2F405C4731407CD932409C6B3440BBFD3540DB8F3740FB2139401BB43A403A463C405AD83D407A6A3F404C7E404077
:405800005C4741406C1042407CD942408CA243409C6B4440AC344540BBFD4540CBC64640DB8F4740EB584840FB21494083F9A200444E6E00FC291500D1572700DD34F5006C
:4058400062DBC0003C999500419043006351FE00BBDEAB00B761C5003A6E2400D24D42004906E00009EA2E001C92D100EB1DFE0029B11C00E83EA700F535820044BB2E003C
:405880009CE98400B4267000417E5F00D6913900538339009CF439008B5F840028F9BD00F81F3B00DEFF97000F980500112FEF000A5A8B006D1F6D00CF7E360009CB2700AC
:4058C000464FB7009E663F002DEA5F00BA277500E5EBC7003D7BF100F739070092528A00FB6BEA001FB15F00085D8D00300356007BFC4600F0AB6B0020BCCF0036F49A003C
:40590000E3A91D005E619100081BE60085996500A0145F008D40680080D8FF0027734D0006063100CA561500C9A873007BE260006B8CC00002000000030000000400000089
:40594000060000000000000000000040FB21F93F000000002D44743E000000809846F83C0000006051CC783B00000080831BF0390000004020257A38000000802282E336ED
:40598000000000001DF3693543000000F080FF1F00000000000000000000000000000000000000000000000000000000000000000000000000000000000000000000000068
:4059C000000000000000000000000000000000000000000000000000000000000000000000000000000000000000000000000000232D302B2000686C4C00656667454647B8
:405A0000003031323334353637383941424344454600303132333435363738396162636465660000F8B500BFF8BC08BC9E4670474D0000000D0E0000F8B500BFF8BC08BC97
:405A40009E46704729000000585A0000C880FF1F9000000000100000000000005891FF1F01FF0000807F00000300000000366E01C05D0000180000000000E02EFFFF0100BA
:405A80000000000090590000B0590000D0590000000000000000000000000000000000008859000000000000000000000000000000000000000000000000000000000000EA
:405AC0000000000000000000000000000000000000000000000000000000000000000000F080FF1F0000000000000000000000000000000000000000000000000000000018
:405B00000000000000000000000000000000000000000000000000000000000000000000000000000000000000000000000000000000000000000000000000000000000065
:405B40000000000000000000000000000000000000000000000000000000000000000000000000000000000000000000000000000000000000000000000000000000000025
:405B800000000000000000000000000000000000000000000000000000000000000000000000000000000000000000000000000000000000000000000000000000000000E5
:405BC00000000000000000000000000000000000000000000000000000000000000000000000000000000000000000000000000000000000000000000000000000000000A5
:020000040003F7
:0200000480007A
:40000000024F004002520040015A00400164004002650040010501404A08014032090140020B0140040C0140020D014002150140011701404F18014043190140561A0140C8
:400040004F1B014005400140024101400942014001430140024401400345014007460140034701400448014007490140054C01400A4D0140065001400251014001100A4BB8
:400080006180644097018972880F8A38EA0803020501090111011506250629042D013306350139083F144002474049FF4A074BFF4C404D204EF04F05500859045A045D0269
:4000C0005F01604061A86240632080018110840C85188602880189088C0E8DDC8F21920293E3940295E7960C971899C09C0C9D809E02A008A1FFA404A53CA7C2A80CA94438
:40010000AC01AF04B138B3D8B401B51FB60EBA80BB28D602D712D804D904DB04DC22DD20DF0100240102030109020A010B10108A130819801A05204421082314272429014B
:400140002A282B022DC02F14310A32103380350136083701382839403A023D023E083F1547204F0157015B0468126914709C7202730889028A04C00FC20DC40FCA7FCCCF38
:40018000CEEFD020D602AF40B44038823E4158045F011C401F40EC10EE06E0400305041105100606081109030A0E0B04140C1613170819031B0C1E082213250326102704FE
:4001C000290A2A0C2B043010320F330F35103A083B883E013F104024410345EB46C0470E481B49FF4AFF4BFF4EF04F44500C5401580459045A045B045C225D225F0166C0E0
:400200006A406B0280408220861888078E18900A9201941996069A189B019E60A014A201A407A818AC18B018B207B420B640B701BE50D804D904DC32DF010004019002805B
:40024000051007140A240B820D040E100F0210801184131014A8161019011A221B201E501F0422802540260827192F1430A033803408360437103D2A4480450147144D01F5
:400280004F04551456105C205D015E405F088F0190449114920493109620972899809A089E209F01A101A301A608A782B112C06FC2AFC47FCA60CC64CEE0D0E0D6F0E0400C
:4002C0000410060C070109010F041101160217021F04241828182B022C082E152F0130013218330135023606370439083E403F50406241044205440145C046E0480A49FF1A
:400300004AFF4BFF4C624DA04EF04F41500C5418580459045A045B045C225D225F016640670269106A306B106D106E106F12814085148605891C8A038B228C089303950981
:40034000971099309A069B0C9E02A110A201A406A52CA601A711B360B407B608B71FB908BA20BE40D804D904DC22DF010108051007120A200E090F021002111414801508F5
:40038000180119081B021D101E021F1021A82604270229802A102E012F103080310833013604371238403A083B503D023E103F0440014204430148804B505210590161A05D
:4003C000820188028A208B408D088F809040911C9234931497A0988099819A089B119D109E20A101A301A604A782AB20AC20AE01C0E4C2C4C437CACCCCEBCEEED00DD20C83
:40040000D601D80CE401EA02EC1032803B023F40CC10CE609742A68012805B0897429B08A680AF08C410D640EA1097427C20DE0100809C20C00233804508A040B420CC08B1
:40044000D001E802A040A508A78025108D109742C82019109D10AB01AF40B510C640EE608F80A040A508A780E0021080700480048880AC40B508C408DC01E601EC0800048A
:400480000C04100C11011C0C1D010003100A0000800040808000800000000000000B0B0000000000040000040000000000000000950018010000000000000000000000008F
:4004C00000000000000000000000000000000000000000000000000000000000000000000000000000000000000000000000000000000000000000000000000000000000FC
:4005000000000000000000000000000000000000000000000000000000000000000000000000000000000000000000000000000000000000000000000000000000000000BB
:40054000000000000000000000000000000000000000000000000000000000000000000000000000000000000000000000000000000000000000000000000000000000007B
:40058000000000000000000000000000000000000000000000000000000000000000000000000000000000000000000000000000000000000000000000000000000000003B
:0200000490006A
:0400000000004005B7
:0200000490105A
:04000000BC90ACAF55
:0200000490303A
:02000000644852
:0200000490402A
:4000000000000000000000000000000000000000000000000000000000000000000000000000000000000000000000000000000000000000000000000000000000000000C0
:400040000000000000000000000000000000000000000000000000000000000000000000000000000000000000000000000000000000000000000000000000000000000080
:400080000000000000000000000000000000000000000000000000000000000000000000000000000000000000000000000000000000000000000000000000000000000040
:4000C0000000000000000000000000000000000000000000000000000000000000000000000000000000000000000000000000000000000000000000000000000000000000
:0200000490501A
:0C00000000012E16106900012E3A74B1A8
:00000001FF