:400000000080002011000000490B0000490B000080B500AF024A034B1B68136000F0C6FDBC760040FA46004010B5054C237833B9044B13B10448AFF300800123237010BDAC
:400040008881FF1F000000001C670000084B10B51BB108490848AFF300800848036803B910BD074B002BFBD0BDE81040184700BF000000008C81FF1F1C670000C880FF1F7C
:40008000000000000000000090B58BB000AFF860B9601346FB804FF000037B624FF000033B62B86803F0BAF837A3D3E9002303F009F903460C46184621464FF00002344B3B
:4000C00003F02AFA03460C461846214601F0E2FC02460B4602F044FF03460C461846214603F0C8FB0346BB610023FB6120E0796AB86903F01DFD0346396A184603F00EFC9A
:4001000003461C46FB695B00FA6813441B88184603F0BAFC03461946204603F001FC03467B617B6A3B627B697B62FB690133FB61FA88FB699A42DADC796A786A03F0F8FC74
:4001400003461C46396A386A03F0F2FC03461946204603F0E5FB03461C46796AB86903F0E7FC0346396A184603F0E2FC03461946204603F0D3FB03463B613B6918462C3714
:40018000BD4690BDAFF30080182D4454FB2119400040BF40B0B584B000AF78600B467B807B88184603F06CFC0346184603F036F803460C461A4623464FF000004FF08041A9
:4001C00003F0AAF903460C4625461C46786803F025F802460B461046194601F0A3FC02460B462046294603F06DF803460C461846214603F03FFB0346FB60FB681846103734
:40020000BD46B0BD80B590B000AF4FF4FA62A749A748FFF739FFF8634FF4FA62A549A448FFF732FFB8634FF4FA62A349A048FFF72BFF78634FF4FA62A0499D48FFF724FF74
:4002400038634FF4FA629E499948FFF71DFFF8624FF4FA629B499648FFF716FFB8624FF4FA6299499248FFF70FFF78624FF4FA61F86BFFF78FFF38624FF4FA61B86BFFF77B
:4002800089FFF8614FF4FA61786BFFF783FFB8614FF4FA61386BFFF77DFF78614FF4FA61F86AFFF777FF38614FF4FA61B86AFFF771FFF8604FF4FA61786AFFF76BFFB86044
:4002C000F969386A03F02CFB0346B969184603F027FB03467969184603F022FB03463969184603F01DFB0346F968184603F018FB0346B968184603F013FB03464FF08141F4
:40030000184603F0C9FC03467B607968386A03F0CBFD0346002B12D07968386903F0C4FD0346002B0BD0694804F0D2FA684A6949694804F0D5FA684801F044FB1DE1796862
:40034000386A03F0B1FD0346002B12D07968F86803F0AAFD0346002B0BD0604804F0B8FA5F4A5C495C4804F0BBFA5B4801F02AFB03E17968386A03F097FD0346002B12D0D4
:400380007968B86803F090FD0346002B0BD0554804F09EFA544A4F494F4804F0A1FA4E4801F010FBE9E07968F86903F07DFD0346002B12D07968386903F076FD0346002B2C
:4003C0000BD04A4804F084FA494A4249424804F087FA414801F0F6FACFE07968F86903F063FD0346002B12D07968F86803F05CFD0346002B0BD03F4804F06AFA3E4A35493C
:40040000354804F06DFA344801F0DCFAB5E07968F86903F049FD0346002B12D07968B86803F042FD0346002B0BD0344804F050FA334A2849284804F053FA274801F0C2FA44
:400440009BE07968B86903F02FFD0346002B12D07968386903F028FD0346002B0BD0294804F036FA284A1B491B4804F039FA1A4801F0A8FA81E07968B86903F015FD034606
:40048000002B47D07968F86803F00EFD0346002B40D01E4804F01CFA1D4A0E490E4804F01FFA0D4801F08EFA67E000BF00C02944D081FF1F008040440000554400406B44AA
:4004C000002097440000A74400A0B844206700003067000040670000C081FF1F486700005867000068670000786700008867000098670000A8670000B8670000C8670000EF
:40050000D8670000E8670000F867000008680000186800007968B86903F0C6FC0346002B12D07968B86803F0BFFC0346002B0BD0144804F0CDF9144A1449154804F0D0F9E8
:40054000134801F03FFA18E07968786903F0ACFC0346002B11D07968F86803F0A5FC0346002B0AD00B4804F0B3F90B4A0749084804F0B6F9064801F025FA00231846403748
:40058000BD4680BD286800003868000040670000C081FF1F486800005868000080B582B000AF00F0D1FC01F06FF9414B00221A70404B00221A70404B00221A703F4B0022D7
:4005C0001A7000F0D9FC3E4801F0FCF962B601F0BDF90346FB71FB79582B1DD0582B0BDC432B21D0432B02DC002B1FD01FE0452B16D0532B0CD01AE0652B11D0652B02DC31
:40060000632B11D013E0732B02D0782B04D00EE0274B01221A700AE0254B00221A7006E0254B01221A7002E000BF00E000BF012000F0B2FC0346002BC9D000F0D3FC034647
:400640009AB2204B1A801B4B1B78002B03D1184B1B78002BBBD01C4B1B881A46194B19881A4B23F81210184B1B88B3F5FA6F07D10F4B00221A70FFF7C5FD134B00221A80AD
:400680000C4B00221A70104B1B8801339AB20E4B1A800D4B1B881A460C4B33F812301A460B490C4804F01CF90A4801F08BF98EE77091FF1F7491FF1F7191FF1F7591FF1FD4
:4006C000686800007291FF1FA481FF1FD081FF1F7C680000C081FF1F80B582B000AF786039603A680021786803F01FFC00BF0837BD4680BD80B584B000AFF860B9607A603B
:400700007A68B968F86803F005FC00BF1037BD4680BD00BF80B483B000AF0346FB71FEE780B487B000AF7860396000233B6100237B6127E07B699B007A6813441B68BB6007
:40074000BB68FB73BB6823F0FF03BB6014E03B695B003A6813441B781A46BB68134419463B695B003A6813445B780B703B6901333B61FB7B013BFB73FB7B002BE7D17B69C6
:4007800001337B617B69102BD4D900BF1C37BD4680BC704780B582B000AF3F4B00221A803E4B50221A703E4B19221A803D4B18221A7004223C493D48FFF79CFF3C4B02225E
:4007C0001A704FF0402308221A703A4B03221A70394B3A4A1278D2B21A70394B08221A80384B41F251221A800023FB7019237B6014E0FB785B00DAB2334B1B78DBB203F0B6
:400800000103DBB21343DBB203F00303FB704FF4F07001F015F97B68013B7B607B68002B02D0FB78032BE4D17B68002B02D10320FFF770FF254B4FF480721A80234B0722CF
:400840001A70234B00221A70224B48221A701F4B00221A70204B02221A70204B04221A701F4A1F4B1B78DBB243F00303DBB213701C4A1C4B1B78DBB243F00103DBB21370B9
:40088000194A194B1B78DBB263F07F03DBB2137000BF0837BD4680BD804000408240004084400040864000402C030048004100400043004000420040A146004008010049AC
:4008C000224200402042004025420040044000400640004008400040014000400B400040A2430040A1430040A043004080B483B000AF0F4B1B78FB710E4AFB7903F00703C9
:40090000DBB213700C4AFB791B09DBB213700B4B40221A700A4B04221A700A4B04221A70094B44221A7000BF0C37BD4680BC7047CF0100496E5800406F5800401D5100404D
:40094000005B0040585B00407658004080B483B000AF0346FB71FB79012B0ED8FB79094A52F82330FA79074951F822201178FA790548825C0A43D2B21A7000BF0C37BD4651
:4009800080BC7047846800008C68000080B483B000AF0346FB71FB79012B10D8FB790A4A52F82330FA79084951F822201178FA790648825CD243D2B20A40D2B21A7000BF85
:4009C0000C37BD4680BC7047846800008C68000080B586B000AF72B64A4A4A4B1B78DBB243F00403DBB213700023FB7513E0FA7D13465B0013445B00434A13443B613B6982
:400A00001A683B699B889BB219461046FFF764FEFB7D0133FB75FB7D082BE8D90023FB751CE0FA7D13469B0013445B00374A1344FB60FB681B68BB60FB685B687B60FB6847
:400A40001A7A5B7A1B0213437B807B881A467968B868FFF74FFEFB7D0133FB75FB7D012BDFD92B494FF09040FFF75AFE294B0A221A70294A284B1B78DBB243F00203DBB2BA
:400A80001370264A254B1B78DBB243F00203DBB21370234A224B1B78DBB243F04003DBB21370204A1F4B1B78DBB243F01003DBB213700A221C491D48FFF71CFE08221C490C
:400AC0001C48FFF717FE1C4A1B4B1B78DBB243F00803DBB21370194B60221A70FFF75AFE164B80221A70164B01221A70FFF7FEFE0E220B491348FFF7FDFD00BF1837BD4622
:400B000080BD00BFE846004090680000C868000044000048835800400350014013500140A0430040C243004018030048C051004024030048125100402243004000480040E9
:400B400004000840B043004080B500AF03F0B6F903461B680C2B00D1FEE7FEE780B584B000AF78600F4B1A687B6813441A460E4BD31A802B09DC0B4B1B68FB60094B1A688C
:400B80007B681344074A136007E003F097F902460C2313604FF0FF33FB60FB6818461037BD4680BDCC80FF1F8091FF1F80B586B000AF224B7B61224B3B61204B7B6135E06E
:400BC0003B691B68FB603B695B68BB603B699B683B6000237B600CE0FB681A68BB681A60BB680433BB60FB680433FB607B6804337B607A683B689A42EED13B69DB683B6042
:400C000000237B6008E0BB6800221A60BB680433BB607B6804337B607A683B689A42F2D13B6910333B617B69013B7B617B69002BC6D103F049F9FFF7B1FCFEE7010000009E
:400C4000B06C000080B582B000AF184B184A1A60184A184B1B6843F40073136000237B600FE07B68032B04D8134A7B6852F8233000E0124B12497A6841F822307B680133CB
:400C80007B607B682F2BECD90E4B1B78DAB20E4B1A700E4B0A4A1A60FFF79AFE0C4B00221A6000BF0837BD4680BD00BF0CED00E00004FA0514ED00E000000000490B000046
:400CC0000080FF1FBC760040C480FF1F08ED00E0C080FF1F80B582B002AF324B01221A70314B00221A70102000F054FC102000F037FD07211D2000F0A3FD2C4B04221A7005
:400D00002B4B00221A702B4B00221A702A4A2A4B1B78DBB243F01803DBB21370274B00221A70274B00221A70264B00221A70264B0A221A70254B00221A70254B00221A7050
:400D4000244B12221A70244B13221A70234B00221A70234B14221A700123009308234FF400424FF40041032000F02CFA1D4A0D4B1B78DBB2013B1C499B000B449B781370AC
:400D80001A4A084B1B78DBB2013B174931F823301380044B1B78DBB2184600F061F900BFBD4680BDD080FF1FA881FF1F96580040975800409E580040075B00409358004086
:400DC000885B0040895B004080580040815800408358004088580040895800408D580040014E00400E4E0040B081FF1F0C4E004080B582B000AF00F042FE0346FB71444B5C
:400E00001B78BB71434A434B1B78DBB243F00103DBB213703F4A3F4B1B78DBB243F01003DBB213703C4A3C4B1B78DBB243F00103DBB21370384A384B1B78DBB243F0100309
:400E4000DBB21370354A354B1B78DBB243F00203DBB21370324A324B1B78DBB243F00203DBB213702F4A2F4B1B78DBB243F00303DBB21370032000F0A7FC284A274B1B7811
:400E8000DBB223F00203DBB21370254A244B1B78DBB223F00203DBB21370234A224B1B78DBB243F00603DBB21370204B7A221A701F4A1F4B1B78DBB243F00103DBB2137046
:400EC0001C4A1C4B1B78DBB243F00103DBB21370194A194B1B78DBB243F00103DBB21370164A164B1B78DBB243F00103DBB21370134B4FF000521A60124B4FF000521A6097
:400F0000FB79184600F0BFFD00BF0837BD4680BDD080FF1FAA430040BA430040F8460040F9460040915800407758004082580040A1430040B1430040A2430040B24300401C
:400F400080E200E000E100E080B500AF084B1B78002B09D1074B1B78DBB2002B01D1FFF7B9FE034B01221A70FFF742FF00BF80BDAA81FF1FAB81FF1F80B400AF054A054B40
:400F80001B78DBB243F00103DBB2137000BFBD4680BC7047004E004080B485B000AF0346FB710D4B1B78DBB2002B03D00B4B1B78FB7305E00A4B1B78DBB203F00103FB732E
:400FC000FB7B012B02D0FB79002BEAD0FB7B18461437BD4680BC7047A981FF1FA881FF1F014E004080B483B000AF174B1B78DBB203F003037B717B79012B03D8134B1B8878
:40100000FB8011E0114B1B78DBB2FB80104B1B78DBB29BB21B029AB2FB881343FB807B79032B01D10B4B1B780B4B1B78DBB2002B02D00A4B00221A70B7F9063018460C37F0
:40104000BD4680BC704700BF144E0040104E0040114E0040124E0040A981FF1FA881FF1F80B582B000AF0346FB71384B00221A70FB79012B65D1364B38221A70354B0422D2
:401080001A70354B06221A70344B00221A70344B00221A70334B0F221A70334B00221A70324B00221A70324B00221A70314B01221A70314B14221A70304B04221A70304B5E
:4010C00018221A702F4B00221A702F4B11221A702E4B12221A702E4B00221A702D4B01221A702D4B11221A702C4B19221A702C4B97221A70442000F01DF92A4B58221A7040
:40110000294B00221A70294B05221A70284B02221A70284B00221A70274B00221A70002000F066F9254B2A221A600121052000F073F90121BA2000F055FA21491D2000F0F2
:4011400057FB00BF0837BD4680BD00BFA981FF1F004E0040024E0040034E0040044E0040054E0040064E0040084E0040094E00400A4E0040144E00408458004085580040D0
:4011800086580040875800408A5800408B5800408C5800408E5800408F580040905800409158004094580040955800409A5800409B5800409C5800409D5800407891FF1F9D
:4011C000B113000090B587B000AF0446084611461A462346FB710346BB800B467B801346BB7197F82830002B00F08B8097F82830012B00F28680FB79013B092B4AD801A2C6
:4012000052F823F02D12000095120000951200002D12000095120000951200004712000061120000951200007B120000BB790F2B04D9374B1B78DBB2FB752EE0354B1B78B9
:40124000DBB2FB7529E0BB790F2B04D9324B1B78DBB2FB7521E0314B1B78DBB2FB751CE0BB790F2B04D92E4B1B78DBB2FB7514E02C4B1B78DBB2FB750FE0BB790F2B04D97E
:40128000294B1B78DBB2FB7507E0284B1B78DBB2FB7502E00023FB7500BFBA8897F917305B0113443B617B883A6902FB03F3FB60FB68DB0BBB82BB790D2B12D8BA8ABB795C
:4012C000C3F10E0342FA03F3BB8297F82830013BBA790132D1B2164A9B0013440A469A7007E097F82830013B114A9B0013440F229A7097F82830013B0D49BA8A21F8232057
:4013000002E0002000F054FA00BF1C37BD4690BD180100491C010049190100491D0100491A0100491E0100491B0100491F010049B081FF1F80B584B000AF0346FB7100F0D3
:401340009EFB0346FB73174A164B1B78DBB243F00303DBB21370144A134B1B78DBB243F00303DBB21370114AFB791370032000F02BFA0C4A0B4B1B78DBB223F00303DBB2D1
:401380001370094A084B1B78DBB223F00303DBB21370FB7B184600F076FB00BF1037BD4680BD00BFF8460040F94600409258004080B400AF00BFBD4680BC704780B582B05B
:4013C00000AF0023FB7106E0FB791846FFF7DEFAFB790133FB71FB79012BF5D9034BFF221A7000BF0837BD4680BD00BFD180FF1F80B582B000AF0346FB71FFF7DFFFFB792F
:401400001846FFF7A3FA034AFB79137000BF0837BD4680BDD180FF1F80B584B000AF03460A46FB8013467B7100F0CEF80346FB7300F0A4F80346BB81FA88BB899A4200F049
:401440008880464B1B78DBB203F00103FB72FB7B002B20D1BB89002B02D0FB88002B1AD1BB89002B0BD13E4AFB8813803D4A3D4B1B78DBB223F04003DBB2137069E0394A99
:40148000384B1B78DBB243F04003DBB21370344AFB8813805DE0FB7A002B33D0324B00221A70324B01221A70314B00221A70314A304B1B78DBB203F07F03DBB21370294B05
:4014C0001B78DBB203F00803002B02D0FB88002B18D1294ABB891380234B07221A7000BF214B1B78DBB203F00103002BF8D11B4A1A4B1B78DBB223F00103DBB213701A4B23
:4015000000221A70154B1B78DBB203F00103002B13D0194AFB881380134A7B79002B01D0032300E00123137000BF0F4B1B78DBB203F00103002BF8D10BE0094AFB8813808F
:401540000649064B1B78DAB2FB7A1343DBB20B70FFE700BF1037BD4680BD00BFA24300408040004082400040014000401040004014400040084000400240004080B400AF35
:40158000034B1B889BB21846BD4680BC704700BF8040004080B483B000AF0346FB710949084B1B78DBB25AB297F9073023F007035BB213435BB2DBB20B7000BF0C37BD46DD
:4015C00080BC70478240004080B400AF044B1B78DBB203F00703DBB21846BD4680BC70478240004080B584B000AF03460A46FB8013467B7100F0CEF80346FB7300F0A4F85A
:401600000346BB81FA88BB899A4200F08880464B1B78DBB203F00103FB72FB7B002B20D1BB89002B02D0FB88002B1AD1BB89002B0BD13E4AFB8813803D4A3D4B1B78DBB2F2
:4016400023F04003DBB2137069E0394A384B1B78DBB243F04003DBB21370344AFB8813805DE0FB7A002B33D0324B00221A70324B01221A70314B00221A70314A304B1B7897
:40168000DBB203F07F03DBB21370294B1B78DBB203F00803002B02D0FB88002B18D1294ABB891380234B07221A7000BF214B1B78DBB203F00103002BF8D11B4A1A4B1B78F4
:4016C000DBB223F00103DBB213701A4B00221A70154B1B78DBB203F00103002B13D0194AFB881380134A7B79002B01D0032300E00123137000BF0F4B1B78DBB203F00103FD
:40170000002BF8D10BE0094AFB8813800649064B1B78DAB2FB7A1343DBB20B70FFE700BF1037BD4680BD00BFA1430040004100400241004001400040144000401040004017
:40174000084000400240004080B400AF034B1B889BB21846BD4680BC704700BF0041004080B483B000AF0346FB710949084B1B78DBB25AB297F9073023F007035BB21343C7
:401780005BB2DBB20B7000BF0C37BD4680BC70470241004080B400AF044B1B78DBB203F00703DBB21846BD4680BC70470241004080B483B000AF0346FB7101BE00BF0C375A
:4017C000BD4680BC704700BF80B582B000AF0346FB80FB88054A127802FB03F3184600F02FF900BF0837BD4680BD00BFDC80FF1F80B584B000AF03463960FB710F4B1B68DB
:40180000FB60FB791F2B02D90020FFF7D1FFFB7903F01F0310339B00FA6813441B68BB60FB7903F01F0310339B00FA6813443A681A60BB6818461037BD4680BD08ED00E0F7
:4018400080B582B000AF03460A46FB711346BB71BB79072B02D90020FFF7AAFFFB791F2B02D90020FFF7A4FFFB7903F01F0303F1604303F56443BA795201D2B21A7000BF64
:401880000837BD4680BD00BF80B500AF064B1B78002B04D100F00AF8034B01221A7000F025F800BF80BD00BFB481FF1F80B400AF094B72221A70094B20221A70084B06222A
:4018C0001A70084B47221A70074B00221A7000BFBD4680BC704700BF8A6500408B65004029650040396500408865004080B582B000AF00F0C4F80346FB71114A104B1B78AE
:40190000DBB243F02003DBB213700E4A0D4B1B78DBB243F01003DBB213700B4A0A4B1B78DBB243F01003DBB2137000F06DF8FB79184600F0A8F800BF0837BD4680BD00BFBA
:401940009A6500409B6500409865004080B483B000AF0023FB710C4B1B78BB71BB7903F02003002B09D0094B1B78FB71BB7903F01E03002B01D00023FB71FB7918460C3767
:40198000BD4680BC704700BF6B6500404A65004080B483B000AF0346FB7100BF074B1B78DBB203F00403002BF8D1054AFB79137000BF0C37BD4680BC704700BF686500407F
:4019C0004865004080B584B000AF78600023FB810C4B1B78002B10D009E0FB897A6813441B781846FFF7D4FFFB890133FB81FB897A6813441B78002BEFD100BF1037BD469E
:401A000080BD00BFB481FF1F80B400AF094A094B1B78DBB243F00203DBB21370064A064B1B78DBB243F00203DBB2137000BFBD4680BC7047A2430040B2430040000000004D
:401A4000142816D902B4012114381049097811F0C001890904B40E4A515C04BC00BF00BF00BF8841FDD500BF00BF02BC704700BF00BF70F10400FCD570470B050709EFF334
:401A8000108072B6704780F310887047004800407A1A000030B5214A21F00043934287B01BDD1F4A934205DD02460B4601F056FA07B030BD02AA00F093F800F00300012850
:401AC0001AD002280FD008B3DDE9020101230093DDE9042301F07CF8EAE70022002300F05BFB07B030BDDDE90423DDE9020100F053FB01F10041DBE70090DDE90423DDE93A
:401B0000020101F065F801F10041D1E7DDE90423DDE9020100F040FBCAE700BFFB21E93FFFFFEF7F2DE9F04F8BB004460D4600F06DFA284B064693F900A00F46BAF1FF3FBB
:401B400012D022462B462046294601F055FE834650B94FF000084FF000092046294642464B4601F021FE20B9304639460BB0BDE8F08F194A0123CDF820B0CDE90445CDE9B4
:401B8000024501920093BAF1000F15D042464B464046494601F0C0FCBAF1020FCDE906010CD102F08BF921230360089B63B9DDE906010BB0BDE8F08FCDE90689684601F07C
:401BC0004BF90028F1D1ECE702F078F9089B0360EDE700BFE480FF1FDC680000000000002DE9F04F944C21F00047A7428FB040F381801446914A0E46974226DC84A3D3E9F2
:401C00000023002940F3A08101F0A8F98C4B80469F42894600F083807FA3D3E9002301F09DF902460B464046C4E90023494601F095F979A3D3E9002301F090F90125C4E965
:401C4000020128460FB0BDE8F08F7E4A974240F383807D4A974258DC3D15A5F21645A7EB05518B46824601F0DDFD01F0C5FA8046894642464B4650465946CDE9088901F00A
:401C80006DF90022714B01F01DFB8B46824601F0C9FD01F0B1FA8046894642464B4650465946CDE90A8901F059F90022674B01F009FB00220023CDE90C0101F06BFD00282A
:401CC00000F06A81002340464946002201F062FD002814BF012302235D480221019000912A46214608A800F07BFB002EC0F24A81054606E0C2E9000100250024C2E9024581
:401D0000002528460FB0BDE8F08F02460B4601F025F90025C4E90201C4E90001F1E740A3D3E9002301F01AF93FA3D3E9002306460F4601F013F902460B463046C4E9002326
:401D4000394601F00BF938A3D3E9002301F006F90125C4E90201D4E700F0F0FF34A3D3E900238046894601F0ADFA0022394B01F0F7F801F057FD054601F03EFA24A3D3E930
:401D80000023CDE9040101F09DFA02460B464046494601F0E3F820A3D3E9002382468B46DDE9040101F08EFA1F2DCDE9020155DC294B6A1E53F822309F424FD002460B465C
:401DC0005046594601F0CAF802460B4681468846C4E900234A4643465046594601F0BEF8DDE9022301F0BAF802460B46002EC4E9022386DA4A4608F1004301F1004184E816
:401E00000C00E160A0606D427BE700BFAFF3008000004054FB21F93F3163621A61B4D03D0000601A61B4D03D7370032E8A19A33B83C8C96D305FE43FFB21E93F7BD902400B
:401E4000FB21F93FFB213941FFFFEF7F00007041646900000000E03FE4680000DDE902235046594601F07AF83F15C1F30A53FB1A102B81468846C4E90001ABDD58A3D3E969
:401E80000023DDE9040101F01DFA8046894602460B465046594601F061F8CDE9060102460B465046594601F059F842464B4601F055F84DA3D3E9002380468946DDE904012C
:401EC00001F000FA42464B4601F048F802460B46CDE90201DDE9060101F040F80B4602468846C1F30A517F1A312F8146C4E9002372DD3FA3D3E90023DDE9040101F0E2F9B8
:401F00008046894602460B46DDE9060101F026F802460B4682468B46DDE9060101F01EF842464B4601F01AF833A3D3E9002380468946DDE9040101F0C5F942464B4601F0A7
:401F40000DF8CDE9020139E701F00AF82E4B80469F42894622D02AA3D3E9002301F000F802460B464046C4E90023494600F0F6FF23A3D3E9002300F0F3FF4FF0FF35C4E910
:401F80000201BEE66268E36802F1004203F1004345426260E360B4E603239DE610A3D3E9002300F0DDFF10A3D3E9002306460F4600F0D6FF02460B463046C4E90023394676
:401FC00000F0CCFF08A3D3E9002300F0C9FF4FF0FF35C4E9020194E6DDE906ABFAE600BF0000601A61B4D03D7370032E8A19A33B0000002E8A19A33BC14920259A837B3931
:402000003163621A61B4D03DFB21F93F2DE9F0415F4E0C46B6460E407645054600F0988000290B46024674DD5FEA215E7FD0AEF2FF3EC3F313031EF0010F43F4801363D18D
:4020400000273E4603EBD2710B444FEA6E0E520016204FF4001174189C424FEAD2754FEA420202DC1B1B66180F44013805EB43034FEA5101EFD1844620244FF0004109E027
:4020800020D003EBD275013C4FEA51012B444FEA420220D09E4201EB0C05F1DA002D05EB010C09DBB0469542A3EB060300D9013B4646521B0844E4E7BCF1000FF2DB06F198
:4020C0000108F0E7954217D8002D05EB010C49DB98460023ECE7134310D140087B1003F17F5303F50013FA0703EB0E57394648BF40F00040BDE8F0813346C2E7411C35D059
:4021000000F001031844E8E75B0003EBD273520096E721F000460643ECD079BB8E46D30AAEF1150E5205002BF9D0DD0221D4002100E001465B00DC0201F10100F9D5C0F10E
:40214000200422FA04F42343C1EB0E0E82406EE702460B4601F0B6F82A46234600F000FFBDE8F081BCF1000FA9DAB1E701372046B4E720244FF0FF310020E2E702460B4687
:4021800000F0ECFE02460B4601F0C6F9B2E700BF0000F07F000000002DE9F04F21F00046B6F1795F85B00C4692469B4605466BDA01F038FB002800F0E7802A462346284650
:4021C000214601F07FF874A3D3E900238046894601F078F872A3D3E9002300F0C1FE42464B4601F06FF870A3D3E9002300F0B6FE42464B4601F066F86DA3D3E9002300F033
:40220000AFFE42464B4601F05DF86BA3D3E9002300F0A4FE42464B4601F054F868A3D3E9002300F09DFE42464B4601F04BF8CDE900010022644B4046494601F043F8DDE96C
:40224000002306460F464046494601F03BF85246804689465B462846214601F033F802460B464046494600F079FE02460B463046394600F073FE02460B460020534900F059
:402280006DFE05B0BDE8F08F02460B4601F01AF841A3D3E900238046894601F013F840A3D3E9002300F05CFE42464B4601F00AF83DA3D3E9002300F051FE42464B4601F0CA
:4022C00001F83BA3D3E9002300F04AFE42464B4600F0F8FF38A3D3E9002300F03FFE42464B4600F0EFFF36A3D3E9002300F038FE4B46424600F0E6FF354BCDE900019E422F
:4023000097DD344B00229E4238DCA6F5001300202E4916461F4600F021FECDE902010022294B4046494600F0CDFF32463B4600F015FEDDE9002306460F464046494600F0D4
:40234000C1FF5246804689465B462846214600F0B9FF02460B464046494600F0FFFD02460B463046394600F0F9FD02460B46DDE9020100F0F3FD05B0BDE8F08F164B0026A2
:40238000CDE90223154FCAE71049002005B0BDE8F08F00BFAFF30080D43888BEE9FAA8BDC4B1B4BD9EEE213EAD529C804F7E923E9015CB19A001FA3E7751C1166CC1563F14
:4023C0004C5555555555A53F0000E03F0000F03F3233D33F0000E93F0000E73F0000D23F2DE9F04F794CADF51D7D1F460B93D31E84FB0354DB17C3EBA403A69E744C23EA68
:40240000E37554F826406B1C26460994A3EB83037C1E0D95029402EBC3032D1B341904900A91089316D42C44013422AEA79F08E057F8250000F0E0FE0135A542E6E902014C
:4024400008D0002DF4DA013500200021A542E6E90201F6D1099B002B2FDB099B74AADDF8089002EBC30B0DF5E47A029B002BC0F295810B9B0026C3EB090824AB03EBC808C7
:40248000049B0027A3F1080524AB03EBC904F5E9022374E8020100F015FF02460B463046394600F05DFD444506460F46EFD1EAE90267DA4509F10109D7D1099B10A91D463C
:4024C00003F18043023B9B001A1D0A440B440F920E939CAB03EBC503002D53E928672BDD9CAB03EBC504A83C0DF13C0A0DF5E47B0022384B3046394600F0E4FE01F092F9CB
:4025000000F07AFE0022344B8046894600F0DAFE02460B463046394600F020FD01F082F974E802234AF8040F4946404600F018FD5C4506460F46DBD1089C3046394622464F
:4025400000F08EFC00224FF07F5306460F4600F0B9FE00F0F9FB0022204B00F0B3FE02460B463046394600F0F9FC0F46064601F059F9814600F040FE02460B46304639467A
:4025800000F0ECFC002C06460F4640F3EE80681E10AB53F82030C4F1180243FA02F101FA02F29B1AC4F1170810AA42F82030894443FA08F8B8F1000F3DDD002D09F1010931
:4025C00040F3D382002214460FA911E0ABAAAA2A6C6A00000000703E0000704100002040C3F180700BB108600124013295420DDD51F8043F002CF3D0C3F1FF13013203F523
:402600007F4395420B604FF00104F1DC089B002B0DDD012B00F0B180022B08D16A1E10AB53F8223010A9C3F3150341F82230B8F1020F00F08180002200233046394601F0B2
:40264000A9F8002800F05B82099B05F1FF3B5B4510DC05F1804310AA013B0F9802EB8303002253F80419834242EA0102F9D1002A40F0B180099B10AA013B52F82330002B66
:4026800040F071820E9A012352F8041901330029FAD0E9186A1C8A420C914BDC0D990B985118DB0001F180410593A79B05440139E80003EB810A24ABD20003EB000B74ABCF
:4026C00013440193A2F10803069007934FF000095AF8040F00F090FD029BEBE80201002B4FF000064FF000071BDB069B03EB0904079B09EB030824AB1C449844049BA3F15D
:402700000805F5E9022374E8020100F0DBFD02460B463046394600F023FC444506460F46EFD1019B09F10809E3E802670193059B9945CDD10C9DCCE632463B460020B049E3
:4027400000F00CFC06460F46002C3FF474AF089A0020AB4900F084FB02460B463046394600F0FCFB06460F4665E710D16B1E10AA52F823304FEAE3581CE76A1E10AB53F8F1
:40278000223010A9C3F3160341F822304FE700229C4B01F01DF858B980464CE700260027EAE90267DA4509F101097FF45EAE84E6002D09F10109C8BF4FF002083FF702AFE8
:4027C00032463B4600208E4900F0C8FB4FF0020806460F462FE7089A10AB53F82B30183ACDF81490CDF8048008926BB90BF18043013B10A901EB830353F804190BF1FF3BAD
:40280000183A0029F8D00892089A00207C4900F027FBBBF1000F04460D46C0F2B6814FEACB030DF5E87810AA02EB8B0608EB03090493043609F1080756F8040D00F0DCFC40
:4028400022462B4600F03EFD002267E902016E4B2046294600F036FDB84504460D46EBD14B46CDF818B09B460DF5987ACDF808A0DDF824A04FF00009BAF1000FC0F2268164
:402880005DA3D3E90023DFF884815D4600260027002403E0A14510DBF8E90223F5E8020100F010FD02460B463046394600F058FB0134A24506460F46ECDA029BABF1080B12
:4028C00003EBC903C3E9006772AB5B4509F10109D2D1A69BDDF818B0DDF808A0032B00F28380DFE813F0D100950095000400BBF1000F40F35481049BCDF808B0534498460C
:40290000D3E90067D34658E9029A32463B464846514600F025FB04460D4602460B464846514600F01BFB32463B4600F019FBC8E9000168E90245C34526462F46E3D1DA46EB
:40294000DDF808B0BBF1010F40F32981049B0DF59C7B53449846D3E90067994659E902343046CDE902341A463946234600F0F8FA04460D4602460B46DDE9020100F0EEFA27
:4029800032463B4600F0ECFAC9E9000169E90245CB4526462F46E1D100231D4608F1080850AC184678E90223294600F0D9FA444503460D46F5D1019A002A00F0D880DAF8EE
:4029C0000440DAF80C200A9FDAF80010DAF8080005F1004504F1004402F100427D613B617C60FA603960B860059B03F007000DF51D7DBDE8F08F00BF00000040FB21F93F79
:402A00000000F03F0000E03F0000703E806A000000242146049D0835554475E90223204600F09EFA55450446F7D1019B002B50D00A9F01F100450B46DAE9000187E8300016
:402A4000224600F08BFABBF1000F03460D460DDD01241846FAE90223294600F081FA0134A34503460D46F4DA019A0AB105F10045184629460A9BC3E90201059B03F0070000
:402A80000DF51D7DBDE8F08F00231C46049A0832924418467AE90223214600F061FA0BF1FF3BBBF1FF3F03460C46F2D1019A0AB104F10044184621460A9BC3E90001059BC7
:402AC00003F007000DF51D7DBDE8F08F00260027F3E626460F4622460A9C0B46DAE90001C4E9006700F03AFABBF1000F03460D46AEDC184629460A9BC3E90201BDE7089B91
:402B000030465A423946CDF81490CDF8048000F0A7F900222C4B06460F4600F059FE002840D00022294B3046394600F0CBFB00F079FE044600F060FB0022234B00F0C2FB8F
:402B40000B4602463946304600F008FA00F06AFE089B05F1010B1833089310AB43F8250043F82B4050E6012393E500244EE51846DAE90067DAE9022329460A9DC5E900676D
:402B8000C5E90401C5E902232EE7A69B032B3FF62BAFDFE803F0151010020DF5987A00231D4608E73046394600F03CFE10ABAB4643F8250028E6002421460DF5987A34E78F
:402BC00000231C4672E700BF000070410000703E2DE9F04F21F00046B6F1795F85B00C4690469946054604DA00F01CFE002800F085802A4623462846214600F063FB0646DA
:402C00000F4602460B462846214600F05BFB3EA3D3E9002382468B463046394600F052FB3BA3D3E9002300F099F932463B4600F049FB39A3D3E9002300F092F932463B4665
:402C400000F040FB36A3D3E9002300F087F932463B4600F037FB34A3D3E9002300F080F90E9BCDE900019BB30022334B4046494600F028FBDDE90023CDE90201504659467A
:402C800000F020FB02460B46DDE9020100F066F932463B4600F016FB42464B4600F05EF923A3D3E9002306460F465046594600F009FB02460B463046394600F051F902467F
:402CC0000B462846214600F049F905B0BDE8F08F02460B463046394600F0F4FA14A3D3E9002300F03BF952465B4600F0EBFA2A46234600F035F905B0BDE8F08F28462146CA
:402D000005B0BDE8F08F00BF7CD5CF5A3AD9E53DEB9C2B8AE6E55A3E7DFEB157E31DC73ED561C119A0012A3FA6F810111111813F495555555555C53F0000E03F21F0004103
:402D4000704700BF00000000C1F30A522DE9F843A2F2FF36132E0B4604460D46884607461CDC002E3FDB3A4A864642FA06F901EA0902024317D034A3D3E9002300F0F0F8EE
:402D80000022002300F02EFD20B1002D40DB28EA0905002738462946BDE8F883332E06DDB6F5806F2FD020461946BDE8F883A2F213424FF0FF3929FA02F910EA090FF2D032
:402DC00021A3D3E9002300F0CBF80022002300F009FD0028DED0002D20DB454627EA090738462946D8E718A3D3E9002300F0B8F80022002300F0F6FC0028CBD0002D18DBA8
:402E000000273D46C6E702460B4600F0A9F8CCE74FF4801343FA06F6B044B8E7142E10D00123C6F1340603FA06F6371928BF9844D3E725F00042074B224318BF1D46002750
:402E4000A8E705F10108C8E79C7500883CE4377EFFFF0F000000F0BF0020704700000000F8B5C1F30A5604460D460B46174606BB21F00043034325D000222F4B00F022FA10
:402E80002E4A044697420D460B462ADBC1F30A56363E40F2FE723E44964228DC002E12DD23F0FF4323F4E00343EA065520462946F8BD40F2FF729642EBD102460B4600F008
:402EC0004FF8F8BDF8BD16F1350F1DDA4CF250339F420CDC14A1D1E9000122462B4600F031F811A3D3E9002300F0ECF9F8BD22460FA1D1E900012B4600F024F80CA3D3E91B
:402F0000002300F0DFF9F8BD23F0FF4323F4E003363643EA0655204629460022084B00F0D1F9F8BDAFF3008059F3F8C21F6EA5019C7500883CE4377E00005043B03CFFFFAF
:402F40000000903C03F0004321F0004242EA0301704700BF81F0004102E000BF83F0004330B54FEA41044FEA430594EA050F08BF90EA020F1FBF54EA000C55EA020C7FEAA7
:402F8000645C7FEA655C00F0E2804FEA5454D4EB5555B8BF6D420CDD2C4480EA020281EA030382EA000083EA010180EA020281EA0303362D88BF30BD11F0004F4FEA013121
:402FC0004FF4801C4CEA113102D0404261EB410113F0004F4FEA03334CEA133302D0524263EB430394EA050F00F0A780A4F10104D5F1200E0DDB02FA0EFC22FA05F2801891
:4030000041F1000103FA0EF2801843FA05F359410EE0A5F120050EF1200E012A03FA0EFC28BF4CF0020C43FA05F3C01851EBE37101F0004507D54FF0000EDCF1000C7EEB82
:4030400000006EEB0101B1F5801F1BD3B1F5001F0CD349085FEA30004FEA3C0C04F101044FEA445212F5800F80F09A80BCF1004F08BF5FEA500C50F1000041EB045141EA95
:40308000050130BD5FEA4C0C404141EB010111F4801FA4F10104E9D191F0000F04BF01460020B1FA81F308BF2033A3F10B03B3F120020CDA0C3208DD02F1140CC2F10C029D
:4030C00001FA0CF021FA02F10CE002F11402D8BFC2F1200C01FA02F120FA0CFCDCBF41EA0C019040E41AA2BF01EB0451294330BD6FEA04041F3C1CDA0C340EDC04F11404CB
:40310000C4F1200220FA04F001FA02F340EA030021FA04F345EA030130BDC4F10C04C4F1200220FA02F001FA04F340EA0300294630BD21FA04F0294630BD94F0000F83F4C3
:40314000801306BF81F480110134013D4EE77FEA645C18BF7FEA655C29D094EA050F08BF90EA020F05D054EA000C04BF1946104630BD91EA030F1EBF0021002030BD5FEADD
:40318000545C05D14000494128BF41F0004130BD14F580043CBF01F5801130BD01F0004545F0FE4141F470014FF0000030BD7FEA645C1ABF194610467FEA655C1CBF0B46F4
:4031C000024650EA013406BF52EA033591EA030F41F4002130BD00BF90F0000F04BF0021704730B54FF4806404F132044FF000054FF0000150E700BF90F0000F04BF002102
:40320000704730B54FF4806404F1320410F0004548BF40424FF000013EE700BF42004FEAE2014FEA31014FEA02701FBF12F07F4393F07F4F81F06051704792F0000F14BF0A
:4032400093F07F4F704730B54FF4607401F0004521F0004120E700BF50EA010208BF704730B54FF000050AE050EA010208BF704730B511F0004502D5404261EB41014FF41E
:40328000806404F132045FEA915C3FF4DCAE4FF003025FEADC0C18BF03325FEADC0C18BF033202EBDC02C2F1200300FA03FC20FA02F001FA03FE40EA0E0021FA02F114440E
:4032C000C1E600BF70B54FF0FF0C4CF4E06C1CEA11541DBF1CEA135594EA0C0F95EA0C0F00F0DEF82C4481EA030621EA4C5123EA4C5350EA013518BF52EA033541F4801106
:4033000043F4801338D0A0FB02CE4FF00005E1FB02E506F00042E0FB03E54FF00006E1FB03569CF0000F18BF4EF0010EA4F1FF04B6F5007F64F5407404D25FEA4E0E6D411D
:4033400046EB060642EAC62141EA55514FEAC52040EA5E504FEACE2EB4F1FD0C88BFBCF5E06F1ED8BEF1004F08BF5FEA500E50F1000041EB045170BD06F0004646EA01014D
:4033800040EA020081EA0301B4EB5C04C2BFD4EB0C0541EA045170BD41F480114FF0000E013C00F3AB8014F1360FDEBF002001F0004170BDC4F10004203C35DA0C341BDC46
:4033C00004F11404C4F1200500FA05F320FA04F001FA05F240EA020001F0004221F0004110EBD37021FA04F642EB06015EEA430E08BF20EAD37070BDC4F10C04C4F1200543
:4034000000FA04F320FA05F001FA04F240EA020001F0004110EBD37041F100015EEA430E08BF20EAD37070BDC4F1200500FA05F24EEA020E20FA04F301FA05F243EA0203AA
:4034400021FA04F001F0004121FA04F220EA020000EBD3705EEA430E08BF20EAD37070BD94F0000F0FD101F00046400041EB010111F4801F08BF013CF7D041EA060195F0A8
:40348000000F18BF704703F00046520043EB030313F4801F08BF013DF7D043EA0603704794EA0C0F0CEA135518BF95EA0C0F0CD050EA410618BF52EA4306D1D181EA03011F
:4034C00001F000414FF0000070BD50EA410606BF1046194652EA430619D094EA0C0F02D150EA013613D195EA0C0F05D152EA03361CBF104619460AD181EA030101F0004113
:4035000041F0FE4141F470014FF0000070BD41F0FE4141F4780170BD70B54FF0FF0C4CF4E06C1CEA11541DBF1CEA135594EA0C0F95EA0C0F00F0A7F8A4EB050481EA030E38
:4035400052EA03354FEA013100F088804FEA03334FF0805545EA131343EA12634FEA022245EA111545EA10654FEA00260EF000419D4208BF964244F1FD0404F5407402D2D1
:403580005B084FEA3202B61A65EB03055B084FEA32024FF480104FF4002CB6EB020E75EB030E22BFB61A754640EA0C005B084FEA3202B6EB020E75EB030E22BFB61A7546DF
:4035C00040EA5C005B084FEA3202B6EB020E75EB030E22BFB61A754640EA9C005B084FEA3202B6EB020E75EB030E22BFB61A754640EADC0055EA060E18D04FEA051545EA00
:4036000016754FEA06164FEAC30343EA52734FEAC2025FEA1C1CC0D111F4801F0BD141EA00014FF000004FF0004CB6E711F4801F04BF01430020B4F1FD0C88BFBCF5E06FD7
:403640003FF6AFAEB5EB030C04BFB6EB020C5FEA500C50F1000041EB045170BD0EF0004E4EEA113114EB5C04C2BFD4EB0C0541EA045170BD41F480114FF0000E013C90E61A
:4036800045EA060E8DE60CEA135594EA0C0F08BF95EA0C0F3FF43BAF94EA0C0F0AD150EA01347FF434AF95EA0C0F7FF425AF104619462CE795EA0C0F06D152EA03353FF4E5
:4036C000FDAE1046194622E750EA410618BF52EA43067FF4C5AE50EA41047FF40DAF52EA43057FF4EBAE12E74FF0FF3C06E000BF4FF0010C02E000BF4FF0010C4DF804CDF9
:403700004FEA410C7FEA6C5C4FEA430C18BF7FEA6C5C1BD001B050EA410C0CBF52EA430C91EA030F02BF90EA020F0020704710F1000F91EA030F58BF994208BF90422CBF06
:40374000D8176FEAE37040F0010070474FEA410C7FEA6C5C02D150EA013C07D14FEA430C7FEA6C5CD6D152EA033CD3D05DF8040B704700BF8446104662468C4619466346F3
:4037800000E000BF01B5FFF7B7FF002848BF10F1000F01BD4DF808EDFFF7F4FF0CBF012000205DF808FB00BF4DF808EDFFF7EAFF34BF012000205DF808FB00BF4DF808ED27
:4037C000FFF7E0FF94BF012000205DF808FB00BF4DF808EDFFF7CEFF94BF012000205DF808FB00BF4DF808EDFFF7C4FF34BF012000205DF808FB00BF4FEA410C7FEA6C5CAC
:4038000002D150EA013C0AD14FEA430C7FEA6C5C02D152EA033C02D14FF0000070474FF0010070474FEA410212F5001215D211D56FF47873B3EB625212D94FEAC12343F05F
:40384000004343EA505311F0004F23FA02F018BF404270474FF00000704750EA013005D111F0004008BF6FF0004070474FF00000704700BF4FEA4102B2F1E04324BFB3F5AF
:40388000001CDCF1FE5C0DD901F0004C4FEAC0024CEA5070B2F1004F40EB830008BF20F00100704711F0804F21D113F13872BCBF01F00040704741F480114FEA5252C2F159
:4038C0001802C2F1200C10FA0CF320FA02F018BF40F001004FEAC1234FEAD32303FA0CFC40EA0C0023FA02F34FEA4303CCE77FEA625307D150EA01331EBF4FF0FE4040F4F5
:403900004000704701F0004040F0FE4040F40000704700BF80F0004002E000BF81F0004142001FBF5FEA410392EA030F7FEA226C7FEA236C6AD04FEA1262D2EB1363C1BF80
:40394000D218414048404140B8BF5B42192B88BF704710F0004F40F4000020F07F4018BF404211F0004F41F4000121F07F4118BF494292EA030F3FD0A2F1010241FA03FCAC
:4039800010EB0C00C3F1200301FA03F100F0004302D5494260EB4000B0F5000F13D3B0F1807F06D340084FEA310102F10102FE2A51D2B1F1004F40EBC25008BF20F001000D
:4039C00040EA03007047490040EB000010F4000FA2F10102EDD1B0FA80FCACF1080CB2EB0C0200FA0CF0AABF00EBC25052421843BCBFD0401843704792F0000F81F4000197
:403A000006BF80F400000132013BB5E74FEA41037FEA226C18BF7FEA236C21D092EA030F04D092F0000F08BF0846704790EA010F1CBF0020704712F07F4F04D1400028BF47
:403A400040F00040704712F100723CBF00F50000704700F0004343F0FE4040F4000070477FEA226216BF08467FEA23630146420206BF5FEA412390EA010F40F48000704783
:403A80004FF0000304E000BF10F0004348BF40425FEA000C08BF704743F0964301464FF000001CE050EA010208BF70474FF000030AE000BF50EA010208BF704711F000434F
:403AC00002D5404261EB41015FEA010C02BF84460146002043F0B64308BFA3F18053A3F50003BCFA8CF2083AA3EBC25310DB01FA02FC634400FA02FCC2F12002BCF1004F35
:403B000020FA02F243EB020008BF20F00100704702F1200201FA02FCC2F1200250EA4C0021FA02F243EB020008BF20EADC7070474FF0FF0C1CEAD0521EBF1CEAD15392EA47
:403B40000C0F93EA0C0F6FD01A4480EA010C400218BF5FEA41211ED04FF0006343EA501043EA5111A0FB01310CF00040B1F5000F3EBF490041EAD3715B0040EA010062F1C2
:403B80007F02FD2A1DD8B3F1004F40EBC25008BF20F00100704790F0000F0CF0004C08BF49024CEA502040EA51207F3AC2BFD2F1FF0340EAC250704740F400004FF0000317
:403BC000013A5DDC12F1190FDCBF00F000407047C2F10002410021FA02F1C2F1200200FA02FC5FEA310040F1000053EA4C0308BF20EADC70704792F0000F00F0004C02BF3A
:403C0000400010F4000F013AF9D040EA0C0093F0000F01F0004C02BF490011F4000F013BF9D041EA0C018FE70CEAD15392EA0C0F18BF93EA0C0F0AD030F0004C18BF31F0F9
:403C4000004CD8D180EA010000F00040704790F0000F17BF90F0004F084691F0000F91F0004F14D092EA0C0F01D142020FD193EA0C0F03D14B0218BF084608D180EA010088
:403C800000F0004040F0FE4040F40000704740F0FE4040F4400070474FF0FF0C1CEAD0521EBF1CEAD15392EA0C0F93EA0C0F69D0A2EB030280EA010C49024FEA402037D00D
:403CC0004FF0805343EA111143EA10130CF000408B4238BF5B0042F17D024FF4000C8B4224BF5B1A40EA0C00B3EB510F24BFA3EB510340EA5C00B3EB910F24BFA3EB9103D0
:403D000040EA9C00B3EBD10F24BFA3EBD10340EADC001B0118BF5FEA1C1CE0D1FD2A3FF650AF8B4240EBC25008BF20F0010070470CF0004C4CEA50207F32C2BFD2F1FF03F6
:403D400040EAC250704740F400004FF00003013A37E792F0000F00F0004C02BF400010F4000F013AF9D040EA0C0093F0000F01F0004C02BF490011F4000F013BF9D041EA49
:403D80000C0195E70CEAD15392EA0C0F08D142027FF47DAF93EA0C0F7FF470AF084676E793EA0C0F04D14B023FF44CAF08466EE730F0004C18BF31F0004CCAD130F0004200
:403DC0007FF45CAF31F000437FF43CAF5FE700BF4FF0FF3C06E000BF4FF0010C02E000BF4FF0010C4DF804CD4FEA40024FEA41037FEA226C18BF7FEA236C11D001B052EA84
:403E0000530C18BF90EA010F58BFB2EB030088BFC81738BF6FEAE17018BF40F0010070477FEA226C02D15FEA402C05D17FEA236CE4D15FEA412CE1D05DF8040B704700BF42
:403E4000844608466146FFE70FB5FFF7C9FF002848BF10F1000F0FBD4DF808EDFFF7F4FF0CBF012000205DF808FB00BF4DF808EDFFF7EAFF34BF012000205DF808FB00BF66
:403E80004DF808EDFFF7E0FF94BF012000205DF808FB00BF4DF808EDFFF7D2FF94BF012000205DF808FB00BF4DF808EDFFF7C8FF34BF012000205DF808FB00BF014B18688E
:403EC000704700BF4881FF1F0E4B70B51E460E4C0025E41AA410A54204D056F8253098470135F8E702F0D2FE084B094C1E46E41AA4100025A54204D056F8253098470135E8
:403F0000F8E770BD986C0000986C0000986C0000A06C000010B5431E0A44914204D011F8014B03F8014FF8E710BD03460244934202D003F8011BFAE770472DE9F04788B08C
:403F4000149F002B1E461299B8BF03F1004327F02007B6BF1E4600232D23462F1446109DDDF84CA00B7003D0452F03D1013501E0032300E0022307AA049206AA03928DE806
:403F800028042246334600F027FE472F804602D1119BDB0728D5462F08EB050911D198F80030302B0AD10022002320463146FFF7F1FB18B9C5F10105CAF80050DAF8003052
:403FC00099440022002320463146FFF7E3FB08B9302202E0CDF81C9006E0079B994503D9591C07911A70F8E74046079B159AC8EB0303136008B0BDE8F087034673B500295F
:40400000B8BF494203F8022BB4BF2D222B22092942701ADD0DF1070216460A2591FBF5F405FB1411092C01F1300102F8011D2146F4DC3031541E02F8011CB4421A460AD27D
:4040400014F8012B03F8012BF7E71A463024214402F8024B5970101A02B070BD2DE9F04F91B00C46DDF8688016461F46054601F0C5FC03681846099300F056FC00230E9303
:40408000D8F800300A90073323F0070303F1080294F81890D4F800B0C8F80020D3E90023C4E91223D4F84CA0D4F848802AF000430B934FF0FF32A74B40460B99FFF79CFB60
:4040C000A0B94FF0FF32A34B40460B99FFF776FB60B90022002340465146FFF765FB10B12D2384F843309C4B9C4A0AE04246534640465146FFF780FB002800F09281984B33
:40410000984AB9F1470F8CBF90469846032323612BF0040323604FF0000A3DE0B9F1670F00F08A81B9F1470F00F0868123600193636800210DF1330205900292009342465D
:4041400053460691CDF81090CDF80CE02846FFF7F4FE09F0DF03472B804600F08481B9F1650F0D9900F28D8101394A4604F150000D91FFF742FF0E9A82468318012A236139
:4041800000F37C812268D10700F178819DF8333013B12D2384F84330009733460FAA2146284600F09FF9013002D14FF0FF3096E123685A0501D4236965E0B9F1650F40F2D9
:4041C000D580D4E9120100220023FFF7E3FA78B30123654A31462846B8470130E5D00E9B0D9A9A420BDB2368D80708D423689B0740F111814FF0000804F1190906E10A9B88
:40420000099A31462846B8470130CED04FF0000804F11A090E9B013B9845E7DA01234A4631462846B8470130BFD008F10108F1E70D9B002B29DC01234B4A31462846B8479F
:404240000130B2D00D9B23B90E9B13B92368D907CCD50A9B099A31462846B8470130A4D04FF0000904F11A0A0D9B5B42994509DA0123524631462846B847013095D009F11E
:404280000109F1E70E9B4246A7E00E9AA36D9A42A8BF1A46002A914606DC4FF0000A29EAE97904F11A0B11E01346314642462846B8470130F1D178E701235A46314628469D
:4042C000B84701303FF471AF0AF1010AA36DC9EB03029245F0DB08EB03090D9A0E9B9A420FDB2368DA070CD40E9B0D9A9844C9EB08089B1A9845A8BF9846B8F1000F08DC06
:404300000FE00A9B099A31462846B8470130EBD14BE743464A4631462846B84701303FF444AF4FF0000928EAE87804F11A0A09E00123524631462846B84701303FF435AF4B
:4043400009F101090D9A0E9B9B1AC8EB03039945EEDB4BE7FFFFEF7FC86A0000CC6A0000D06A0000D46A0000D86A00000E9A012A01DCDB0738D50123424631462846B847E5
:4043800001303FF412AF0A9B099A31462846B84701303FF40AAFD4E9120100220023FFF7F9F920B14FF0000804F11A090EE00E9B08F10102013B19E001234A463146284601
:4043C000B84701303FF4F1AE08F101080E9B013B9845F1DB534604F1500231462846B84701307FF403AFE0E64246012331462846B8470130EED1D8E601234A463146284674
:40440000B84701303FF4D1AE08F10108E3680F9A9B1A9845F0DBE0680F9B9842B8BF18465DE062680EA8531C0DF1340E4BF480637FF474AE062201E012B90122626075E66F
:40444000002106910DF133018DE80C00236005904246CDF81090CDF80CE0029153462846FFF76BFD80460D9BD81C02DB626893421DDDA9F102095FFA89F970E601332361BD
:4044800084E6B9F1660F14D10029636807DD216113B92268D2071DD501330B4419E013B92268D00701D5023313E0012311E04FF067090D9B0E9A934205DB22682361D107BD
:4044C00008D5013305E0002BD4BFC3F102030123134423610D9B4FF0000AA36556E611B0BDE8F08F2DE9F04791461F460A698B6806469342B8BF1346C9F8003091F8432079
:404500000C46DDF8208012B10133C9F800302368990642BFD9F800300233C9F80030256815F0060510D104F1190A07E00123524639463046C04701301AD00135E368D9F8D8
:4045400000209B1A9D42F1DB94F843302268003318BF012392060FD5E118302081F843005A1C94F845102244023382F8431003E04FF0FF30BDE8F08704F143023946304628
:40458000C0470130F4D02268D9F80050E36802F00602042A08BF5D1B2269A3680CBF25EAE57500259342C4BF9B1AED184FF000091A344D4509D00123224639463046C04718
:4045C0000130D5D009F10109F3E70020BDE8F0872DE9F04317460A7E85B06E2A984606460C460C9B01F1430E00F0AE8011D8632A22D009D8002A00F0BB80582A40F0CA80B2
:4046000081F84520834955E0642A1ED0692A1CD0C0E0732A00F0B08009D86F2A2ED0702A40F0B8800A6842F020020A603EE0752A24D0782A3AD0ADE01A6801F14205111DC6
:404640001960136884F84230A8E021681A6811F0800F02D0111D196008E011F0400F02F10401196002D0B2F9003000E01368002B3CDA2D225B4284F8432037E021681A68DD
:4046800011F0800F02D0111D196007E011F0400F02F10401196001D0138800E01368227E5C496F2A14BF0A2208221BE078225A4984F845202268186812F0800F00F10405CD
:4046C0001D6003D1550601D5038800E00368D00744BF42F0200222601BB9226822F0200222601022002084F8430001E049490A226568002DA56008DB206820F004002060F0
:404700002BB9002D7DD175460CE0002B79D07546B3FBF2F002FB1033CB5C05F8013D03460028F5D1082A0BD12368DA0708D5236962689A42DEBF302305F8013C05F1FF35FE
:40474000C5EB0E0323612EE008681A6810F0800F496903D0101D1860136808E010F0400F02F104001860136801D0198000E0196000232361754616E01A68111D19601568DE
:4047800000216268284601F0A5F908B1401B6060636804E004F1420584F8422001232361002384F84330CDF800803B4603AA21463046FFF797FE013002D14FF0FF3026E067
:4047C00023692A4639463046C0470130F5D023689B0710D5002504F1190907E001234A4639463046C0470130E7D00135E368039A9B1A9D42F2DBE068039B9842B8BF1846EA
:4048000005E00B7804F1420584F842308AE705B0BDE8F083DA6A0000EB6A000070B50E46054618B183690BB901F05EF8AB69AC6813B9284601F058F8224B9C4201D16C68F7
:4048400008E0214B9C4201D1AC6803E01F4B9C4208BFEC68A3891B0701D523693BB92146284600F0BDF810B14FF0FF3070BD013EA36816F8011F013BA36091B1002B04DA5E
:40488000A269934206DB0A2904D023685A1C22601970EDE72246284600F04EF80130E7D1E2E7002B08DA22460A21284600F044F80130D9D00A2070BD23680A205A1C22607A
:4048C000187070BD0C6B00002C6B00004C6B0000024B01461868FFF7A1BF00BF4881FF1F0EB400B54FF402719CB0ADF814106FF00041049107914FF6FF711DAB029006907A
:40490000084853F8042BADF81610006802A9019301F0D6FC029B00221A701CB05DF804EB03B070474881FF1F034613F8012B002AFBD1181A01387047F8B50F46144606468E
:4049400018B183690BB900F0CFFF224B9C4201D1746808E0204B9C4201D1B46803E01F4B9C4208BFF468A369A360A3891A0709D523693BB123682069FDB2181A636998424D
:404980000FDB08E02146304600F02AF80028F1D04FF0FF30F8BD2146304600F03BFF0028F6D1A368013BA36023685A1C22601F706269431C934204D0A389DB0707D50A2DE4
:4049C00005D12146304600F025FF0028E0D12846F8BD00BF0C6B00002C6B00004C6B0000324B70B51D6806460C4625B1AB6913B9284600F079FF2E4B9C4201D16C6808E03A
:404A00002C4B9C4201D1AC6803E02B4B9C4208BFEC68B4F90C309AB215071DD4D00602D4092232603AE0510712D5616B41B104F14403994202D0304601F03EFB00236363B5
:404A4000A38923F02403A3810023636023692360A38943F00803A38123694BB9A38903F42073B3F5007F03D02146304600F0EEFFA28912F0010305D00023A36063695B429A
:404A8000A36103E0920758BF6369A36023695BB9B4F90C3003F0800080B230B143F04003A3814FF0FF3070BD002070BD4881FF1F0C6B00002C6B00004C6B00002DE9F74FF7
:404AC00003690C6980469C427FDC013C01F114074FEA840E00F1140606EB0E0357F82450019356F824300135B3FBF5F507EB0E09C5B34FF0000A3846B446D34650F8043B0B
:404B00009AB205FB02A21B0C4FEA124A05FB03A392B2C2EB0B0BBCF800204FEA134A5A441FFA83FBDCF800308145CBEB134303EB224392B242EA03424FEA234B4CF8042B85
:404B4000DCD256F80E306BB9019B043B9E421A4602D3C8F8104005E01268043B002AF8D1013CF3E7404601F0D0F900282BDB304601354FF0000E57F8042B036891B2C1EBF0
:404B80000E0E120C99B27144C2EB134303EB214389B24FEA234EB94541EA034340F8043BE9D256F8242006EB840362B9043B9E421A4602D3C8F8104005E01268043B002A8F
:404BC000F8D1013CF3E7284600E0002003B0BDE8F08F0000000000002DE9F04F456A95B08246219CCDE9022345B9102000F06AFFCAF82400456085600560C560DAF8243040
:404C0000196859B15A68012393404A608B60504600F0A3FFDAF8243000221A60039BA04A002BBDBF01232360039B0023BCBF23F000430393DDF80C80A8BF236028F000430D
:404C40001B0D1B0593421DD142F20F73209A1360029B43B9934A944BC8F31300002814BF1846104600E09048229B002B00F04685C37813B100F1080300E0C31C229A136030
:404C800000F03CBDDDE902450022002320462946FEF780FD074658B1209A01231360229B002B00F01E8581481860013800F026BD12AB019313AB009322462B46504601F001
:404CC0009FF9C8F30A56049056B1C5F3130343F07F51204641F44011A6F2FF3611971DE0139B129E1E4406F23243202B0ADD029A06F21240C3F1400322FA00F008FA03F3F7
:404D0000184304E0C3F12000029B03FA00F0FEF763FA0123A1F1F871013E11930022644BFEF71CF958A3D3E90023FEF7CBFA58A3D3E90023FEF714F9044630460D46FEF72F
:404D40005BFA55A3D3E90023FEF7BCFA02460B4620462946FEF704F904460D46FEF762FD00228346002320462946FEF71DFD58B15846FEF741FA02460B4620462946FEF7DF
:404D800009FD08B90BF1FF3BBBF1160F0DD8DDE90223484901EBCB01D1E90001FEF722FD30B10BF1FF3B002300E00123109300E01090129B9E1B731E079343BFC3F100088D
:404DC000002307934FF00008BBF1000F06DB079BCDF82CB05B440793002705E00023CBEB0808CBF100070B931E9B092B28D8052BC4BF043B1E931E9BC8BF0025A3F10203B3
:404E0000D8BF0125032B20D8DFE803F0060E0204012302E0012308E000230A931F9B002B1DDD9946059321E000230A931F9B0BEB030909F10103012B0593B8BF012315E0C4
:404E4000012500231E930A9501E001230A934FF0FF390022CDF8149012231F9206E04FF001094B46CDF81490CDF87C90DAF8244000226260042101F114029A421CD8626834
:404E8000490001326260F6E761436F63A787D23FB3C8608B288AC63FFB799F501344D33F0000F07FFC6A0000056B0000D96A00000000F83F786B00006168504600F018FE32
:404EC000DAF8243020601B680693059B0E2B00F25B81002D00F05881DDE90234BBF1000FCDE90E3430DD9F4A0BF00F034FEA2B1502EBC303E80618CBCDE908340CD5DDE90B
:404F00000E01994B05F00F05D3E90823FEF704FB0324CDE9020100E00224934E6DB1E90708D5DDE90801D6E90023FEF7CBF9CDE9080101346D100836F0E7DDE90823DDE941
:404F40000201FEF7E9FA20E0CBF1000505B3DDE90E01844B05F00F0203EBC203D3E90023FEF7B0F9CDE902017F4E2D110023022455B1EA0705D5D6E90023FEF7A3F901347D
:404F800001236D100836F3E71BB1CDE9020100E00224109BE3B1DDE902560022734B28463146FEF701FC98B1059B8BB1B9F1000F40F3E6800BF1FF330893314600226C4B09
:404FC0002846FEF77FF90134CDE902014E4602E0059ECDF820B02046FEF70EF9DDE90223FEF770F9634B0022FDF7BAFFA1F1507304460C931D46D6B9DDE9020100225E4B4E
:40500000FDF7ACFF22460C9BCDE90201FEF7EAFB002840F03F820C99224601F10043DDE90201FEF7C1FB002840F02B82A8E00A9A4C4B711E002A49D003EBC103D3E900232F
:4050400000204E49FEF768FA22462B46FDF786FFCDE90C01069CDDE90201FEF7E3FB0546FEF7CAF802460B46DDE90201FDF776FFDDE90C23303504F8015BCDE90201FEF7A2
:4050800093FB002840F01D83DDE9022300203749FDF764FFDDE90C23FEF786FB002840F0D180069BE31AB3426ADADDE90C0100222F4BFEF707F90022CDE90C01DDE902018B
:4050C0002B4BFEF7FFF8CDE90201C4E703EBC1012246D1E900012B46FEF7F4F8069BCDE90C011D469C19DDE90201FEF79BFB0646FEF782F802460B46DDE90201FDF72EFFB7
:40510000303605F8016BAC42CDE902014FF0000222D11A4BDDE90C01FDF722FF02460B46DDE90201FEF75EFB002840F08B80DDE90C2300201149FDF711FF02460B46DDE993
:405140000201FEF731FBD8B114F8013C621E302B40F0B7821446F7E7054BFEF7B3F8CDE90201C0E7786B0000506C00000000F03F0000244000001C40000014400000E03F6C
:40518000DDE90E34CDE90234139B002B7CDBBBF10E0F79DCAB4B03EBCB03D3E900671F9B002B14DA059B002B11DC40F06C810022A54B30463946FEF785F8DDE90223FEF7D7
:4051C00007FB059D2E46002840F05F8165E1069CDDE9028932463B4640464946FEF79CF9FEF720FB0546FEF707F832463B46FEF769F80B46024649464046FDF7AFFE05F1AB
:40520000300E069B04F801EBC3EB040E059B73452DD102460B46FDF7A3FE8046894602460B4630463946FEF7BFFA78B942464B4630463946FEF7AEFA002800F04482EB07E6
:4052400004D440E2DDF820B000E01C4614F8012C631E392A07D1069A9A42F6D1069930220BF1010B0A701A7801321A702BE20022764BFEF727F80022002380468946FEF780
:4052800089FA0028A6D01EE20A9A002A2BD01E9A012A0ADC119A12B103F2334302E0129BC3F136033D46444613E0059B5D1EAF42BFBF0B9BEA1B9B180B93059BB6BF2F46D6
:4052C0007D1B0025002BA7BF4446059BC3EB08040023079A01211A4450469844079200F0DBFC064602E03D4644460A9E5CB1079B002B08DDA342A8BF2346079AC3EB0808B0
:40530000E41AD31A0793002F1DDD0A9BABB18DB131462A46504600F059FD049A01460646504600F0C2FC04990890504600F015FC089B04937A1B06D000E03A460499504644
:4053400000F044FD04900121504600F0A5FC0B9B05465BB31A460146504600F037FD1E9B0546012B18DC029B83B9039BC3F3130373B9039B23F000473F0D3F054FB1079B02
:4053800008F1010801330793012702E0002700E0029F0B9B73B100E000272B6905EB8303186900F02CFCC0F1200004E01E9B012BD9DD0B9F0120079B184410F01F0008D0E7
:4053C000C0F12003042B02DDC0F11C0002E006D018461C30079B8044034404440793B8F1000F05DD42460499504600F03DFD0490079B002B05DD29461A46504600F034FDC5
:405400000546109B23B32946049800F07EFD00281EDA00230A220499504600F0B5FB0A9B0BF1FF3B0490002B00F05F81314600230A22504600F0A8FBB9F1000F06463FDC6F
:405440003BE000BF786B00000000144000002440059B002B2BDC1E9B022B28DDDDF81490B9F1000F11D129464B460522504600F08BFB01460546049800F047FD00280CDC41
:4054800003E0354600E000252E461F9B069C6FEA030B09E03546DDF820B0069B069A5C1C312313700BF1010B05960026F7E00A9BDDF8149023B9069CB2E01E9B022BCFDC5A
:4054C000002C05DD31462246504600F0CDFC06469FB17168504600F00BFB0446326906F10C01023292000C30FEF714FD01222146504600F0B9FC059000E00596029B069F67
:4055000003F00103079329460498FFF7D7FA3146044600F13008049800F0F7FC059A02902946504600F00DFDC36802463BB901460A90049800F0E9FC0A9A034600E00123C5
:40554000114650460A9300F008FB0A9B53B91E9A42B9079A32B9B8F1390F2AD0029B002B1CDC1DE0029A002A04DB1BD11E9ACAB9079ABAB9002B13DD01220499504600F0D5
:4055800073FC2946049000F0C0FC002803DC07D118F0010F04D0B8F1390F0AD004F131087C1C0CE0002B07F101040BDDB8F1390F03D139233B70013756E008F1010887F8BA
:4055C00000806CE0069B2746E31A4B4504F8018C3BD000230A220499504600F0D5FA059B04909E424FF00A024FF000033146504604D100F0C9FA0646059084E700F0C4FA3F
:40560000002306460A220599504600F0BDFA059079E700230A220499504600F0B5FA049029460498FFF74AFA069B00F1300804F8018BE31A4B45ECDB069B0596B9F1010F69
:40564000ACBF4B4401331F46002601220499504600F00AFC2946049000F057FC002803DC15D118F0010F12D03C4614F8013C621E392B09D1069B934204D10BF1010B3123C8
:40568000069A02E01446F0E70133137007E03C4614F8013C621E302B01D11446F8E72946504600F05AFA059B6BB12EB19E4203D03146504600F051FA0599504600F04DFA9E
:4056C00001E0DDF820B00499504600F046FA0023209A23700BF101031360229B1BB11C6001E008480AE0069808E0B9F1000F3FF7E2AE1E9B022B7FF7DEAEB1E615B0BDE8D0
:40570000F08F00BFD86A00008A892DE9F041054610070C4659D44B68002B02DC0B6C002B17DDE66AAEB102F48052002392B22F682B600AB1606D15E0216A01232846B047CB
:40574000411C0FD12B686BB11D2B01D0162B03D12F600020BDE8F081A38943F04003A381BDE8F081A3895A0705D56368C01A636B0BB1236CC01A00230246E66A216A2846BB
:40578000B047431CA38906D129681D2939D8204ACA40D60735D5002262602269D904226004D5421C01D12B6803B96065616B2F600029CED004F14403994202D0284600F0F9
:4057C0007BFC00206063BDE8F0810F69002FC0D093070E680CBF4B690023C7EB06080F608B6002E00744C0EB0808B8F1000FB0DD43463A46216A2846A66AB0470028F1DC0B
:40580000A38943F04003A3814FF0FF30BDE8F0810100402038B50B6905460C46DBB118B183690BB900F060F80C4B9C4201D16C6808E00B4B9C4201D1AC6803E0094B9C4280
:4058400008BFEC68B4F90C302BB121462846BDE83840FFF759BF002038BD00BF0C6B00002C6B00004C6B0000014900F0A9B800BF1558000010B504460023036043608360CD
:4058800081814366C281036143618361194608225C30FEF74AFB054B24626362044BA362044BE362044B236310BD00BFC9640000EB640000236500004765000070B568237B
:4058C0004D1E5D430E4605F1740100F041FC044640B1002180E842000C30A06005F16802FEF723FB204670BD836910B5044633BB8364C3640365124B124A1B688262984210
:4059000004BF0123836100F01FF86060204600F01BF8A060204600F017F80022E06004216068FFF7A7FF01220921A068FFF7A2FF02221221E068FFF79DFF0123A36110BD0A
:40594000C46A000069580000F8B51C4B07461E68B36913B93046FFF7C7FF4836B4687368013B04D4B4F90C507DB16834F8E733680BB13668F2E704213846FFF79FFF306067
:405980000028F6D10C233B60F8BD4FF6FF73E3810123A38165662560A560656025616561A5610822294604F15C00FEF7BEFA6563A563A564E5642046F8BD00BFC46A0000E9
:4059C0002DE9F8438046894600F14804002694B1A5686768013F0CD4AB89012B07D9B5F90E30013303D029464046C84706436835F0E72468EBE73046BDE8F8830048704736
:405A00004C81FF1F70B50E46B1F90E1090B0002914461D4606DA00232B60B3891A060ED540230EE001AA00F0B5FD0028F3DB029A02F47042A2F500535A425A412A604FF481
:405A400080630020236010B070BD00008B8973B59E0705460C4610D401AB6A46FFF7D2FF00990646284600F073FB68B9B4F90C309A0522D443F00203A38104F147032360C0
:405A800023610123636118E00D4BAB62A389206043F08003A381009B20616361019B4BB1B4F90E10284600F087FD18B1A38943F00103A381A0893043A08102B070BD00BFC7
:405AC00069580000024B0146186800F041BB00BF4881FF1F10B5C9B202449042034605D01C7801308C42F8D1184610BD002010BD70B5456A04460E463DB91020FFF7E2FFE6
:405B00006062456085600560C560656AEB6843B1636ADB6853F8260078B1026843F8262017E021220421204600F0B8FA636AE860DB68002BECD1002070BD012101FA06F5D8
:405B40006A1D9200204600F0A9FA0028F3D04660856000230361C36070BD70B5446A06460D463CB91020FFF7ADFF7062446084600460C4603DB1736A6A68DB6853F822104E
:405B8000296043F8225070BD2DE9F04106460C460D691F4601F1140E0023DEF80000013381B202FB0171000C0F0C02FB007089B201EB00419D424FEA10474EF8041BECDC47
:405BC000D7B1A3689D4212DB616830460131FFF78FFF8046226904F10C01023292000C30FEF798F921463046FFF7B7FF444604EB850301355F6125612046BDE8F081030CE5
:405C00001B0413B90004102300E0002310F07F4F04BF0002083310F0704F04BF0001043310F0404F04BF80000233002803DB420003D5581C704718467047202070470368EE
:405C400013F007020BD0D90722D49A074BBF5B089B08036003604CBF01200220704799B209B91B0C102213F0FF0F04BF1B0A0832190704BF1B090432990704BF9B080232DB
:405C8000D90702D45B0805D00132036010467047002070472020704710B50C460121FFF727FF01224461026110BD2DE9F74F14460A69236988469A42BEBF0B46A0461C46C3
:405CC000D8F81070D4F81090D8F80830D8F8041007EB09069E42C8BF0131FFF709FF00F114052B4605EB860C0022634502D243F8042BFAE704F1140208F1140102EB8903EC
:405D000001EB87070093009B0192934257D9B2F800B0BBF1000F23D08946AE464FF0000859F8044BBEF800A0A3B20BFB03A34FEA144ADEF8004043444FEA14480BFB0A84BD
:405D4000F24604EB13449BB243EA04434F454FEA14484AF8043B01D9D646E1E7CEF80480019B0432B3F802A0BAF1000F21D02C4689462B684FF00008B9F800E0B4F802B05E
:405D80009BB20AFB0EBEA346F04443EA08434BF8043B59F8043BB4F804E01B0C0AFB03E34F4503EB18434FEA134801D95C46E3E763600435A7E75CF8043D13B9013E002E6D
:405DC000F9DC066103B0BDE8F08F00002DE9F843154612F0030206460F4607D0214C013A002354F82220FFF7CFFE0746AD1036D0746A3CB91020FFF765FE70624460846083
:405E00000460C460D6F82480D8F808404CB940F271213046FFF740FF04460023C8F8080003604FF00008EB070AD5394622463046FFF73BFF814639463046FFF78EFE4F46CC
:405E40006D100CD0206808B10446ECE7224621463046FFF72AFF2060C0F80080F4E73846BDE8F883406C00002DE9F0470C460746914626694FEA621A56444968A368751C3C
:405E8000AB4202DA01315B00FAE73846FFF730FE002380461A4600F11401534503DA41F823200133F9E72AEAEA73206901EB830319F01F0904F1140101EB800E14D0C9F1F6
:405EC000200C002208689A4600FA09F0024343F8042B51F8042B8E4522FA0CF2F2D8CAF8042042B1B51C06E0043B51F8042B8E4543F8042FF9D8013D3846C8F81050214697
:405F0000FFF72BFE4046BDE8F08703690A6910B59B1A11D192001430143183180A4453F8044D52F8041D8C4202D007D3012010BD9842F4D3002010BD184610BD4FF0FF30CB
:405F400010BD2DE9F8430C460746114620461546FFF7DBFF061E08D131463846FFF7C8FD012303614661BDE8F883BCBF23462C4638466168BABF1D4601260026FFF7B8FD0F
:405F80002B69C660266905F1140904F1140101EB860709EB830800F114054FF0000C51F8042B59F8044B93B29C44A3B2240CC3EB0C03C4EB124202EB23429BB24FEA224C66
:405FC000C84543EA02428E4645F8042BE7D8BE450ED25EF8041B8AB26244131403EB114392B242EA03424FEA234C45F8042BEEE755F8043D0BB9013EFAE70661BDE8F883EA
:406000002DE9F3411C4601219046089E099DFFF76FFDC4F31302C4F30A5407460CB142F480120192B8F1000F19D002A840F8088DFFF705FE009B48B1019AC0F1200102FABA
:4060400001F10B43C2407B61019200E07B61019B002B14BF02210121BB61396107E001A8FFF7EDFD019B01217B613961203034B1A4F2334404443460C0F1350009E0A0F2FB
:40608000324007EB810330601869FFF7B8FDC0EB41102860384602B0BDE8F08138B502FB01F4214600F054F8054618B122460021FDF73BFF284638BD38B50546002944D04D
:4060C00051F8043C0C1F002BB8BFE41800F0B1FA1E4A1368114613B96360146030E0A3420DD92268A018834201BF18685B681218226063600C6023E0A24203D813465A68D9
:40610000002AF9D118681918A1420BD12168014458188242196013D110685268014419605A600DE002D90C232B6009E021686018824201BF106852680918216062605C60B0
:406140002846BDE8384000F075BA38BDBC81FF1F70B5CD1C25F0030508350C2D38BF0C25002D064601DBA94202D90C23336046E000F05FFA234B1C681A462146A1B10B6892
:406180005B1B0ED40B2B03D90B60CC18CD501EE08C420BBF63684B681360636018BF0C4615E00C464968E9E7174C23681BB9304600F07AF920602946304600F075F9431C11
:4061C00018D0C41C24F00304A0420DD12560304600F030FA04F10B00231D20F00700C31A0ED05A42E25070BD211A304600F05CF90130EBD10C233360304600F01BFA00209A
:4062000070BD00BFBC81FF1FB881FF1F2DE9F0478E6882469E420C46914698463ED88A8912F4906F3AD02568096902236F1A656905EB450595FBF3F57B1C43449D4238BF75
:406240001D4653050FD52946FFF782FF064698B13A462169FDF75EFEA38923F4906343F08003A38113E02A4600F0E5F9064670B921695046FFF720FF0C23CAF80030A38972
:406280004FF0FF3043F04003A381BDE8F08726613E44266046466561ED1BA560464528BF464649463246206800F0A8F9A36800209B1BA36023681E442660BDE8F08700003B
:4062C0002DE9F04F9DB003938B8980461C060D4616460DD50B695BB94021FFF739FF2860286118B90C23C8F80030CDE040236B610023099320238DF82930DFF89CB130238E
:406300008DF82A3037463C4614F8013B1BB9B7EB060910D003E0252BF9D02746F3E74B46324629464046FFF771FF013000F0A780099B4B4409933B78002B00F0A080002303
:406340004FF0FF3204930793059206938DF853301A930126052221784E48FFF7BBFB671C049B38B14B4A3C46801A06FA00F018430490EFE7D90644BF20228DF853201A07C0
:4063800044BF2B228DF8532022782A2A03D0079A00210A200BE0039A111D12680391002A10DA524243F00200079204900BE027463B780134303B092B03D800FB023201210F
:4063C000F5E701B107923B782E2B1ED17B782A2B0AD1039B02371A1D1B680392002BB8BF4FF0FF33059310E0002319460593781C0A2407463A780130303A092A03D804FB14
:4064000001210123F5E703B10591032239782248FFF760FB40B14023CBEB000003FA00F0049B013718430490397806221B487E1C8DF82810FFF74EFB88B1194B33B9039BA9
:40644000073323F007030833039314E003AB00932A46144B04A94046FDF700FE07E003AB00932A460F4B04A94046FEF7B1F8B0F1FF3F824603D0099B5344099342E7AB895A
:406480005B0601D4099801E04FF0FF301DB0BDE8F08F00BF786C00007E6C0000826C00005D4000000D62000038B5064C0023054608462360FAF752FB431C02D1236803B111
:4064C0002B6038BD7C91FF1F10B50C46B1F90E1000F0D8F80028ABBF636DA3891B1823F48053ACBF6365A38110BD2DE9F0411F468B890546DB050C46164605D502230022C9
:40650000B1F90E1000F068F8A389324623F48053A381B4F90E103B462846BDE8F04100F017B810B50C46B1F90E1000F055F8431CA38915BF606523F4805343F48053A381EA
:4065400018BFA38110BDB1F90E1000F013B8000038B5074C054608461146002222601A4600F0D4F8431C02D1236803B12B6038BD7C91FF1F38B5064C002305460846236046
:4065800000F09CF8431C02D1236803B12B6038BD7C91FF1F38B5074C0023054608461146236000F093F8431C02D1236803B12B6038BD00BF7C91FF1F38B5064C0023054662
:4065C0000846236000F08AF8431C02D1236803B12B6038BD7C91FF1F38B5074C054608461146002222601A4600F080F8431C02D1236803B12B6038BD7C91FF1F884210B5F5
:4066000001EB020301D8421E0BE09842FBD28118D21AD34204D013F8014D01F8014DF8E710BD994204D011F8014B02F8014FF8E710BD70477047F8B5074615460E4621B9F9
:406640001146BDE8F840FFF783BD1AB9FFF734FD2846F8BD00F028F885420ED929463846FFF776FD044650B131462A46FDF752FC31463846FFF720FD01E03046F8BD204691
:40668000F8BD000038B5074C054608461146002222601A4600F032F8431C02D1236803B12B6038BD7C91FF1F51F8040C0028BEBF091851F8043CC01804387047024B582281
:4066C0001A604FF0FF3070477C91FF1F024B58221A604FF0FF3070477C91FF1F024B58221A600020704700BF7C91FF1F024B58221A604FF0FF3070477C91FF1F024B5822E5
:406700001A604FF0FF3070477C91FF1F024B58221A604FF0FF3070477C91FF1F00000000546865206B6579206973203100000000546865206B657920697320310A00000046
:4067400025730D0A00000000546865206B6579206973203200000000546865206B657920697320320A000000546865206B6579206973203300000000546865206B6579202D
:40678000697320330A000000546865206B6579206973203400000000546865206B657920697320340A000000546865206B6579206973203500000000546865206B6579205D
:4067C000697320350A000000546865206B6579206973203600000000546865206B657920697320360A000000546865206B6579206973203700000000546865206B65792015
:40680000697320370A000000546865206B6579206973203800000000546865206B657920697320380A000000546865206B6579206973203900000000546865206B657920CC
:40684000697320390A000000546865206B6579206973203000000000546865206B657920697320300A000000434F4D20506F7274204F70656E200D0A000000002568750D87
:406880000A000000035B00402443004040000000005100401000205100405000F05100401000000001400010001401400006801A0140800100400140000A004C01400002F4
:4068C000005001402000000060520040900200480600001A01409802004880007371727400000000FB21F93FFB2109407CD91240FB2119407A6A1F407CD92240BBFD2540A2
:40690000FB2129403A462C407A6A2F405C4731407CD932409C6B3440BBFD3540DB8F3740FB2139401BB43A403A463C405AD83D407A6A3F404C7E40405C4741406C104240D7
:406940007CD942408CA243409C6B4440AC344540BBFD4540CBC64640DB8F4740EB584840FB21494083F9A200444E6E00FC291500D1572700DD34F50062DBC0003C999500D6
:40698000419043006351FE00BBDEAB00B761C5003A6E2400D24D42004906E00009EA2E001C92D100EB1DFE0029B11C00E83EA700F535820044BB2E009CE98400B4267000FF
:4069C000417E5F00D6913900538339009CF439008B5F840028F9BD00F81F3B00DEFF97000F980500112FEF000A5A8B006D1F6D00CF7E360009CB2700464FB7009E663F001F
:406A00002DEA5F00BA277500E5EBC7003D7BF100F739070092528A00FB6BEA001FB15F00085D8D00300356007BFC4600F0AB6B0020BCCF0036F49A00E3A91D005E61910080
:406A4000081BE60085996500A0145F008D40680080D8FF0027734D0006063100CA561500C9A873007BE260006B8CC00002000000030000000400000006000000000000002B
:406A800000000040FB21F93F000000002D44743E000000809846F83C0000006051CC783B00000080831BF0390000004020257A38000000802282E336000000001DF36935F4
:406AC00043000000E880FF1F494E4600696E66004E414E006E616E00300030313233343536373839414243444546003031323334353637383961626364656600496E6669DF
:406B00006E697479004E614E000000000000000000000000000000000000000000000000000000000000000000000000000000000000000000000000000000000000000094
:406B40000000000000000000000000000000000000000000000000000000000000000000000000000000000000000000504F534958002E0000000000000000000000F03F25
:406B8000000000000000244000000000000059400000000000408F40000000000088C34000000000006AF8400000000080842E4100000000D01263410000000084D7974170
:406BC0000000000065CDCD41000000205FA00242000000E876483742000000A2941A6D42000040E59C30A2420000901EC4BCD64200003426F56B0C430080E03779C3414359
:406C000000A0D8855734764300C84E676DC1AB43003D9160E458E143408CB5781DAF154450EFE2D6E41A4B4492D54D06CFF08044F64AE1C7022DB544B49DD9794378EA4471
:406C400005000000190000007D000000000000000080E03779C34143176E05B5B5B89346F5F93FE9034F384D321D30F94877825A3CBF737FDD4F1575232D302B2000686C5B
:406C80004C0065666745464700000000F8B500BFF8BC08BC9E4670474D000000450C0000F8B500BFF8BC08BC9E46704729000000C06C0000C880FF1FC0000000F80F000066
:406CC000000000008091FF1F01FF000000366E01C05D0000180000000000E02E01000000000000000C6B00002C6B00004C6B000000000000000000000000000000000000B7
:406D0000C06A000000000000000000000000000000000000000000000000000000000000000000000000000000000000000000000000000000000000000000000000000029
:406D4000E880FF1F726B00007D6C00007D6C00007D6C00007D6C00007D6C00007D6C00007D6C00007D6C00007D6C0000FFFFFFFFFFFFFFFFFFFFFFFFFFFF0000000000008D
:406D800000000000000000000000000000000000000000000000000000000000000000000000000000000000000000000000000000000000000000000000000000000000D3
:406DC0000000000000000000000000000000000000000000000000000000000000000000000000000000000000000000000000000000000000000000000000000000000093
:406E00000000000000000000000000000000000000000000000000000000000000000000000000000000000000000000000000000000000000000000000000000000000052
:406E40000000000000000000000000000000000000000000000000000000000000000000000000000000000000000000000000000000000000000000000000000000000012
:020000040003F7
:0200000480007A
:40000000036500400105014001090140020B0140010D0140010F01406A1801403C190140151A0140451B014002420140014301400444014003460140034801400B4D0140EC
:4000400004500140880F8A728B38E00294049404E00294048C04000C0180021104090610081C09030A020B440C100E0C11731304160318141D731F0C23552410252A2744F4
:400080002B083140321F33303580370F382039083B803E103F154016410445EB46C0480B49FF4AFF4BFF4EF04F44500C5401580459045A045B045C115D115F0166C06A40F5
:4000C0006B02848C85128613872989778A8C8D018E408F0699779A409C119D409E86A011A20EA524A608A711A820AA03B08AB107B230B330B40FB540B640B708B808BA223F
:40010000BE40C003C640C9FFCA07CBFFCC40CD20CEF0CF05D008D804D904DA04DC11DD01DF01E040E1A8E240E320020103280516070109400A080C040E200F0812181302E2
:40014000161019561B281C041E2020282180234024402548268027092A042C802F283240331035023680370239183B403D013E3041084540470248804D014E084F08521096
:4001800056205C405D015E105F0888808A089404C0F7C263C42ECAE2CC9CCEAED092D220D6F08C0196019801A701A802AB01AE01B202B301B401B820BA02BE04BF04D418C4
:4001C000D804D904DB04DC01DD10DF010068020404400A160B400E141082131414041780180119251A141C401E201F22201022052382250829202A062B022F24319432019C
:40020000382A3B404051420445084620480449104B08520159015F026540662069106A806B10709472027314880289048A108C01934095189688980499409E059F10A014F2
:40024000A180C087C26FC4CFCA6FCC0FCE0FD00FD204D681D8308701E0409F017D088D04DE01E40245088508D00127019F01C820108012807502888089028E80C408DE04E7
:40028000E001E202E601100211011C021D01000080800000400000000044000000182300020880003FC00000033C40C21F1C20E133000CE31C00230408100000048000006C
:4002C0000CE7001801FF8000101F2C380F00C0C0000028020000410026040300010E00C021FFFFFF62A0F0410C000000000002130404040411110001000000000000400203
:40030000001030100010101200000000000000000000000000000000800040808000800000000000000B0B0000004000BB00180100000000000000000000000000000000D1
:40034000000000000000000000000000000000000000000000000000000000000000000000000000000000000000000000000000000000000000000000000000000000007D
