:400000000080002011000000A1090000A109000080B500AF024A034B1B68136000F0F2FCBC760040FA46004010B5054C237833B9044B13B10448AFF300800123237010BDD5
:400040007081FF1F000000007C330000084B10B51BB108490848AFF300800848036803B910BD074B002BFBD0BDE81040184700BF000000007481FF1F7C330000C880FF1F54
:400080000000000080B500AF012000F0B3FE0346002B32D000F0D4FE03469AB2184B1A80184B1B78002B03D1174B1B78002B0DD0134B1B881A461549154802F03BFD14483C
:4000C00001F0BCFD0F4B00221A7016E0114B1B78002B12D0104B1B781A4610490C4802F029FD0B4801F0AAFD0B4B1B780133DAB2094B1A70074B00221A7000BF80BD00BF20
:40010000C281FF1FC481FF1FC081FF1F80330000B081FF1FC181FF1FC581FF1F8833000080B582B000AF00F03DFE01F0E9FC02F091F801F0C5FE01F09BFF02F00BFB02F060
:4001400043F902F0CDF8964B00221A70954B00221A70954B00221A70944B00221A7000F039FE934801F06AFD01F018FE914801F059FE62B601F026FD0346FB71FB79782BE2
:4001800000F20B8101A252F823F000BF9B0300009B0300009B0300009B0300009B0300009B0300009B0300009B0300009B0300009B0300009B0300009B0300009B030000FC
:4001C0009B0300009B0300009B0300009B0300009B0300009B0300009B0300009B0300009B0300009B0300009B0300009B0300009B0300009B0300009B0300009B0300001F
:400200009B0300009B0300009B0300009B0300009B0300009B030000710300009B0300009B0300009B0300009B0300009B0300009B030000710300009B0300009B03000032
:400240009B0300009B0300009B030000710300007103000071030000710300007103000071030000710300007103000071030000710300009B0300009B0300009B03000042
:400280009B0300009B0300009B0300009B0300009B0300009B0300007B0300009B030000930300009B0300009B0300009B0300009B0300009B0300009B0300009B03000086
:4002C0009B0300009B0300009B0300009B0300009B0300009B030000830300009B0300009B0300009B0300009B0300008B0300009B0300009B0300009B0300009B03000046
:400300009B0300009B0300009B0300009B0300009B0300009B0300007B0300009B030000930300009B0300009B0300009B0300009B0300009B0300009B0300009B03000005
:400340009B0300009B0300009B0300009B0300009B0300009B030000830300009B0300009B0300009B0300009B0300008B030000FB1D184600F020F810E00A4B01221A70CD
:400380000CE0074B01221A7008E0054B00221A7004E0054B01221A7000E000BFEAE600BFC081FF1FC481FF1FC181FF1FC581FF1F903300008500000080B584B000AF7860A1
:4003C0000023FB730CE0FB7B7A6813441B78184600F010F8322001F011FBFB7B0133FB73FB7B7A6813441B78002BECD100BF1037BD4680BD80B584B000AF0346FB71FB79D0
:400400001946244800F054F80346FB7397F90F30002B37DBFB7B03F003031F4AD35CBB7397F90F309B105BB2DBB203F003031B4AD35C7B73BB7B1A4619491A4802F07AFB6D
:40044000184801F0FBFB7B7B1A461749154802F071FB144801F0F2FB7B7B184601F0B0FDBB7B184601F084FE01F0DAFE0F4B01221A70502001F0C2FA01F0ECFE0B4B002251
:400480001A7002E0642001F0B9FA00BF1037BD4680BD00BFCC80FF1FE480FF1FE080FF1FA0330000B081FF1FB0330000C081FF1F80B485B000AF78600B46FB70FF23BB73D9
:4004C0000023FB7310E097F90F307A6813441B78FA789A4202D1FB7BBB730CE097F90F30DBB20133DBB2FB7397F90F307A6813441B78002BE7D197F90E3018461437BD46AC
:4005000080BC704780B582B000AF786039603A680021786802F005FB00BF0837BD4680BD80B584B000AFF860B9607A607A68B968F86802F0EBFA00BF1037BD4680BD00BFCC
:4005400080B483B000AF0346FB71FEE780B487B000AF7860396000233B6100237B6127E07B699B007A6813441B68BB60BB68FB73BB6823F0FF03BB6014E03B695B003A68AC
:4005800013441B781A46BB68134419463B695B003A6813445B780B703B6901333B61FB7B013BFB73FB7B002BE7D17B6901337B617B69222BD4D900BF1C37BD4680BC70470B
:4005C00080B582B000AF454B00221A80444B50221A70444B01221A80434B18221A70434B17221A80424B18221A70424B19221A80414B18221A70042240494148FFF790FF4F
:40060000404B02221A704FF0402308221A703E4B03221A703D4B3E4A1278D2B21A703D4B08221A803C4B41F251221A800023FB7019237B6014E0FB785B00DAB2374B1B7830
:40064000DBB203F00103DBB21343DBB203F00303FB704FF4F07002F003FA7B68013B7B607B68002B02D0FB78032BE4D17B68002B02D10320FFF764FF294B4FF480721A80C0
:40068000274B07221A70274B00221A70264B48221A70234B00221A70244B02221A70244B04221A70234A234B1B78DBB243F00F03DBB21370204A204B1B78DBB243F00103C0
:4006C000DBB213701D4A1D4B1B78DBB263F07F03DBB2137000BF0837BD4680BD80400040824000408440004086400040884000408A4000408C4000408E400040E005004873
:40070000004100400043004000420040A146004008010049224200402042004025420040044000400640004008400040014000400B400040A2430040A1430040A0430040C3
:4007400080B483B000AF144B1B78FB71134AFB7903F00703DBB21370114AFB791B09DBB21370104B80221A700F4B20221A700F4B20221A700E4B80221A700E4B4FF481723D
:400780001A800D4BA0221A700C4B44221A7000BF0C37BD4680BC7047CF0100496E5800406F5800403D510040905A0040985A0040005B0040465B0040585B004076580040EF
:4007C00080B483B000AF0346FB71FB79012B0ED8FB79094A52F82330FA79074951F822201178FA790548825C0A43D2B21A7000BF0C37BD4680BC7047C0330000C83300008E
:4008000080B483B000AF0346FB71FB79012B10D8FB790A4A52F82330FA79084951F822201178FA790648825CD243D2B20A40D2B21A7000BF0C37BD4680BC7047C0330000AD
:40084000C833000080B582B000AF72B6404A404B1B78DBB243F00403DBB213700023FB7113E0FA7913465B0013445B00394A13443B603B681A683B689B889BB21946104603
:40088000FFF740FEFB790133FB71FB79092BE8D931494FF09040FFF759FE304B0A221A7004212F48FFF72EFE04212E48FFF72AFE04212D48FFF726FE04212C48FFF722FEA6
:4008C0002B4A2B4B1B78DBB243F00203DBB21370284A284B1B78DBB243F00203DBB21370254A254B1B78DBB243F04003DBB21370224A224B1B78DBB243F01003DBB2137084
:400900000A221F491F48FFF70BFE08221E491F48FFF706FE1E4A1E4B1B78DBB243F00803DBB213701B4B60221A70FFF749FE194B80221A70184B01221A70FFF701FF0E2217
:400940000D491648FFF7ECFD00BF0837BD4680BDE8460040CC3300008C00004883580040007600400876004010760040187600400350014013500140A0430040C2430040A2
:40098000CC050048C0510040D805004812510040224300400048004004000840B043004080B500AF02F086F803461B680C2B00D1FEE7FEE780B584B000AF78600F4B1A689B
:4009C0007B6813441A460E4BD31A802B09DC0B4B1B68FB60094B1A687B681344074A136007E002F067F802460C2313604FF0FF33FB60FB6818461037BD4680BDE880FF1FC3
:400A0000D081FF1F80B586B000AF224B7B61224B3B61204B7B6135E03B691B68FB603B695B68BB603B699B683B6000237B600CE0FB681A68BB681A60BB680433BB60FB68F5
:400A40000433FB607B6804337B607A683B689A42EED13B69DB683B6000237B6008E0BB6800221A60BB680433BB607B6804337B607A683B689A42F2D13B6910333B617B69B3
:400A8000013B7B617B69002BC6D102F019F8FFF747FBFEE701000000B035000080B582B000AF194B194A1A60194A194B1B6843F40073136000237B600FE07B68032B04D8DA
:400AC000144A7B6852F8233000E0134B13497A6841F822307B6801337B607B682F2BECD90F4B1B78DAB20F4B1A700F4B0B4A1A60FFF7A8FE00F08AFD0C4B00221A6000BFD2
:400B00000837BD4680BD00BF0CED00E00004FA0514ED00E000000000A10900000080FF1FBC760040C480FF1F08ED00E0C080FF1F80B582B002AF324B01221A70314B00228B
:400B40001A70102000F054FC102000F037FD07211D2000F0B1FF2C4B04221A702B4B00221A702B4B00221A702A4A2A4B1B78DBB243F01803DBB21370274B00221A70274BC0
:400B800000221A70264B00221A70264B0A221A70254B00221A70254B00221A70244B12221A70244B13221A70234B00221A70234B14221A700123009308234FF4004248F6C5
:400BC000B651002000F02CFA1D4A0D4B1B78DBB2013B1C499B000B449B7813701A4A084B1B78DBB2013B174931F823301380044B1B78DBB2184600F061F900BFBD4680BD20
:400C0000EC80FF1F8C81FF1F96580040975800409E580040075B004093580040885B0040895B004080580040815800408358004088580040895800408D580040014E004017
:400C40000E4E00409481FF1F0C4E004080B582B000AF01F024FF0346FB71444B1B78BB71434A434B1B78DBB243F00103DBB213703F4A3F4B1B78DBB243F01003DBB21370D3
:400C80003C4A3C4B1B78DBB243F00103DBB21370384A384B1B78DBB243F01003DBB21370354A354B1B78DBB243F00203DBB21370324A324B1B78DBB243F00203DBB213707D
:400CC0002F4A2F4B1B78DBB243F00303DBB21370032000F0B5FE284A274B1B78DBB223F00203DBB21370254A244B1B78DBB223F00203DBB21370234A224B1B78DBB243F053
:400D00000603DBB21370204B7A221A701F4A1F4B1B78DBB243F00103DBB213701C4A1C4B1B78DBB243F00103DBB21370194A194B1B78DBB243F00103DBB21370164A164BAC
:400D40001B78DBB243F00103DBB21370134B4FF000521A60124B4FF000521A60FB79184601F0A1FE00BF0837BD4680BDEC80FF1FAA430040BA430040F8460040F9460040AA
:400D8000915800407758004082580040A1430040B1430040A2430040B243004080E200E000E100E080B500AF084B1B78002B09D1074B1B78DBB2002B01D1FFF7B9FE034BF3
:400DC00001221A70FFF742FF00BF80BD8E81FF1F8F81FF1F80B400AF054A054B1B78DBB243F00103DBB2137000BFBD4680BC7047004E004080B485B000AF0346FB710D4B67
:400E00001B78DBB2002B03D00B4B1B78FB7305E00A4B1B78DBB203F00103FB73FB7B012B02D0FB79002BEAD0FB7B18461437BD4680BC70478D81FF1F8C81FF1F014E0040B6
:400E400080B483B000AF174B1B78DBB203F003037B717B79012B03D8134B1B88FB8011E0114B1B78DBB2FB80104B1B78DBB29BB21B029AB2FB881343FB807B79032B01D11D
:400E80000B4B1B780B4B1B78DBB2002B02D00A4B00221A70B7F9063018460C37BD4680BC704700BF144E0040104E0040114E0040124E00408D81FF1F8C81FF1F80B582B05C
:400EC00000AF0346FB71384B00221A70FB79012B65D1364B38221A70354B04221A70354B06221A70344B00221A70344B00221A70334B0F221A70334B00221A70324B00226A
:400F00001A70324B00221A70314B01221A70314B14221A70304B09221A70304B0A221A702F4B00221A702F4B11221A702E4B12221A702E4B01221A702D4B00221A702D4BE2
:400F400000221A702C4B0A221A702C4B43221A70442000F01DF92A4B58221A70294B00221A70294B05221A70284B02221A70284B00221A70274B00221A70002000F066F93D
:400F8000254BFA221A600121052000F073F90121952000F055FA21491D2000F065FD00BF0837BD4680BD00BF8D81FF1F004E0040024E0040034E0040044E0040054E00407C
:400FC000064E0040084E0040094E00400A4E0040144E0040845800408558004086580040875800408A5800408B5800408C5800408E5800408F580040905800409158004079
:4010000094580040955800409A5800409B5800409C5800409D580040C881FF1F0D12000090B587B000AF0446084611461A462346FB710346BB800B467B801346BB7197F8D0
:401040002830002B00F08B8097F82830012B00F28680FB79013B092B4AD801A252F823F089100000F1100000F110000089100000F1100000F1100000A3100000BD1000002B
:40108000F1100000D7100000BB790F2B04D9374B1B78DBB2FB752EE0354B1B78DBB2FB7529E0BB790F2B04D9324B1B78DBB2FB7521E0314B1B78DBB2FB751CE0BB790F2BF5
:4010C00004D92E4B1B78DBB2FB7514E02C4B1B78DBB2FB750FE0BB790F2B04D9294B1B78DBB2FB7507E0284B1B78DBB2FB7502E00023FB7500BFBA8897F917305B011344E7
:401100003B617B883A6902FB03F3FB60FB68DB0BBB82BB790D2B12D8BA8ABB79C3F10E0342FA03F3BB8297F82830013BBA790132D1B2164A9B0013440A469A7007E097F869
:401140002830013B114A9B0013440F229A7097F82830013B0D49BA8A21F8232002E0002000F040FC00BF1C37BD4690BD180100491C010049190100491D0100491A010049B4
:401180001E0100491B0100491F0100499481FF1F80B584B000AF0346FB7101F080FC0346FB73174A164B1B78DBB243F00303DBB21370144A134B1B78DBB243F00303DBB208
:4011C0001370114AFB791370032000F039FC0C4A0B4B1B78DBB223F00303DBB21370094A084B1B78DBB223F00303DBB21370FB7B184601F058FC00BF1037BD4680BD00BFD0
:40120000F8460040F94600409258004080B400AF00BFBD4680BC704780B582B000AF0023FB7106E0FB791846FFF7EAFAFB790133FB71FB79012BF5D9034BFF221A7000BF7E
:401240000837BD4680BD00BFED80FF1F80B582B000AF0346FB71FFF7DFFFFB791846FFF7AFFA034AFB79137000BF0837BD4680BDED80FF1F80B584B000AF03460A46FB805C
:4012800013467B7100F0CEF80346FB7300F0A4F80346BB81FA88BB899A4200F08880464B1B78DBB203F00103FB72FB7B002B20D1BB89002B02D0FB88002B1AD1BB89002BE1
:4012C0000BD13E4AFB8813803D4A3D4B1B78DBB223F04003DBB2137069E0394A384B1B78DBB243F04003DBB21370344AFB8813805DE0FB7A002B33D0324B00221A70324BD0
:4013000001221A70314B00221A70314A304B1B78DBB203F07F03DBB21370294B1B78DBB203F00803002B02D0FB88002B18D1294ABB891380234B07221A7000BF214B1B78EE
:40134000DBB203F00103002BF8D11B4A1A4B1B78DBB223F00103DBB213701A4B00221A70154B1B78DBB203F00103002B13D0194AFB881380134A7B79002B01D0032300E082
:401380000123137000BF0F4B1B78DBB203F00103002BF8D10BE0094AFB8813800649064B1B78DAB2FB7A1343DBB20B70FFE700BF1037BD4680BD00BFA2430040804000406C
:4013C00082400040014000401040004014400040084000400240004080B400AF034B1B889BB21846BD4680BC704700BF8040004080B483B000AF0346FB710949084B1B7805
:40140000DBB25AB297F9073023F007035BB213435BB2DBB20B7000BF0C37BD4680BC70478240004080B400AF044B1B78DBB203F00703DBB21846BD4680BC7047824000408B
:4014400080B584B000AF03460A46FB8013467B7100F0CEF80346FB7300F0A4F80346BB81FA88BB899A4200F08880464B1B78DBB203F00103FB72FB7B002B20D1BB89002BCD
:4014800002D0FB88002B1AD1BB89002B0BD13E4AFB8813803D4A3D4B1B78DBB223F04003DBB2137069E0394A384B1B78DBB243F04003DBB21370344AFB8813805DE0FB7A08
:4014C000002B33D0324B00221A70324B01221A70314B00221A70314A304B1B78DBB203F07F03DBB21370294B1B78DBB203F00803002B02D0FB88002B18D1294ABB89138038
:40150000234B07221A7000BF214B1B78DBB203F00103002BF8D11B4A1A4B1B78DBB223F00103DBB213701A4B00221A70154B1B78DBB203F00103002B13D0194AFB88138034
:40154000134A7B79002B01D0032300E00123137000BF0F4B1B78DBB203F00103002BF8D10BE0094AFB8813800649064B1B78DAB2FB7A1343DBB20B70FFE700BF1037BD4678
:4015800080BD00BFA14300400041004002410040014000401440004010400040084000400240004080B400AF034B1B889BB21846BD4680BC704700BF0041004080B483B03C
:4015C00000AF0346FB710949084B1B78DBB25AB297F9073023F007035BB213435BB2DBB20B7000BF0C37BD4680BC70470241004080B400AF044B1B78DBB203F00703DBB203
:401600001846BD4680BC70470241004080B483B000AF134B7F221A70124B80221A707F23FB710CE0FB79DB0003F1804303F5F043FA79013AD2B21A70FB79013BFB71FB7934
:40164000002BEFD1FB79DB0003F1804303F5F04300221A7000BF0C37BD4680BC704700BFF180FF1FF080FF1F80B485B000AF03460A46FB711346BB710123FB60FB79172BF7
:401680002FD8BB79002B0ED0FB791A01184B1344FA791101164A0A441278D2B242F02002D2B21A700DE0FB791A01114B1344FA7911010F4A0A441278D2B222F02002D2B2D9
:4016C0001A70FB791A010A4B1344FA791101084A0A441278D2B242F00102D2B21A700023FB60FB6818461437BD4680BC704700BF1070004080B485B000AF03460A46FB7193
:401700001346BB710123FB60FB79172B1BD8FB791A01104B13441B78DBB223F00E03FB72FB791A010B4B1344BA795200D2B252B202F00E0251B297F90B200A4352B2D2B22C
:401740001A700023FB60FB6818461437BD4680BC704700BF1070004080B485B000AF0346FB710B46BB8013467B800123FB60BB8841F6FF72934202D14FF40053BB807B884D
:4017800041F6FF72934202D14FF400537B80FB79172B17D8FB79DB0003F1804303F5EC430433BB60BB68BA881A80FB79DB0003F1804303F5EC430633BB60BB687A881A80E5
:4017C0000023FB60FB6818461437BD4680BC704780B485B000AF03460A46FB711346BB710123FB60FB79172B07D8FB791A01064B1344BA795A720023FB60FB6818461437F3
:40180000BD4680BC704700BF1070004090B484B000AF0446084611461A462346FB710346BB710B467B7113463B710123FB60FB79172B34D8FB79DB0003F1804303F5EC43C3
:40184000BA7902F07F02D1B27A79D201D2B20A43D2B21A70FB79DB0003F1804303F5EC433A7E1201D1B23A7902F00F02D2B20A43D2B25A70FB79DB0003F1804303F5EC431D
:401880003A7F02F00F02D2B29A70FB79DB0003F1804303F5EC430022DA700023FB60FB6818461037BD4690BC704700BF80B582B000AFFF23FB7101F0F2F80346BB71104BAB
:4018C0001B78182B12D90F4B1B78FB710C4B1B78013BDAB20A4B1A70FB79DB0003F1804303F5F0431B78DAB2064B1A70BB79184601F0D9F8FB7918460837BD4680BD00BFAE
:40190000F080FF1FF180FF1F90B484B000AF0446084611461A462346FB710346BB800B46BB711346FB700123FB6097F90730002B23DBBB8823F47F6323F00F039BB2002B32
:401940001BD1FB79DB0003F1804303F5F043BB60BB68BA881A80FB79DB0003F1804303F5F043BA799A70FB79DB0003F1804303F5F043FA78DA700023FB60FB68184610374F
:40198000BD4690BC704700BF80B485B000AF0346FB710B46BB8013467B800123FB6097F90730002B17DBFB79DB0003F1804303F5F0430433BB60BB68BA881A80FB79DB0081
:4019C00003F1804303F5F0430633BB60BB687A881A800023FB60FB6818461437BD4680BC704700BF80B483B000AF0346FB7101BE00BF0C37BD4680BC704700BF80B582B00B
:401A000000AF786008E00C4B1B68184601F028F87B68A3F500437B607B68B3F5004FF2D8064B1B687A6802FB03F3184601F018F800BF0837BD4680BD0481FF1FFC80FF1F2E
:401A400080B582B000AF0346FB80FB88054A127802FB03F3184601F003F800BF0837BD4680BD00BF0081FF1F80B584B000AF03463960FB710F4B1B68FB60FB791F2B02D920
:401A80000020FFF7AFFFFB7903F01F0310339B00FA6813441B68BB60FB7903F01F0310339B00FA6813443A681A60BB6818461037BD4680BD08ED00E080B582B000AF03462C
:401AC0000A46FB711346BB71BB79072B02D90020FFF788FFFB791F2B02D90020FFF782FFFB7903F01F0303F1604303F56443BA795201D2B21A7000BF0837BD4680BD00BF47
:401B000080B500AF064B1B78002B04D100F00AF8034B01221A7000F025F800BF80BD00BF9881FF1F80B400AF094B72221A70094B20221A70084B06221A70084B47221A7031
:401B4000074B00221A7000BFBD4680BC704700BF896400408A6400402B6400403B6400408965004080B582B000AF00F098FF0346FB71114A104B1B78DBB243F02003DBB2B1
:401B800013700E4A0D4B1B78DBB243F01003DBB213700B4A0A4B1B78DBB243F01003DBB2137000F06DF8FB79184600F07CFF00BF0837BD4680BD00BF996400409A64004052
:401BC0009965004080B483B000AF0023FB710C4B1B78BB71BB7903F02003002B09D0094B1B78FB71BB7903F01E03002B01D00023FB71FB7918460C37BD4680BC704700BFAE
:401C00006A6400404965004080B483B000AF0346FB7100BF074B1B78DBB203F00403002BF8D1054AFB79137000BF0C37BD4680BC704700BF696500404964004080B584B05D
:401C400000AF78600023FB810C4B1B78002B10D009E0FB897A6813441B781846FFF7D4FFFB890133FB81FB897A6813441B78002BEFD100BF1037BD4680BD00BF9881FF1F3E
:401C800080B400AF094A094B1B78DBB243F00803DBB21370064A064B1B78DBB243F00803DBB2137000BFBD4680BC7047A2430040B243004080B500AF224A224B1B78DBB231
:401CC00003F00103DBB213701F4A1F4B1B78DBB223F00303DBB213701C4A1C4B1B78DBB223F03003DBB21370184A184B1B78DBB243F03003DBB21370144A144B1B78DBB246
:401D000023F00F03DBB21370104A104B1B78DBB243F00F03DBB213700D4A0D4B1B78DBB243F00103DBB2137040F2F31000F058F840F2F31000F066F8002000F041F800BF2E
:401D400080BD00BF004F0040024F00400B4F0040014F004080B400AF0D4A0D4B1B78DBB243F00103DBB213700A4A0A4B1B78DBB243F00103DBB21370074A074B1B78DBB251
:401D800043F00103DBB2137000BFBD4680BC7047A3430040B3430040004F004080B500AF064B1B78002B04D1FFF784FF034B01221A70FFF7CFFF00BF80BD00BF9A81FF1F48
:401DC00080B483B000AF0346FB71044AFB79137000BF0C37BD4680BC704700BF034F004080B485B000AF0346FB80FB88FB81044AFB89138000BF1437BD4680BC704700BF8B
:401E0000044F004080B483B000AF0346FB80044AFB88138000BF0C37BD4680BC704700BF064F004080B582B000AF786000F03CF8786800F009F8072000F018F800F028F86B
:401E400000BF0837BD4680BD80B485B000AF7860054B1B68FB60FB6840337A681A6000BF1437BD4680BC704708ED00E080B483B000AF0346FB71054AFB795B01DBB2137005
:401E800000BF0C37BD4680BC704700BF00E400E080B400AF034B01221A6000BFBD4680BC704700BF00E100E080B400AF034B01221A6000BFBD4680BC704700BF80E100E021
:401EC00080B500AF064B1B78002B04D100F00AF8034B01221A7000F045F800BF80BD00BF9B81FF1F80B582B000AF1C4B1B78DBB223F03F03FB71194AFB7943F00903DBB20A
:401F00001370174A164B1B78DBB243F00103DBB21370FF2000F036F8FF2000F051F87F2000F05EF83F2000F06BF8002000F078F800F0B5FD0346BB71094A094B1B78DBB26B
:401F400043F01003DBB21370BB79184600F0ABFD00F028F800BF0837BD4680BD7B6500409865004080B400AF054A054B1B78DBB263F07F03DBB2137000BFBD4680BC7047FA
:401F80007B65004080B483B000AF0346FB71044AFB79137000BF0C37BD4680BC704700BF0865004080B500AF01E000F055F800F047F8034603F01003002BF6D100BF80BD1F
:401FC00080B483B000AF0346FB71044AFB79137000BF0C37BD4680BC704700BF4865004080B483B000AF0346FB71044AFB79137000BF0C37BD4680BC704700BF2865004099
:4020000080B483B000AF0346FB71044AFB79137000BF0C37BD4680BC704700BF3865004080B483B000AF0346FB71044AFB79137000BF0C37BD4680BC704700BF8865004008
:4020400080B400AF034B1B78DBB21846BD4680BC704700BF6865004080B400AF034B1B78DBB21846BD4680BC704700BF5865004080B500AF064B1B78002B04D100F00AF8D4
:40208000034B01221A7000F045F800BF80BD00BF9C81FF1F80B582B000AF1C4B1B78DBB223F03F03FB71194AFB7943F00903DBB21370174A164B1B78DBB243F00103DBB2D8
:4020C0001370FF2000F036F8FF2000F051F87F2000F05EF83F2000F06BF8002000F078F800F0DDFC0346BB71094A094B1B78DBB243F01003DBB21370BB79184600F0D3FC05
:4021000000F028F800BF0837BD4680BD7B6400409B65004080B400AF054A054B1B78DBB263F07F03DBB2137000BFBD4680BC70477B64004080B483B000AF0346FB71044A7E
:40214000FB79137000BF0C37BD4680BC704700BF0B65004080B500AF01E000F055F800F047F8034603F01003002BF6D100BF80BD80B483B000AF0346FB71044AFB79137083
:4021800000BF0C37BD4680BC704700BF4B65004080B483B000AF0346FB71044AFB79137000BF0C37BD4680BC704700BF2B65004080B483B000AF0346FB71044AFB791370D1
:4021C00000BF0C37BD4680BC704700BF3B65004080B483B000AF0346FB71044AFB79137000BF0C37BD4680BC704700BF8B65004080B400AF034B1B78DBB21846BD4680BC63
:40220000704700BF6B65004080B400AF034B1B78DBB21846BD4680BC704700BF5B65004080B400AF094A094B1B78DBB243F00203DBB21370064A064B1B78DBB243F00203C9
:40224000DBB2137000BFBD4680BC7047A2430040B243004080B400AF094A094B1B78DBB223F00203DBB21370064A064B1B78DBB223F00203DBB2137000BFBD4680BC7047CF
:40228000A2430040B243004080B500AF012000F039F800BF80BD00BF80B400AF0D4A0D4B1B78DBB243F06003DBB213700A4A0A4B1B78DBB243F00803DBB21370074A074BD1
:4022C0001B78DBB243F00803DBB2137000BFBD4680BC704777580040A4430040B443004080B500AF064B1B78002B04D1044B01221A70FFF7C9FFFFF7CFFF00BF80BD00BF4D
:402300009D81FF1F80B483B000AF0346FB710C4A0B4B1B78DBB223F00303DBB213700849074B1B78DAB2FB7903F00303DBB21343DBB20B7000BF0C37BD4680BC704700BFD0
:402340005E58004080B500AF00F01CF9022000F051F9002000F06EF9FFF7A8FA03461A46084B1A70FFF7A2FA03461A46064B1A703221064800F03AF86421054800F06AF890
:4023800000BF80BDA181FF1FA281FF1F083400003C34000080B500AF00F012F9084B1B7801211846FFF760F9064B1B7801211846FFF75AF9002000F05DF900BF80BD00BF92
:4023C0009F81FF1FA081FF1F80B500AF064B1B78002B04D1FFF7B6FF034B01221A70FFF7D9FF00BF80BD00BF9E81FF1F80B582B000AF78600B467B807B681B0C9AB24FF459
:4024000080430121012000F059F803461A460F4B1A700F4B18780E4B1A7879880123FFF773FA0B4B1B787A6891B245F683321846FFF7AAFA054B1A78054B1B7819461046FB
:40244000FFF7C6F900BF0837BD4680BD9F81FF1FA181FF1F80B582B000AF78600B467B807B681B0C9AB24FF480430121012000F057F803461A460F4B1A700F4B18780E4B03
:402480001A7879880123FFF73FFA0B4B1B787A6891B245F683321846FFF776FA054B1A78054B1B7819461046FFF792F900BF0837BD4680BDA081FF1FA281FF1F90B585B041
:4024C00002AF0446084611461A462346FB710346BB710B46BB8013467B80104B00221A700E4B1878BA79F97900230193002300930023FFF78BF9094B1B787A88B98818468B
:40250000FFF72AF9054B1B7802211846FFF7F2F8024B1B7818460C37BD4690BD0881FF1F90B585B002AF0446084611461A462346FB710346BB710B46BB8013467B80104BC7
:4025400001221A700E4B1878BA79F97900230193002300930023FFF759F9094B1B787A88B9881846FFF7F8F8054B1B7802211846FFF7C0F8024B1B7818460C37BD4690BDF7
:402580000981FF1F80B500AF0A4B00221A700A4B00221A70094A094B1B78DBB243F00803DBB21370002000F045F8022000F022F800BF80BD2C5800402D5800409F5A004041
:4025C00080B400AF094A094B1B78DBB243F00803DBB21370064A064B1B78DBB243F00803DBB2137000BFBD4680BC7047A8430040B843004080B483B000AF0346FB710C4A98
:402600000B4B1B78DBB223F00203DBB213700849074B1B78DAB2FB7903F00203DBB21343DBB20B7000BF0C37BD4680BC704700BF2C58004080B582B000AF0346FB710C4A47
:402640000B4B1B78DBB223F00C03DBB213700849074B1B78DAB2FB7903F00C03DBB21343DBB20B7000F016F800BF0837BD4680BD2C58004080B483B000AF0346FB71044A76
:40268000FB79137000BF0C37BD4680BC704700BF835B004080B483B000AF0B4B1B78DBB203F00C039B08DBB20633FB71074AFB7903F1924303F59C731B78DBB2137000BFF4
:4026C0000C37BD4680BC70472C5800400B46004080B500AF00F01CF9022000F051F9002000F06EF9FFF7E2F803461A46084B1A70FFF7DCF803461A46064B1A70502106482D
:4027000000F03AF86421054800F06AF800BF80BDA681FF1FA781FF1FA0340000F034000080B500AF00F012F9084B1B7801211846FEF79AFF064B1B7801211846FEF794FF15
:40274000002000F05DF900BF80BD00BFA481FF1FA581FF1F80B500AF064B1B78002B04D1FFF7B6FF034B01221A70FFF7D9FF00BF80BD00BFA381FF1F80B582B000AF78608A
:402780000B467B807B681B0C9AB24FF480430121012000F059F803461A460F4B1A700F4B18780E4B1A7879880123FFF7ADF80B4B1B787A6891B245F682321846FFF7E4F89E
:4027C000054B1A78054B1B7819461046FFF700F800BF0837BD4680BDA481FF1FA681FF1F80B582B000AF78600B467B807B681B0C9AB24FF480430121012000F057F803464A
:402800001A460F4B1A700F4B18780E4B1A7879880123FFF779F80B4B1B787A6891B245F682321846FFF7B0F8054B1A78054B1B7819461046FEF7CCFF00BF0837BD4680BD82
:40284000A581FF1FA781FF1F90B585B002AF0446084611461A462346FB710346BB710B46BB8013467B80104B02221A700E4B1878BA79F97900230193002300930023FEF70E
:40288000C5FF094B1B787A88B9881846FEF764FF054B1B7802211846FEF72CFF024B1B7818460C37BD4690BD0A81FF1F90B585B002AF0446084611461A462346FB710346DE
:4028C000BB710B46BB8013467B80104B03221A700E4B1878BA79F97900230193002300930023FEF793FF094B1B787A88B9881846FEF732FF054B1B7802211846FEF7FAFE1E
:40290000024B1B7818460C37BD4690BD0B81FF1F80B500AF0A4B00221A700A4B00221A70094A094B1B78DBB243F00803DBB21370002000F045F8022000F022F800BF80BDAC
:402940002858004029580040975A004080B400AF094A094B1B78DBB243F00403DBB21370064A064B1B78DBB243F00403DBB2137000BFBD4680BC7047A8430040B84300408B
:4029800080B483B000AF0346FB710C4A0B4B1B78DBB223F00203DBB213700849074B1B78DAB2FB7903F00203DBB21343DBB20B7000BF0C37BD4680BC704700BF28580040C8
:4029C00080B582B000AF0346FB710C4A0B4B1B78DBB223F00C03DBB213700849074B1B78DAB2FB7903F00C03DBB21343DBB20B7000F016F800BF0837BD4680BD28580040EF
:402A000080B483B000AF0346FB71044AFB79137000BF0C37BD4680BC704700BF825B004080B483B000AF0B4B1B78DBB203F00C039B08DBB20633FB71074AFB7903F19243C1
:402A400003F594731B78DBB2137000BF0C37BD4680BC7047285800400A46004000000000142816D902B4012114381049097811F0C001890904B40E4A515C04BC00BF00BFF4
:402A800000BF8841FDD500BF00BF02BC704700BF00BF70F10400FCD570470B050709EFF3108072B6704780F310887047004800409A2A0000014B1868704700BF6C81FF1F92
:402AC0000E4B70B51E460E4C0025E41AA410A54204D056F8253098470135F8E700F056FD084B094C1E46E41AA4100025A54204D056F8253098470135F8E770BD98350000FF
:402B00009835000098350000A035000010B5431E0A44914204D011F8014B03F8014FF8E710BD03460244934202D003F8011BFAE7704700000EB400B54FF402719CB0ADF8BC
:402B400014106FF00041049107914FF6FF711DAB02900690084853F8042BADF81610006802A9019300F064F8029B00221A701CB05DF804EB03B070476C81FF1F2DE9F0471C
:402B80008E6882469E420C46914698463ED88A8912F4906F3AD02568096902236F1A656905EB450595FBF3F57B1C43449D4238BF1D4653050FD5294600F040FB064698B149
:402BC0003A462169FFF7A2FFA38923F4906343F08003A38113E02A4600F08EFB064670B92169504600F0DEFA0C23CAF80030A3894FF0FF3043F04003A381BDE8F0872661F3
:402C00003E44266046466561ED1BA560464528BF464649463246206800F0A8FAA36800209B1BA36023681E442660BDE8F08700002DE9F04F9DB003938B8980461C060D4614
:402C400016460DD50B695BB9402100F0F7FA2860286118B90C23C8F80030CDE040236B610023099320238DF82930DFF89CB130238DF82A3037463C4614F8013B1BB9B7EB7C
:402C8000060910D003E0252BF9D02746F3E74B46324629464046FFF771FF013000F0A780099B4B4409933B78002B00F0A08000234FF0FF3204930793059206938DF853307D
:402CC0001A930126052221784E4800F041FA671C049B38B14B4A3C46801A06FA00F018430490EFE7D90644BF20228DF853201A0744BF2B228DF8532022782A2A03D0079A27
:402D000000210A200BE0039A111D12680391002A10DA524243F00200079204900BE027463B780134303B092B03D800FB02320121F5E701B107923B782E2B1ED17B782A2B05
:402D40000AD1039B02371A1D1B680392002BB8BF4FF0FF33059310E0002319460593781C0A2407463A780130303A092A03D804FB01210123F5E703B1059103223978224888
:402D800000F0E6F940B14023CBEB000003FA00F0049B013718430490397806221B487E1C8DF8281000F0D4F988B1194B33B9039B073323F007030833039314E003AB0093B3
:402DC0002A46144B04A94046AFF3008007E003AB00932A460F4B04A9404600F093F8B0F1FF3F824603D0099B5344099342E7AB895B0601D4099801E04FF0FF301DB0BDE8C9
:402E0000F08F00BF563500005C35000060350000000000007D2B00002DE9F04791461F460A698B6806469342B8BF1346C9F8003091F843200C46DDF8208012B10133C9F8BF
:402E400000302368990642BFD9F800300233C9F80030256815F0060510D104F1190A07E00123524639463046C04701301AD00135E368D9F800209B1A9D42F1DB94F84330AF
:402E80002268003318BF012392060FD5E118302081F843005A1C94F845102244023382F8431003E04FF0FF30BDE8F08704F1430239463046C0470130F4D02268D9F80050D7
:402EC000E36802F00602042A08BF5D1B2269A3680CBF25EAE57500259342C4BF9B1AED184FF000091A344D4509D00123224639463046C0470130D5D009F10109F3E70020C2
:402F0000BDE8F0872DE9F04317460A7E85B06E2A984606460C460C9B01F1430E00F0AE8011D8632A22D009D8002A00F0BB80582A40F0CA8081F84520834955E0642A1ED001
:402F4000692A1CD0C0E0732A00F0B08009D86F2A2ED0702A40F0B8800A6842F020020A603EE0752A24D0782A3AD0ADE01A6801F14205111D1960136884F84230A8E0216805
:402F80001A6811F0800F02D0111D196008E011F0400F02F10401196002D0B2F9003000E01368002B3CDA2D225B4284F8432037E021681A6811F0800F02D0111D196007E0B7
:402FC00011F0400F02F10401196001D0138800E01368227E5C496F2A14BF0A2208221BE078225A4984F845202268186812F0800F00F104051D6003D1550601D5038800E0A7
:403000000368D00744BF42F0200222601BB9226822F0200222601022002084F8430001E049490A226568002DA56008DB206820F0040020602BB9002D7DD175460CE0002B82
:4030400079D07546B3FBF2F002FB1033CB5C05F8013D03460028F5D1082A0BD12368DA0708D5236962689A42DEBF302305F8013C05F1FF35C5EB0E0323612EE008681A68C1
:4030800010F0800F496903D0101D1860136808E010F0400F02F104001860136801D0198000E0196000232361754616E01A68111D1960156800216268284600F049F808B1B7
:4030C000401B6060636804E004F1420584F8422001232361002384F84330CDF800803B4603AA21463046FFF797FE013002D14FF0FF3026E023692A4639463046C0470130B6
:40310000F5D023689B0710D5002504F1190907E001234A4639463046C0470130E7D00135E368039A9B1A9D42F2DBE068039B9842B8BF184605E00B7804F1420584F8423057
:403140008AE705B0BDE8F083673500007835000010B5C9B202449042034605D01C7801308C42F8D1184610BD002010BD884210B501EB020301D8421E0BE09842FBD28118FA
:40318000D21AD34204D013F8014D01F8014DF8E710BD994204D011F8014B02F8014FF8E710BD000038B50546002944D051F8043C0C1F002BB8BFE41800F0D4F81E4A13688E
:4031C000114613B96360146030E0A3420DD92268A018834201BF18685B681218226063600C6023E0A24203D813465A68002AF9D118681918A1420BD1216801445818824272
:40320000196013D110685268014419605A600DE002D90C232B6009E021686018824201BF106852680918216062605C602846BDE8384000F098B838BDAC81FF1F70B5CD1C2C
:4032400025F0030508350C2D38BF0C25002D064601DBA94202D90C23336046E000F082F8234B1C681A462146A1B10B685B1B0ED40B2B03D90B60CC18CD501EE08C420BBF3C
:4032800063684B681360636018BF0C4615E00C464968E9E7174C23681BB9304600F052F820602946304600F04DF8431C18D0C41C24F00304A0420DD12560304600F053F825
:4032C00004F10B00231D20F00700C31A0ED05A42E25070BD211A304600F034F80130EBD10C233360304600F03EF8002070BD00BFAC81FF1FA881FF1FF8B5074615460E4662
:4033000021B91146BDE8F840FFF798BF1AB9FFF749FF2846F8BD00F027F885420ED929463846FFF78BFF044650B131462A46FFF7EDFB31463846FFF735FF01E03046F8BD99
:403340002046F8BD38B5064C0023054608462360FDF730FB431C02D1236803B12B6038BDCC81FF1F7047704751F8040C0028BEBF091851F8043CC018043870470000000058
:4033800025580D0A0000000025780D0A00000000434F4D20506F7274204F70656E0D0A00636F6C5F6469763A2025640D0A000000726F775F6469763A2025640D0A0000008A
:4033C000035B00402443004040000000004F00400C00005100401000205100401000405100403000F0510040100000000140001000140140000800400140000A004C0140F3
:403400000002005001402000808F9FAEBCC9D5E0E9F1F6FAFCFCFAF6F1E9E0D5C9BCAE9F8F8070605143362A1F160E0905030305090E161F2A3643516070000080848A8FD4
:4034400094989EA2A8ACB2B6BCC0C6CAD0D5DADEE4E8EEF2F8FCF8F2EEE8E4DEDAD4D0CAC6C0BCB6B2ADA8A29E98948F8A84807A76706B66615D58534E49443E39342F2A50
:4034800025211C17120D0803080D12171C21252A2F34393E44494E53585D61666B70767A8089939DA6AFB8C1C9D1D8DFE5EAEFF3F6F9FBFCFCFCFBF9F6F3EFEAE5DFD8D146
:4034C000C9C1B8AFA69D938980766C625950473E362E27201A15100C0906040303030406090C10151A20272E363E475059626C7680848A8F94989EA2A8ACB2B6BCC0C6CAAC
:40350000D0D5DADEE4E8EEF2F8FCF8F2EEE8E4DEDAD4D0CAC6C0BCB6B2ADA8A29E98948F8A84807A76706B66615D58534E49443E39342F2A25211C17120D0803080D1217E2
:403540001C21252A2F34393E44494E53585D61666B70767A4300232D302B2000686C4C00656667454647003031323334353637383941424344454600303132333435363700
:40358000383961626364656600000000F8B500BFF8BC08BC9E4670474D0000009D0A0000F8B500BFF8BC08BC9E46704729000000C0350000C880FF1FA800000060000000C7
:4035C000000000003132334134353642373839432A30234400000000D6C2AF9EC6B3A192D081FF1F01FF0000807F00000F00000000366E01C05D0000180000000000E02E71
:40360000FFFFFFFF00000000000000000000000000000000000000000000000000000000000000005435000000000000000000000000000000000000000000000000000005
:403640000000000000000000000000000000000000000000000000000000000000000000000000000C81FF1F0000000000000000000000000000000000000000000000009F
:40368000000000000000000000000000000000000000000000000000000000000000000000000000000000000000000000000000000000000000000000000000000000000A
:4036C00000000000000000000000000000000000000000000000000000000000000000000000000000000000000000000000000000000000000000000000000000000000CA
:403700000000000000000000000000000000000000000000000000000000000000000000000000000000000000000000000000000000000000000000000000000000000089
:403740000000000000000000000000000000000000000000000000000000000000000000000000000000000000000000000000000000000000000000000000000000000049
:020000040003F7
:0200000480007A
:40000000024F004001520040025A0040026400400365004002010140020301400404014003050140010701404608014042090140590A01403A0B0140010D0140010F014068
:40004000011501405E1801403F1901404C1A0140471B014005400140054101400842014003430140054401400145014005460140064701400248014001490140024C0140A0
:40008000064D0140085001400251014001200A4B644097019F0189728A38880F890F8B0F8210E0019610E20438083E0458045F011A1082109610E2080B010E0113022201CB
:4000C00027012A023001320233013702580459045C115F01800981088206850C89048C078E088F40914C92099323940695039609980F997F9F33A004A141A402A54FA7103D
:40010000A806A902AD73AF0CB007B17CB30FB40EBA20BB0AC014C102C50BC60CC70EC815C9FFCAFFCBFFCEF0CF44D00CD602D712D804D904DA04DB04DC33DD33DF01E6C0B5
:40014000EA40EB020242060108180A84108013141608170119101A401B101E101F032101220A2504271129202A402B902E082F20301031483242350238283A023B403E2009
:40018000408241104904528053045A086008611069547094720273148301870290809120922C94049502964298C299029D149F10A410A688B410C089C20EC45ECA4FCC8F82
:4001C000CE2FD00DD602E40401400A100B200C0C0E030F15121013281540160819401D031E031F04200121032206231C24012540260E29032B342D2A2E0C2F14300F33408A
:4002000035383610370F3A223BA03E403F045418580459045B045C335D305F018024824083018450850188408C438D048E309101920C9C729D029E08A201A433A644B07C90
:40024000B103B203B304B808B902BE04BF04C003C704C9FFCA07CBFFCC40CD20CEF0CF05D008D280D804D904DA04DB04DC33DD13DF01E040E1A8E240E32000600504060422
:400280000742088009040A400B200E800F021202130614C01660170818C019401A041B111C801D081E8021102214230E24202602274029012A202B113110328A3442350118
:4002C000370239023A403B203C803F064508550456445A026004614075029F10C0F3C29DC43DCA0FCC9FCEDDD040D601D80C8310E001EC100001060409010A0827012A0433
:400300002E03300231013201340436083E104030410245D046104752483A49FF4AFF4BFF4DA04F0450185407580459045A045B045C115D115F01604062C06440654066C038
:4003400068C06AC06CC06EC0851C891C8F0295049738980199029F02A302A508A745A910AB44AD02B101B201B31CB502B760BE04BF50C065C102C204C401C50CC70EC81163
:40038000C9FFCAFFCBFFCC62CDA0CEF0CF41D00CD401D804D904DA04DB04DC30DD33DF01E640E702E910EA30EB10ED10EE10EF120501062407200B0C160A19041D011E2A2C
:4003C0002009210823402440286229202F2031083290388039143E10400142444628481149404A084F015104560A5720588159145C405E285F019080915492749308940499
:4004000096029740984A9A409B019D609E21A28AA410A508A7A0A904B248C070C202C4C0CA4FCC0ECE2ED06DD20CD6FFE8040001020204020504060109040D041303150314
:400440001604180419031F03200421012403250228032B032D032E0431033204340337043808580459045C335F01830586018A04910196029C04A202A302A601B101B20436
:40048000B302B401B602B704BE50C040C106C5D0C620C715C83AC9FFCAFFCBFFCDA0CF04D018D280D407D804D904DA04DB04DC11DD11DF01E040E2C0E440E540E6C0E8C0F7
:4004C000EAC0ECC0EEC003A00504060408180A040E020F20111412421508170119241B201C041E201F402002218022012440272228082A402BA02D02301031883202370265
:4005000039543F0247014F21560557115C405E205F09750288208BC8915C92049404960298089A409B019C209D209E059F20A108A203A401A780A910AA80AC01AF04B08449
:40054000C06CC2A6C43FCA8FCC8FCE8ED080D220D6F0EC1030403C043F10CC10CEA08004940497109C40E22010406301830197109C40C410D640E28087109710E21071013D
:400580007C018001DC01DE019D01312045089D01CC08D00133808380A528B501CC08EC022510C820B510A508A92010408840B508C408E201EC08000A01010C0A0D01100AED
:4005C00011011C0A1D01000310220000800040808000800000000000000B0B000000000095001801000000000000000000000000000000000000000000000000000000006C
:4006000000000000000000000000000000000000000000000000000000000000000000000000000000000000000000000000000000000000000000000000000000000000BA
:40064000000000000000000000000000000000000000000000000000000000000000000000000000000000000000000000000000000000000000000000000000000000007A
:40068000000000000000000000000000000000000000000000000000000000000000000000000000000000000000000000000000000000000000000000000000000000003A
:4006C00000000000000000000000000000000000000000000000000000000000000000000000000000000000000000000000000000000000000000000000000000000000FA
:0200000490006A
:0400000000004005B7
:0200000490105A
:04000000BC90ACAF55
:0200000490303A
:0200000012CF1D
:0200000490402A
:4000000000000000000000000000000000000000000000000000000000000000000000000000000000000000000000000000000000000000000000000000000000000000C0
:400040000000000000000000000000000000000000000000000000000000000000000000000000000000000000000000000000000000000000000000000000000000000080
:400080000000000000000000000000000000000000000000000000000000000000000000000000000000000000000000000000000000000000000000000000000000000040
:4000C0000000000000000000000000000000000000000000000000000000000000000000000000000000000000000000000000000000000000000000000000000000000000
:0200000490501A
:0C00000000012E16106900012E2C233880
:00000001FF