:400000000080002011000000010600000106000080B500AF024A034B1B68136000F022FBBC760040FA46004010B5054C237833B9044B13B10448AFF300800123237010BDEC
:400040007081FF1F000000001C220000084B10B51BB108490848AFF300800848036803B910BD074B002BFBD0BDE81040184700BF000000007481FF1F1C220000C880FF1F36
:400080000000000080B582B000AF00F08FFD01F031F800F065FE00F03BFF01F0ABFA01F0E3F801F06DF8134800F01EFE00F0E0FD0346FB71FB792A2B09D02A2B04DC002B74
:4000C00013D0232B03D012E0303B092B0FD8FB1D1A460949094801F07DFC084800F004FEFB1D184600F00CF802E000BFDEE700BFDCE700BF2022000030220000A481FF1FD5
:4001000080B584B000AF78600023FB730CE0FB7B7A6813441B78184600F010F8412000F023FDFB7B0133FB73FB7B7A6813441B78002BECD100BF1037BD4680BD80B584B058
:4001400000AF0346FB71FB791946194800F038F80346FB7397F90F30002B22DBFB7B03F00303144AD35CBB7397F90F309B105BB2DBB203F00303104AD35C7B737B7B184617
:4001800000F06EFEBB7B184600F042FF00F098FF502000F0E9FC00F0ADFF084800F0A4FD02E0642000F0E0FC00BF1037BD4680BDCC80FF1FE480FF1FE080FF1F442200008D
:4001C00080B485B000AF78600B46FB70FF23BB730023FB7310E097F90F307A6813441B78FA789A4202D1FB7BBB730CE097F90F30DBB20133DBB2FB7397F90F307A681344A3
:400200001B78002BE7D197F90E3018461437BD4680BC704780B582B000AF786039603A680021786801F0CDFB00BF0837BD4680BD80B584B000AFF860B9607A607A68B96854
:40024000F86801F0B3FB00BF1037BD4680BD00BF80B483B000AF0346FB71FEE780B487B000AF7860396000233B6100237B6127E07B699B007A6813441B68BB60BB68FB7393
:40028000BB6823F0FF03BB6014E03B695B003A6813441B781A46BB68134419463B695B003A6813445B780B703B6901333B61FB7B013BFB73FB7B002BE7D17B6901337B610C
:4002C0007B69172BD4D900BF1C37BD4680BC704780B582B000AF334B01221A80324B18221A70324B19221A80314B18221A70314B02221A704FF0402308221A702E4B0322E1
:400300001A702E4B2E4A1278D2B21A702D4B08221A802D4B41F251221A800023FB7019237B6014E0FB785B00DAB2284B1B78DBB203F00103DBB21343DBB203F00303FB7065
:400340004FF4F07001F0DCFA7B68013B7B607B68002B02D0FB78032BE4D17B68002B02D10320FFF775FF1A4B4FF480721A80184B07221A70174B00221A70174B48221A70C7
:40038000134B00221A70154B02221A70144A144B1B78DBB243F00303DBB2137000BF0837BD4680BD804000408240004084400040864000400043004000420040A146004089
:4003C0000801004922420040204200402542004004400040064000400840004001400040A243004080B483B000AF114B1B78FB71104AFB7903F00703DBB213700E4AFB796E
:400400001B09DBB213700D4B10221A700C4B10221A700C4B40F201121A800B4B10221A700A4B44221A7000BF0C37BD4680BC7047CF0100496E5800406F580040905A00408C
:40044000985A0040445B0040585B00407658004080B586B000AF72B6534A534B1B78DBB243F00403DBB213700023FB7513E0FA7D13465B0013445B004C4A13443B613B69F3
:400480001A683B699B889BB219461046FFF7C2FEFB7D0133FB75FB7D072BE8D90023FB751CE0FA7D13469B0013445B00404A1344FB60FB681B68BB60FB685B687B60FB6867
:4004C0001A7A5B7A1B0213437B807B881A467968B868FFF7ADFEFB7D0133FB75FB7D012BDFD934494FF09040FFF7B8FE04213248FFF790FE04213148FFF78CFE0421304892
:40050000FFF788FE04212F48FFF784FE2E4A2E4B1B78DBB243F00203DBB213702B4A2B4B1B78DBB243F00203DBB21370284A284B1B78DBB243F04003DBB21370254A254B15
:400540001B78DBB243F01003DBB21370082222492248FFF76DFE0A2221492248FFF768FE082221492148FFF763FE214A204B1B78DBB243F00803DBB213701E4B60221A703C
:40058000FFF7A6FE1B4B80221A701B4B01221A70FFF728FF0E220E491848FFF749FE00BF1837BD4680BD00BFE8460040542200008422000060000048007600400876004008
:4005C00010760040187600400350014013500140A0430040C2430040480500480251004050050048C05100405C05004812510040224300400048004004000840B0430040B9
:4006000080B500AF01F0A6F903461B680C2B00D1FEE7FEE780B584B000AF78600F4B1A687B6813441A460E4BD31A802B09DC0B4B1B68FB60094B1A687B681344074A136064
:4006400007E001F087F902460C2313604FF0FF33FB60FB6818461037BD4680BDE880FF1FB881FF1F80B586B000AF224B7B61224B3B61204B7B6135E03B691B68FB603B6959
:400680005B68BB603B699B683B6000237B600CE0FB681A68BB681A60BB680433BB60FB680433FB607B6804337B607A683B689A42EED13B69DB683B6000237B6008E0BB68A4
:4006C00000221A60BB680433BB607B6804337B607A683B689A42F2D13B6910333B617B69013B7B617B69002BC6D101F039F9FFF7C9FCFEE701000000DC23000080B582B081
:4007000000AF194B194A1A60194A194B1B6843F40073136000237B600FE07B68032B04D8144A7B6852F8233000E0134B13497A6841F822307B6801337B607B682F2BECD9AF
:400740000F4B1B78DAB20F4B1A700F4B0B4A1A60FFF77EFE00F01CF80C4B00221A6000BF0837BD4680BD00BF0CED00E00004FA0514ED00E000000000010600000080FF1F2B
:40078000BC760040C480FF1F08ED00E0C080FF1F80B483B000AF134B7F221A70124B80221A707F23FB710CE0FB79DB0003F1804303F5F043FA79013AD2B21A70FB79013B73
:4007C000FB71FB79002BEFD1FB79DB0003F1804303F5F04300221A7000BF0C37BD4680BC704700BFED80FF1FEC80FF1F80B485B000AF03460A46FB711346BB710123FB6064
:40080000FB79172B2FD8BB79002B0ED0FB791A01184B1344FA791101164A0A441278D2B242F02002D2B21A700DE0FB791A01114B1344FA7911010F4A0A441278D2B222F057
:400840002002D2B21A70FB791A010A4B1344FA791101084A0A441278D2B242F00102D2B21A700023FB60FB6818461437BD4680BC704700BF1070004080B485B000AF034637
:400880000A46FB711346BB710123FB60FB79172B1BD8FB791A01104B13441B78DBB223F00E03FB72FB791A010B4B1344BA795200D2B252B202F00E0251B297F90B200A4387
:4008C00052B2D2B21A700023FB60FB6818461437BD4680BC704700BF1070004080B485B000AF0346FB710B46BB8013467B800123FB60BB8841F6FF72934202D14FF4005392
:40090000BB807B8841F6FF72934202D14FF400537B80FB79172B17D8FB79DB0003F1804303F5EC430433BB60BB68BA881A80FB79DB0003F1804303F5EC430633BB60BB68D1
:400940007A881A800023FB60FB6818461437BD4680BC704780B485B000AF03460A46FB711346BB710123FB60FB79172B07D8FB791A01064B1344BA795A720023FB60FB688E
:4009800018461437BD4680BC704700BF1070004090B484B000AF0446084611461A462346FB710346BB710B467B7113463B710123FB60FB79172B34D8FB79DB0003F18043D0
:4009C00003F5EC43BA7902F07F02D1B27A79D201D2B20A43D2B21A70FB79DB0003F1804303F5EC433A7E1201D1B23A7902F00F02D2B20A43D2B25A70FB79DB0003F18043AC
:400A000003F5EC433A7F02F00F02D2B29A70FB79DB0003F1804303F5EC430022DA700023FB60FB6818461037BD4690BC704700BF80B582B000AFFF23FB7100F080FF034605
:400A4000BB71104B1B78182B12D90F4B1B78FB710C4B1B78013BDAB20A4B1A70FB79DB0003F1804303F5F0431B78DAB2064B1A70BB79184600F067FFFB7918460837BD461D
:400A800080BD00BFEC80FF1FED80FF1F90B484B000AF0446084611461A462346FB710346BB800B46BB711346FB700123FB6097F90730002B23DBBB8823F47F6323F00F0345
:400AC0009BB2002B1BD1FB79DB0003F1804303F5F043BB60BB68BA881A80FB79DB0003F1804303F5F043BA799A70FB79DB0003F1804303F5F043FA78DA700023FB60FB680B
:400B000018461037BD4690BC704700BF80B485B000AF0346FB710B46BB8013467B800123FB6097F90730002B17DBFB79DB0003F1804303F5F0430433BB60BB68BA881A80B9
:400B4000FB79DB0003F1804303F5F0430633BB60BB687A881A800023FB60FB6818461437BD4680BC704700BF80B582B000AF786008E00C4B1B68184600F0C2FE7B68A3F5B9
:400B800000437B607B68B3F5004FF2D8064B1B687A6802FB03F3184600F0B2FE00BF0837BD4680BD0081FF1FF880FF1F80B500AF064B1B78002B04D100F00AF8034B01222E
:400BC0001A7000F025F800BF80BD00BF8C81FF1F80B400AF094B72221A70094B20221A70084B06221A70084B47221A70074B00221A7000BFBD4680BC704700BF8964004019
:400C0000896500402A6400403A6400408865004080B582B000AF00F092FE0346FB71114A104B1B78DBB243F02003DBB213700E4A0D4B1B78DBB243F01003DBB213700B4AAB
:400C40000A4B1B78DBB243F01003DBB2137000F06DF8FB79184600F076FE00BF0837BD4680BD00BF99640040996500409865004080B483B000AF0023FB710C4B1B78BB71AE
:400C8000BB7903F02003002B09D0094B1B78FB71BB7903F01E03002B01D00023FB71FB7918460C37BD4680BC704700BF696500404965004080B483B000AF0346FB7100BF70
:400CC000074B1B78DBB203F00403002BF8D1054AFB79137000BF0C37BD4680BC704700BF686500404964004080B584B000AF78600023FB810C4B1B78002B10D009E0FB89AC
:400D00007A6813441B781846FFF7D4FFFB890133FB81FB897A6813441B78002BEFD100BF1037BD4680BD00BF8C81FF1F80B400AF094A094B1B78DBB243F00203DBB213702F
:400D4000064A064B1B78DBB243F00203DBB2137000BFBD4680BC7047A2430040B243004080B500AF064B1B78002B04D100F00AF8034B01221A7000F045F800BF80BD00BFBE
:400D80008E81FF1F80B582B000AF1C4B1B78DBB223F03F03FB71194AFB7943F00903DBB21370174A164B1B78DBB243F00103DBB21370FF2000F036F8FF2000F051F80420A0
:400DC00000F05EF8042000F06BF8002000F078F800F0B5FD0346BB71094A094B1B78DBB243F01003DBB21370BB79184600F0ABFD00F028F800BF0837BD4680BD7B640040EB
:400E00009B64004080B400AF054A054B1B78DBB263F07F03DBB2137000BFBD4680BC70477B64004080B483B000AF0346FB71044AFB79137000BF0C37BD4680BC704700BF51
:400E40000B64004080B500AF01E000F055F800F047F8034603F01003002BF6D100BF80BD80B483B000AF0346FB71044AFB79137000BF0C37BD4680BC704700BF4B6400409F
:400E800080B483B000AF0346FB71044AFB79137000BF0C37BD4680BC704700BF2B64004080B483B000AF0346FB71044AFB79137000BF0C37BD4680BC704700BF3B640040F6
:400EC00080B483B000AF0346FB71044AFB79137000BF0C37BD4680BC704700BF8B64004080B400AF034B1B78DBB21846BD4680BC704700BF6B64004080B400AF034B1B78C5
:400F0000DBB21846BD4680BC704700BF5B64004080B500AF064B1B78002B04D100F00AF8034B01221A7000F045F800BF80BD00BF8F81FF1F80B582B000AF1C4B1B78DBB2AA
:400F400023F03F03FB71194AFB7943F00903DBB21370174A164B1B78DBB243F00103DBB21370FF2000F036F8FF2000F051F8042000F05EF8042000F06BF8002000F078F86B
:400F800000F0DDFC0346BB71094A094B1B78DBB243F01003DBB21370BB79184600F0D3FC00F028F800BF0837BD4680BD786400409B65004080B400AF054A054B1B78DBB239
:400FC00063F07F03DBB2137000BFBD4680BC70477864004080B483B000AF0346FB71044AFB79137000BF0C37BD4680BC704700BF0B65004080B500AF01E000F055F800F0D2
:4010000047F8034603F01003002BF6D100BF80BD80B483B000AF0346FB71044AFB79137000BF0C37BD4680BC704700BF4B65004080B483B000AF0346FB71044AFB7913706D
:4010400000BF0C37BD4680BC704700BF2B65004080B483B000AF0346FB71044AFB79137000BF0C37BD4680BC704700BF3B65004080B483B000AF0346FB71044AFB79137032
:4010800000BF0C37BD4680BC704700BF8B65004080B400AF034B1B78DBB21846BD4680BC704700BF6B65004080B400AF034B1B78DBB21846BD4680BC704700BF5B65004071
:4010C00080B400AF094A094B1B78DBB243F00103DBB21370064A064B1B78DBB243F00103DBB2137000BFBD4680BC7047A2430040B243004080B400AF094A094B1B78DBB23E
:4011000023F00103DBB21370064A064B1B78DBB223F00103DBB2137000BFBD4680BC7047A2430040B243004080B500AF032000F039F800BF80BD00BF80B400AF0D4A0D4B1C
:401140001B78DBB243F06003DBB213700A4A0A4B1B78DBB243F00403DBB21370074A074B1B78DBB243F00403DBB2137000BFBD4680BC704777580040A4430040B443004067
:4011800080B500AF064B1B78002B04D1044B01221A70FFF7C9FFFFF7CFFF00BF80BD00BF9081FF1F80B483B000AF0346FB710C4A0B4B1B78DBB223F00303DBB213700849EE
:4011C000074B1B78DAB2FB7903F00303DBB21343DBB20B7000BF0C37BD4680BC704700BF5C58004080B500AF00F01CF9022000F051F9042000F06EF9FFF71AFC03461A4606
:40120000084B1A70FFF714FC03461A46064B1A703221064800F03AF83221054800F06AF800BF80BD9481FF1F9581FF1F98220000CC22000080B500AF00F012F9084B1B78C2
:4012400001211846FFF7D2FA064B1B7801211846FFF7CCFA002000F05DF900BF80BD00BF9281FF1F9381FF1F80B500AF064B1B78002B04D1FFF7B6FF034B01221A70FFF724
:40128000D9FF00BF80BD00BF9181FF1F80B582B000AF78600B467B807B681B0C9AB24FF480430121012000F059F803461A460F4B1A700F4B18780E4B1A7879880123FFF7D4
:4012C000E5FB0B4B1B787A6891B245F682321846FFF71CFC054B1A78054B1B7819461046FFF738FB00BF0837BD4680BD9281FF1F9481FF1F80B582B000AF78600B467B8026
:401300007B681B0C9AB24FF480430121012000F057F803461A460F4B1A700F4B18780E4B1A7879880123FFF7B1FB0B4B1B787A6891B245F682321846FFF7E8FB054B1A7890
:40134000054B1B7819461046FFF704FB00BF0837BD4680BD9381FF1F9581FF1F90B585B002AF0446084611461A462346FB710346BB710B46BB8013467B80104B00221A7091
:401380000E4B1878BA79F97900230193002300930023FFF7FDFA094B1B787A88B9881846FFF79CFA054B1B7802211846FFF764FA024B1B7818460C37BD4690BD0481FF1FE2
:4013C00090B585B002AF0446084611461A462346FB710346BB710B46BB8013467B80104B01221A700E4B1878BA79F97900230193002300930023FFF7CBFA094B1B787A887F
:40140000B9881846FFF76AFA054B1B7802211846FFF732FA024B1B7818460C37BD4690BD0581FF1F80B500AF0A4B00221A700A4B00221A70094A094B1B78DBB243F00803CD
:40144000DBB21370002000F045F8022000F022F800BF80BD2858004029580040975A004080B400AF094A094B1B78DBB243F00403DBB21370064A064B1B78DBB243F0040346
:40148000DBB2137000BFBD4680BC7047A8430040B843004080B483B000AF0346FB710C4A0B4B1B78DBB223F00203DBB213700849074B1B78DAB2FB7903F00203DBB2134331
:4014C000DBB20B7000BF0C37BD4680BC704700BF2858004080B582B000AF0346FB710C4A0B4B1B78DBB223F00C03DBB213700849074B1B78DAB2FB7903F00C03DBB2134389
:40150000DBB20B7000F016F800BF0837BD4680BD2858004080B483B000AF0346FB71044AFB79137000BF0C37BD4680BC704700BF825B004080B483B000AF0B4B1B78DBB237
:4015400003F00C039B08DBB20633FB71074AFB7903F1924303F594731B78DBB2137000BF0C37BD4680BC7047285800400A46004080B500AF00F01CF9022000F051F90420B3
:4015800000F06EF9FFF754FA03461A46084B1A70FFF74EFA03461A46064B1A705021064800F03AF83221054800F06AF800BF80BD9981FF1F9A81FF1F002300005023000072
:4015C00080B500AF00F012F9084B1B7801211846FFF70CF9064B1B7801211846FFF706F9002000F05DF900BF80BD00BF9781FF1F9881FF1F80B500AF064B1B78002B04D1FC
:40160000FFF7B6FF034B01221A70FFF7D9FF00BF80BD00BF9681FF1F80B582B000AF78600B467B807B681B0C9AB24FF480430121012000F059F803461A460F4B1A700F4B45
:4016400018780E4B1A7879880123FFF71FFA0B4B1B787A6891B245F683321846FFF756FA054B1A78054B1B7819461046FFF772F900BF0837BD4680BD9781FF1F9981FF1F92
:4016800080B582B000AF78600B467B807B681B0C9AB24FF480430121012000F057F803461A460F4B1A700F4B18780E4B1A7879880123FFF7EBF90B4B1B787A6891B245F668
:4016C00083321846FFF722FA054B1A78054B1B7819461046FFF73EF900BF0837BD4680BD9881FF1F9A81FF1F90B585B002AF0446084611461A462346FB710346BB710B465B
:40170000BB8013467B80104B02221A700E4B1878BA79F97900230193002300930023FFF737F9094B1B787A88B9881846FFF7D6F8054B1B7802211846FFF79EF8024B1B78B1
:4017400018460C37BD4690BD0681FF1F90B585B002AF0446084611461A462346FB710346BB710B46BB8013467B80104B03221A700E4B1878BA79F97900230193002300932A
:401780000023FFF705F9094B1B787A88B9881846FFF7A4F8054B1B7802211846FFF76CF8024B1B7818460C37BD4690BD0781FF1F80B500AF0A4B00221A700A4B00221A70DD
:4017C000094A094B1B78DBB243F00803DBB21370002000F045F8022000F022F800BF80BD2C5800402D5800409F5A004080B400AF094A094B1B78DBB243F00803DBB21370A5
:40180000064A064B1B78DBB243F00803DBB2137000BFBD4680BC7047A8430040B843004080B483B000AF0346FB710C4A0B4B1B78DBB223F00203DBB213700849074B1B7889
:40184000DAB2FB7903F00203DBB21343DBB20B7000BF0C37BD4680BC704700BF2C58004080B582B000AF0346FB710C4A0B4B1B78DBB223F00C03DBB213700849074B1B780B
:40188000DAB2FB7903F00C03DBB21343DBB20B7000F016F800BF0837BD4680BD2C58004080B483B000AF0346FB71044AFB79137000BF0C37BD4680BC704700BF835B004056
:4018C00080B483B000AF0B4B1B78DBB203F00C039B08DBB20633FB71074AFB7903F1924303F59C731B78DBB2137000BF0C37BD4680BC70472C5800400B4600400000000000
:40190000142816D902B4012114381049097811F0C001890904B40E4A515C04BC00BF00BF00BF8841FDD500BF00BF02BC704700BF00BF70F10400FCD570470B050709EFF375
:40194000108072B6704780F310887047004800403A190000014B1868704700BF6881FF1F0E4B70B51E460E4C0025E41AA410A54204D056F8253098470135F8E700F01CFDA4
:40198000084B094C1E46E41AA4100025A54204D056F8253098470135F8E770BDC4230000C4230000C4230000CC23000010B5431E0A44914204D011F8014B03F8014FF8E787
:4019C00010BD03460244934202D003F8011BFAE7704700000EB400B54FF402719CB0ADF814106FF00041049107914FF6FF711DAB02900690084853F8042BADF81610006884
:401A000002A9019300F064F8029B00221A701CB05DF804EB03B070476881FF1F2DE9F0478E6882469E420C46914698463ED88A8912F4906F3AD02568096902236F1A6569AC
:401A400005EB450595FBF3F57B1C43449D4238BF1D4653050FD5294600F040FB064698B13A462169FFF7A2FFA38923F4906343F08003A38113E02A4600F08EFB064670B9F0
:401A80002169504600F0DEFA0C23CAF80030A3894FF0FF3043F04003A381BDE8F08726613E44266046466561ED1BA560464528BF464649463246206800F0A8FAA368002095
:401AC0009B1BA36023681E442660BDE8F08700002DE9F04F9DB003938B8980461C060D4616460DD50B695BB9402100F0F7FA2860286118B90C23C8F80030CDE040236B6132
:401B00000023099320238DF82930DFF89CB130238DF82A3037463C4614F8013B1BB9B7EB060910D003E0252BF9D02746F3E74B46324629464046FFF771FF013000F0A780D4
:401B4000099B4B4409933B78002B00F0A08000234FF0FF3204930793059206938DF853301A930126052221784E4800F041FA671C049B38B14B4A3C46801A06FA00F0184350
:401B80000490EFE7D90644BF20228DF853201A0744BF2B228DF8532022782A2A03D0079A00210A200BE0039A111D12680391002A10DA524243F00200079204900BE0274663
:401BC0003B780134303B092B03D800FB02320121F5E701B107923B782E2B1ED17B782A2B0AD1039B02371A1D1B680392002BB8BF4FF0FF33059310E0002319460593781C7E
:401C00000A2407463A780130303A092A03D804FB01210123F5E703B1059103223978224800F0E6F940B14023CBEB000003FA00F0049B013718430490397806221B487E1CC1
:401C40008DF8281000F0D4F988B1194B33B9039B073323F007030833039314E003AB00932A46144B04A94046AFF3008007E003AB00932A460F4B04A9404600F093F8B0F101
:401C8000FF3F824603D0099B5344099342E7AB895B0601D4099801E04FF0FF301DB0BDE8F08F00BF842300008A2300008E230000000000001D1A00002DE9F04791461F467C
:401CC0000A698B6806469342B8BF1346C9F8003091F843200C46DDF8208012B10133C9F800302368990642BFD9F800300233C9F80030256815F0060510D104F1190A07E032
:401D00000123524639463046C04701301AD00135E368D9F800209B1A9D42F1DB94F843302268003318BF012392060FD5E118302081F843005A1C94F845102244023382F85A
:401D4000431003E04FF0FF30BDE8F08704F1430239463046C0470130F4D02268D9F80050E36802F00602042A08BF5D1B2269A3680CBF25EAE57500259342C4BF9B1AED181A
:401D80004FF000091A344D4509D00123224639463046C0470130D5D009F10109F3E70020BDE8F0872DE9F04317460A7E85B06E2A984606460C460C9B01F1430E00F0AE802B
:401DC00011D8632A22D009D8002A00F0BB80582A40F0CA8081F84520834955E0642A1ED0692A1CD0C0E0732A00F0B08009D86F2A2ED0702A40F0B8800A6842F020020A6068
:401E00003EE0752A24D0782A3AD0ADE01A6801F14205111D1960136884F84230A8E021681A6811F0800F02D0111D196008E011F0400F02F10401196002D0B2F9003000E01B
:401E40001368002B3CDA2D225B4284F8432037E021681A6811F0800F02D0111D196007E011F0400F02F10401196001D0138800E01368227E5C496F2A14BF0A2208221BE03F
:401E800078225A4984F845202268186812F0800F00F104051D6003D1550601D5038800E00368D00744BF42F0200222601BB9226822F0200222601022002084F8430001E061
:401EC00049490A226568002DA56008DB206820F0040020602BB9002D7DD175460CE0002B79D07546B3FBF2F002FB1033CB5C05F8013D03460028F5D1082A0BD12368DA070E
:401F000008D5236962689A42DEBF302305F8013C05F1FF35C5EB0E0323612EE008681A6810F0800F496903D0101D1860136808E010F0400F02F104001860136801D019803A
:401F400000E0196000232361754616E01A68111D1960156800216268284600F049F808B1401B6060636804E004F1420584F8422001232361002384F84330CDF800803B4663
:401F800003AA21463046FFF797FE013002D14FF0FF3026E023692A4639463046C0470130F5D023689B0710D5002504F1190907E001234A4639463046C0470130E7D00135A3
:401FC000E368039A9B1A9D42F2DBE068039B9842B8BF184605E00B7804F1420584F842308AE705B0BDE8F08395230000A623000010B5C9B202449042034605D01C78013077
:402000008C42F8D1184610BD002010BD884210B501EB020301D8421E0BE09842FBD28118D21AD34204D013F8014D01F8014DF8E710BD994204D011F8014B02F8014FF8E7BF
:4020400010BD000038B50546002944D051F8043C0C1F002BB8BFE41800F0D4F81E4A1368114613B96360146030E0A3420DD92268A018834201BF18685B681218226063607F
:402080000C6023E0A24203D813465A68002AF9D118681918A1420BD12168014458188242196013D110685268014419605A600DE002D90C232B6009E021686018824201BF7A
:4020C000106852680918216062605C602846BDE8384000F098B838BDA081FF1F70B5CD1C25F0030508350C2D38BF0C25002D064601DBA94202D90C23336046E000F082F859
:40210000234B1C681A462146A1B10B685B1B0ED40B2B03D90B60CC18CD501EE08C420BBF63684B681360636018BF0C4615E00C464968E9E7174C23681BB9304600F052F89E
:4021400020602946304600F04DF8431C18D0C41C24F00304A0420DD12560304600F053F804F10B00231D20F00700C31A0ED05A42E25070BD211A304600F034F80130EBD1C6
:402180000C233360304600F03EF8002070BD00BFA081FF1F9C81FF1FF8B5074615460E4621B91146BDE8F840FFF798BF1AB9FFF749FF2846F8BD00F027F885420ED92946D7
:4021C0003846FFF78BFF044650B131462A46FFF7EDFB31463846FFF735FF01E03046F8BD2046F8BD38B5064C0023054608462360FEF710FA431C02D1236803B12B6038BD1D
:40220000B481FF1F7047704751F8040C0028BEBF091851F8043CC0180438704700000000434F4D20506F7274204F70656E0D0A004B657920707265737365643A2025730DBF
:402240000A00000053746F7020746F6E65200D0A00000000205100405000F0510040100000000140001000140140800400190140000300400140000A004C0140000200501E
:402280000140200060520040C0040048060080180140C80400488000808F9FAEBDCAD7E2EBF3F9FDFFFFFDF9F3EBE2D7CABDAE9F8F807060514235281D140C060200000267
:4022C000060C141D2835425160700000808A949EA8B2BDC7D1DBE6F0FAFAF0E6DBD1C7BDB2A89E948A80756B61574D42382E241A0F05050F1A242E38424D57616B750000F1
:40230000808A939DA7B0B9C2CAD2DAE0E7ECF1F5F9FBFDFFFFFFFDFBF9F5F1ECE7E0DAD2CAC2B9B0A79D938A80756C62584F463D352D251F18130E0A060402000000020420
:40234000060A0E13181F252D353D464F58626C75808A949EA8B2BDC7D1DBE6F0FAFAF0E6DBD1C7BDB2A89E948A80756B61574D42382E241A0F05050F1A242E38424D5761F7
:402380006B754300232D302B2000686C4C00656667454647003031323334353637383941424344454600303132333435363738396162636465660000F8B500BFF8BC08BC23
:4023C0009E4670474D000000FD060000F8B500BFF8BC08BC9E46704729000000F0230000C880FF1FA80000004800000000000000000000003132334134353642373839433E
:402400002A30234400000000D6C2AF9EC6B3A192B881FF1F807F00000F00000000366E01C05D0000180000000000E02EFFFFFFFF0000000000000000000000000000000001
:4024400000000000000000000000000000000000822300000000000000000000000000000000000000000000000000000000000000000000000000000000000000000000B7
:40248000000000000000000000000000000000000881FF1F000000000000000000000000000000000000000000000000000000000000000000000000000000000000000075
:4024C00000000000000000000000000000000000000000000000000000000000000000000000000000000000000000000000000000000000000000000000000000000000DC
:40250000000000000000000000000000000000000000000000000000000000000000000000000000000000000000000000000000000000000000000000000000000000009B
:40254000000000000000000000000000000000000000000000000000000000000000000000000000000000000000000000000000000000000000000000000000000000005B
:40258000000000000000000000000000000000000000000000000000000000000000000000000000000000000000000000000000000000000000000000000000000000001B
:020000040003F7
:0200000480007A
:40000000025A00400264004003650040010501404508014042090140600A0140360B0140011701401118014044190140511A0140401B014003400140024101400442014010
:4000400001430140034601400347014002480140024C0140074D0140085001400151014097019F0189728B0F880F89388B0FE601030121012E012F0230013302370152806F
:40008000580459045B045F018302840D850E860289018C038D088E0C9101950C9602980F990E9C0D9D0C9E029F02A008A102A30CA404A504A80CA910AD01B001B110B50115
:4000C000B60EB70EBAA0BE01BF01C025C104C50EC6B0C70CC819C9FFCAFFCBFFCEF0CF44D00CD602D713D804D904DA04DB04DC11DD11DF01E6C0EA40EB0200040201030233
:4001000008400A2610A8174019111A061B401D021F0120082250234026402730280229202A092E802F8030483110330134083504388439123F02400842404A014B04522413
:40014000590169146B0170E872087680874088048901924099209B429C089D049F10A050A201A301A502A660A720C005C207C48ECA9FCC0FCE8FD005D208D601E40204148B
:40018000070C0D110E200F0E100C12711410151116AC17061A031B081D0C1F1320DC2120222223032410264028092AD030E03330341F370F39083A023B804004450449FFDB
:4001C0004A074BFF4C404D204EF04F055008580459045A045C115D015F01604061A862406320840687018C0692019B029E02A004A101A601A702AA08B006B102B401B501E1
:40020000B608B802BE11C040C103C5D0C620C715C83AC9FFCAFFCBFFCDA0CF04D018D280D407D804D904DA04DB04DF01E040E2C0E440E540E6C0E8C0EAC0ECC0EEC0008077
:4002400002200480050408080A440C800D020E0210201208130216281702188019201A441E081F8220202184220823022501261029012FA0302031843710388039083E0806
:4002800043024502462048E049014F01562857015EA85F0177408101C0A5C29EC47ECAC1CC2ECE4AD0C1D6F0E401EE0103010C0118041E022A012F013101320134043602C9
:4002C0003E105401580459045B045D105F0100A007010A600C100F0612041312160819841A201E181F80200121082221250128282A022B422F013119328039163A803F021C
:400300004009411042044302480449104A804B8050405A025C025D805E085F10618062207E407F40911492C4930694049A049B229D04A0FCA341A501A7A2A901B002B104DA
:40034000C083C2CCC44ACA1FCC0FCE8FD00DD20CD6F1D80CEC0100440220050706C308DF09070E040F0810C7110112181306148015041701181C1AC21CC01F08201024086F
:400380002502270128182CDC2E0130D83107341F362037083A223F40580459045C115F018602900199049A02A201A706A801AB01AE01B001B104B302B402B701B802BE1037
:4003C000C020C103C5D2C610C705C81BC9FFCAFFCBFFCDA0CF04D018D407D804D904DA04DB04DC01DF01E040E2C0E440E540E6C0E8C0EAC0ECC0EEC0000A01800204072097
:4004000009080A460C100E400F0810A9140115201686180419801A441B021D011E08218322012440271128202F28310A3240371038803914441047204F09560857285C4040
:400440005E185F0188218A84908091349290940495029A029B209C209D019E889F01A0ACA108A580A722AC12C02FC25FC4DFCA62CC2BCE0ED060D6F03D023F20CEA0A50157
:40048000A7108310A501A710E680A50131808180CC0831808404CC08A901EE80A004A980104074048840A004C408DE04E201000301010C030D01100311011C031D01102296
:4004C0008080000040000000000300040030000000300800000015031300044013220C1800000003000000400A00140300110028030314000003000000030F300040100C2D
:4005000000000800000040504602050001E00C0006FFFFFF62A0F0410C00000018000000040404041111000100000000000040020010301000101012000000000000000098
:4005400000000000000000000000000000000100800040808000800000000000000B0B00000000000000000000000000000000000000000000000000000000000000000024
:40058000000000000000000000000000000000000000000000000000000000000000000000000000000000000000000000000000000000000000000000000000000000003B
:4005C00000000000000000000000000000000000000000000000000000000000000000000000000000000000000000000000000000000000000000000000000000000000FB
:4006000000000000000000000000000000000000000000000000000000000000000000000000000000000000000000000000000000000000000000000000000000000000BA
:40064000000000000000000000000000000000000000000000000000000000000000000000000000000000000000000000000000000000000000000000000000000000007A
:0200000490006A
:0400000000004005B7
:0200000490105A
:04000000BC90ACAF55
:0200000490303A
:0200000091A4C9
:0200000490402A
:4000000000000000000000000000000000000000000000000000000000000000000000000000000000000000000000000000000000000000000000000000000000000000C0
:400040000000000000000000000000000000000000000000000000000000000000000000000000000000000000000000000000000000000000000000000000000000000080
:400080000000000000000000000000000000000000000000000000000000000000000000000000000000000000000000000000000000000000000000000000000000000040
:4000C0000000000000000000000000000000000000000000000000000000000000000000000000000000000000000000000000000000000000000000000000000000000000
:0200000490501A
:0C00000000012E16106900012E25A20D33
:00000001FF