:400000000080002011000000610C0000610C000080B500AF024A034B1B68136000F052FEBC760040FA46004001000000002000400100000000200140010000000048004043
:400040000100000000480140010000000100000008000223000008760800032300001076080004230000287608000523000030760500062300002070050007230000307065
:4000800005000823000060700500FE230000707040000A22000030511000FE220000F05100020C220000000080000D220000800200020E220000800300020F22000000068D
:4000C000800110220000000A000411220000000C800112220000001400021322000000168000142200000041800015220000004380001622000000478000172200000049F8
:400100008000FE220000004C06001923000060520C001A230000004F08001B230000805A20001C23000070642000FE230000706508001E230000005180001F230000000280
:400140008000202300000008800021230000800880002223000000188000232300008018800024230000001A800025230000801A1000262300001050100027230000005087
:40018000800028230000004D800029230000804D80002A230000804C80002B230000804780002C230000004680002D230000804680002E230000004580002F230000804508
:4001C00080003023000000448000312300008044800032230000001B800033230000801B80003423000080158000352300000019800036230000801980003723000000093D
:400200008000382300008009800039230000800B80003A230000800580003B230000000380003C230000804980003D230000004880003E230000804880003F230000804392
:4002400080004023000000428000412300008042800042230000804180004323000000408000FE230000804010B5054C237833B9044B13B10448AFF300800123237010BDE4
:400280005881FF1F00000000A8330000084B10B51BB108490848AFF300800848036803B910BD074B002BFBD0BDE81040184700BF000000005C81FF1FA8330000C880FF1FEA
:4002C0000000000080B500AF1F4B1B78002B03D11E4B1B78002B1ED01D4B1B8801339AB21B4B1A801A4B1B88B3F5FA6F05D1174B00221A70164B00221A80164B1B781A4610
:400300001549164802F02CFC144802F0C9F90E4B00221A7016E0124B1B78002B12D0114B1B781A4610490D4802F01AFC0B4802F0B7F90C4B1B780133DAB20A4B1A70084B09
:4003400000221A7000BF80BDAF81FF1FAD81FF1F7481FF1FAC81FF1FAC3300009C81FF1FAE81FF1FB081FF1FB433000080B500AF002001F045FA03462033DAB2044B1A700B
:40038000034B1B78184601F053F900BF80BD00BFAC81FF1F80B582B000AF01F05FFBB94800F058FDB84802F06FFA00F0E9FE00F0FFFE01F0E9F801F023FF01F00FFA02F024
:4003C00005FA02F0CFF84BF68033FB80AF4B00221A70AF4B00221A70AE4B00221A70AE4B00221A70AD4802F05BF900F059F962B602F01AF903467B717B79782B00F2408127
:4004000001A252F823F000BF81060000810600008106000081060000810600008106000081060000810600008106000081060000810600008106000081060000810600009B
:40044000810600008106000081060000810600008106000081060000810600008106000081060000810600008106000081060000810600008106000081060000810600000C
:4004800081060000810600008106000081060000810600008106000081060000810600008106000081060000810600008106000081060000810600008106000081060000CC
:4004C00081060000810600000D0600001906000025060000310600003D0600004906000055060000610600006D0600007706000081060000810600008106000081060000FA
:400500008106000081060000810600008106000081060000ED050000810600000506000081060000810600008106000081060000810600008106000081060000810600005C
:400540008106000081060000810600008106000081060000F505000081060000810600008106000081060000FD05000081060000810600008106000081060000810600001D
:400580008106000081060000810600008106000081060000ED05000081060000050600008106000081060000810600008106000081060000810600008106000081060000DC
:4005C0008106000081060000810600008106000081060000F505000081060000810600008106000081060000FD050000284B01221A7046E0254B01221A7042E0234B00222B
:400600001A703EE0234B01221A703AE001214BF67F3002F087F934E0012145F6BF5002F081F92EE0012142F6DF6002F07BF928E0012141F26F7002F075F922E0012140F66A
:40064000B73002F06FF91CE0012140F2DB5002F069F916E0012140F2ED2002F063F910E001214FF4BB7002F05DF90AE00121BA2002F058F905E001215D2002F053F900E032
:4006800000BFB5E66D030000C5020000AD81FF1FAF81FF1FAE81FF1FB081FF1FBC33000080B582B000AF4FF480434FF480420121012000F09DFB0346FB7101F057FC034656
:4006C000BB71B8790023FF22012101F07DFCBB794CF2A27244F61061184601F0B5FCBA79FB791146184601F0D3FBFB790121184601F01AFB00BF0837BD4680BD80B582B0E2
:4007000000AF786039603A680021786802F01FFA00BF0837BD4680BD80B584B000AFF860B9607A607A68B968F86802F005FA00BF1037BD4680BD00BF80B483B000AF034692
:40074000FB71FEE780B582B000AF454B00221A60444B10221A70444B01221A70434B00221A70434B4FF406721A80424B01221A70414B03221A70414B414A92B21A80414B4C
:4007800047F608021A80404B00221A803F4B4FF480421A803E4B09221A703E4B0B221A703D4B18221A703D4B1D221A70BFF35F8F3B4B01221A70BFF35F8F00BF2C4B1B8881
:4007C0009BB2002BFAD100237B600DE07B68DA00344B13441946344A7B6852F823309BB20B807B6801337B607B68422BEED9BFF35F8F2B4B01221A70BFF35F8F00BF2B4B62
:400800001B78DBB203F00103002BF8D100BF284B1B78DBB203F00103002BF8D100BF254B1B78DBB203F00103002BF8D100BF224B1B78DBB203F00103002BF8D100BF1F4BD6
:400840001B78DBB203F00103002BF8D106224FF090411B48FFF760FF00BF0837BD4680BD7881FF1F0076004010700040197000400078004002780040037800400478004000
:400880005000000006780040047600400676004029700040397000406970004079700040147000400C780040D8330000187000402870004038700040687000407870004055
:4008C0001051014080B582B000AF454B00221A80444B50221A70444B4BF67F321A80434B18221A70424B17221A80424B18221A70414B19221A80414B18221A7004224049EB
:400900004048FFF709FF404B02221A704FF0402308221A703D4B03221A703D4B3D4A1278D2B21A703C4B08221A803C4B41F251221A800023FB7019237B6013E0FB785B004C
:40094000DAB2374B1B78DBB203F00103DBB21343DBB203F00303FB70782002F0B1F87B68013B7B607B68002B02D0FB78032BE5D17B68002B02D10320FFF7DEFE294B4FF48D
:4009800080721A80274B07221A70274B00221A70264B48221A70234B00221A70244B02221A70244B04221A70234A234B1B78DBB243F00F03DBB21370204A204B1B78DBB268
:4009C00043F00103DBB213701D4A1D4B1B78DBB263F07F03DBB2137000BF0837BD4680BD80400040824000408440004086400040884000408A4000408C4000408E40004066
:400A0000B4120048004100400043004000420040A146004008010049224200402042004025420040044000400640004008400040014000400B400040A2430040A1430040D5
:400A4000A043004080B483B000AF114B1B78FB71104AFB7903F00703DBB213700E4AFB791B09DBB213700D4B02221A700C4B02221A700C4B20221A700B4B02221A700B4B7F
:400A800044221A7000BF0C37BD4680BC704700BFCF0100496E5800406F5800400D510040805A0040905A0040005B00407658004080B483B000AF0346FB71FB79012B0ED88D
:400AC000FB79094A52F82330FA79074951F822201178FA790548825C0A43D2B21A7000BF0C37BD4680BC7047CC330000D433000080B483B000AF0346FB71FB79012B10D871
:400B0000FB790A4A52F82330FA79084951F822201178FA790648825CD243D2B20A40D2B21A7000BF0C37BD4680BC7047CC330000D433000080B500AF72B6344B61221A7052
:400B4000FFF7C0FE314B81221A70314A304B1B78DBB243F00403DBB21370FFF7F3FD2D4B0A221A7004212C48FFF7C8FD04212B48FFF7C4FD04212A48FFF7C0FD294A294BD0
:400B80001B78DBB243F00203DBB21370264A264B1B78DBB243F00203DBB21370234A234B1B78DBB243F04003DBB21370204A204B1B78DBB243F01003DBB2137008221D4928
:400BC0001D48FFF7A9FD0A221C491D48FFF7A4FD08221C491C48FFF79FFD0A221B491C48FFF79AFD1B4A1B4B1B78DBB243F00803DBB21370184B01221A70FFF723FF0E22D0
:400C00000A491648FFF788FD00BF80BD00480040E8460040835800400076004050760040087600400350014013500140A0430040C24300408C1200480251004094120048FA
:400C4000C0510040A012004812510040A8120048205100402243004004000840B043004080B500AF01F03CFF03461B680C2B00D1FEE7FEE780B584B000AF78600F4B1A6835
:400C80007B6813441A460E4BD31A802B09DC0B4B1B68FB60094B1A687B681344074A136007E001F01DFF02460C2313604FF0FF33FB60FB6818461037BD4680BDCC80FF1F60
:400CC000C081FF1F80B586B000AF224B7B61224B3B61204B7B6135E03B691B68FB603B695B68BB603B699B683B6000237B600CE0FB681A68BB681A60BB680433BB60FB6843
:400D00000433FB607B6804337B607A683B689A42EED13B69DB683B6000237B6008E0BB6800221A60BB680433BB607B6804337B607A683B689A42F2D13B6910333B617B69F0
:400D4000013B7B617B69002BC6D101F0CFFEFFF721FBFEE701000000483C000080B582B000AF194B194A1A60194A194B1B6843F40073136000237B600FE07B68032B04D8E3
:400D8000144A7B6852F8233000E0134B13497A6841F822307B6801337B607B682F2BECD90F4B1B78DAB20F4B1A700F4B0B4A1A60FFF7C0FE00F08AFF0C4B00221A6000BFF5
:400DC0000837BD4680BD00BF0CED00E00004FA0514ED00E000000000610C00000080FF1FBC760040C480FF1F08ED00E0C080FF1F90B585B002AF0446084611461A46234603
:400E0000FB710346BB710B46BB8013467B80104B0A221A700E4B1878BA79F9790023019300230093002301F051F8094B1B787A88B988184600F0F0FF054B1B7802211846BD
:400E400000F0B8FF024B1B7818460C37BD4690BDD080FF1F80B582B000AF786000F03CF8786800F009F8072000F018F800F028F800BF0837BD4680BD80B485B000AF786044
:400E8000054B1B68FB60FB68B0337A681A6000BF1437BD4680BC704708ED00E080B483B000AF0346FB71054AFB795B01DBB2137000BF0C37BD4680BC704700BF1CE400E0FC
:400EC00080B400AF034B4FF080521A6000BFBD4680BC704700E100E080B400AF034B4FF080521A6000BFBD4680BC704780E100E080B582B002AF324B01221A70314B00222E
:400F00001A70102000F082FD102000F0B7FE07211D2001F00FF92C4B04221A702B4B00221A702B4B00221A702A4A2A4B1B78DBB243F01803DBB21370274B00221A70274BF3
:400F400000221A70264B00221A70264B0A221A70254B00221A70254B00221A70244B12221A70244B13221A70234B00221A70234B14221A700123009308234FF4004248F601
:400F8000B651012000F0D6F91D4A0D4B1B78DBB2013B1C499B000B449B7813701A4A084B1B78DBB2013B174931F823301380044B1B78DBB2184600F00BF900BFBD4680BD08
:400FC000D180FF1F7C81FF1F96580040975800409E580040075B004093580040885B0040895B004080580040815800408358004088580040895800408D580040014E00407F
:401000000E4E00408481FF1F0C4E004080B582B000AF01F05DFD0346FB714A4B1B78BB71494A494B1B78DBB243F00103DBB21370454A454B1B78DBB243F01003DBB21370CA
:40104000424A424B1B78DBB243F00103DBB213703E4A3E4B1B78DBB243F01003DBB213703B4A3B4B1B78DBB243F00203DBB21370384A384B1B78DBB243F00203DBB2137089
:40108000354A354B1B78DBB243F00303DBB21370BB79012B07D1314A304B1B78DBB243F00803DBB21370032001F008F8284A284B1B78DBB223F00203DBB21370254A254B0C
:4010C0001B78DBB223F00203DBB21370244A244B1B78DBB243F00603DBB21370214B7A221A70214A204B1B78DBB243F00103DBB213701E4A1D4B1B78DBB243F00103DBB2DC
:4011000013701B4A1A4B1B78DBB243F00103DBB21370184A174B1B78DBB243F00103DBB21370154B4FF000521A60144B4FF000521A60FB79184601F0CFFC00BF0837BD466C
:4011400080BD00BFD180FF1FAA430040BA430040F8460040F946004091580040925800407758004082580040A1430040B1430040A2430040B243004080E200E000E100E06C
:4011800080B500AF084B1B78002B09D1074B1B78DBB2002B01D1FFF7ABFE034B01221A70FFF734FF00BF80BD7E81FF1F7F81FF1F80B400AF054A054B1B78DBB243F001031E
:4011C000DBB2137000BFBD4680BC7047004E004080B582B000AF0346FB71384B00221A70FB79012B65D1364B38221A70354B04221A70354B07221A70344B00221A70344B5A
:4012000000221A70334B0F221A70334B73221A70324B00221A70324B00221A70314B01221A70314B14221A70304B09221A70304B0A221A702F4B00221A702F4B11221A70B7
:401240002E4B12221A702E4B01221A702D4B00221A702D4B00221A702C4B0A221A702C4B43221A704C2000F01DF92A4B58221A70294B00221A70294B05221A70284B012270
:401280001A70284B00221A70274B0A221A70012001F04AF8254B7D221A600121052000F0F7FA0121BA2000F02BFC21491D2000F019FF00BF0837BD4680BD00BF7D81FF1F7D
:4012C000004E0040024E0040034E0040044E0040054E0040064E0040084E0040094E00400A4E0040144E0040845800408558004086580040875800408A5800408B58004064
:401300008C5800408E5800408F580040905800409158004094580040955800409A5800409B5800409C5800409D580040B481FF1F2115000090B587B000AF04460846114621
:401340001A462346FB710346BB800B467B801346BB7197F82830002B00F08B8097F82830012B00F28680FB79013B092B4AD801A252F823F09D1300000514000005140000E3
:401380009D1300000514000005140000B7130000D113000005140000EB130000BB790F2B04D9374B1B78DBB2FB752EE0354B1B78DBB2FB7529E0BB790F2B04D9324B1B78A7
:4013C000DBB2FB7521E0314B1B78DBB2FB751CE0BB790F2B04D92E4B1B78DBB2FB7514E02C4B1B78DBB2FB750FE0BB790F2B04D9294B1B78DBB2FB7507E0284B1B78DBB2E0
:40140000FB7502E00023FB7500BFBA8897F917305B0113443B617B883A6902FB03F3FB60FB68DB0BBB82BB790D2B12D8BA8ABB79C3F10E0342FA03F3BB8297F82830013B01
:40144000BA790132D1B2164A9B0013440A469A7007E097F82830013B114A9B0013440F229A7097F82830013B0D49BA8A21F8232002E0002000F016FE00BF1C37BD4690BDC4
:40148000180100491C010049190100491D0100491A0100491E0100491B0100491F0100498481FF1F80B584B000AF0346FB7101F00FFB0346FB73174A164B1B78DBB243F049
:4014C0000303DBB21370144A134B1B78DBB243F00303DBB21370114AFB791370032000F0EDFD0C4A0B4B1B78DBB223F00303DBB21370094A084B1B78DBB223F00303DBB201
:401500001370FB7B184601F0E7FA00BF1037BD4680BD00BFF8460040F94600409258004080B400AF00BFBD4680BC704780B500AF064B00221A70064B00221A70042000F0CC
:4015400057F8022000F034F800BF80BD285800402958004080B400AF094A094B1B78DBB243F00403DBB21370064A064B1B78DBB243F00403DBB2137000BFBD4680BC7047AD
:40158000A8430040B843004080B500AF074B1B78002B04D1FFF7CAFF044B01221A70FFF7D9FF642000F044F800BF80BD8881FF1F80B483B000AF0346FB710C4A0B4B1B7896
:4015C000DBB223F00203DBB213700849074B1B78DAB2FB7903F00203DBB21343DBB20B7000BF0C37BD4680BC704700BF2858004080B582B000AF0346FB710C4A0B4B1B789C
:40160000DBB223F00C03DBB213700849074B1B78DAB2FB7903F00C03DBB21343DBB20B7000F016F800BF0837BD4680BD2858004080B483B000AF0346FB71044AFB791370BC
:4016400000BF0C37BD4680BC704700BF825B004080B483B000AF0B4B1B78DBB203F00C039B08DBB20633FB71074AFB7903F1924303F594731B78DBB2137000BF0C37BD46FE
:4016800080BC7047285800400A460040F8B500AF304A304B1B78DBB243F01003DBB213702D4A2D4B1B78DBB223F00103DBB213702A4B3F221A702A4B3F221A70294A2A4B42
:4016C000104619464FF480731A4601F035FA274A254B104619464FF480731A4601F02CFA234A244B104619464FF480731A4601F023FA214A214B104619464FF400731A4665
:4017000001F01AFA1E4A1F4B104619464FF400731A4601F011FA1C4B1C4A14461E4604F1400E35462346186859689A68DB680FC5103410367445F4D1094B00221A700120D6
:4017400000F07EF8002000F08FF8114BF8221A7000BFF8BDA643004080C7004088C700408CC7004000C40040E434000000C5004000C60040243A000000C00040E435000088
:4017800000C20040E437000000C70040E439000084C7004080B400AF0D4A0D4B1B78DBB243F01003DBB213700A4A0A4B1B78DBB243F01003DBB21370074A074B1B78DBB273
:4017C00043F00103DBB2137000BFBD4680BC7047A6430040B643004080C7004080B500AF064B1B78002B04D1FFF750FF034B01221A70FFF7CFFF00BF80BD00BF8981FF1F55
:4018000080B485B000AF0346FB71FB79002B03D1094B1B78FB7308E0FB79012B03D1074B1B78FB7301E00023FB73FB7B18461437BD4680BC704700BFAAC70040AEC70040B8
:4018400080B483B000AF0346FB71FB7903F01F03FB71044AFB79137000BF0C37BD4680BC704700BF98C7004080B483B000AF0346FB71FB7903F00F03FB71044AFB79137018
:4018800000BF0C37BD4680BC704700BF9CC7004080B584B000AF03460A46FB8013467B7100F0CEF80346FB7300F0A4F80346BB81FA88BB899A4200F08880464B1B78DBB294
:4018C00003F00103FB72FB7B002B20D1BB89002B02D0FB88002B1AD1BB89002B0BD13E4AFB8813803D4A3D4B1B78DBB223F04003DBB2137069E0394A384B1B78DBB243F0F8
:401900004003DBB21370344AFB8813805DE0FB7A002B33D0324B00221A70324B01221A70314B00221A70314A304B1B78DBB203F07F03DBB21370294B1B78DBB203F0080338
:40194000002B02D0FB88002B18D1294ABB891380234B07221A7000BF214B1B78DBB203F00103002BF8D11B4A1A4B1B78DBB223F00103DBB213701A4B00221A70154B1B781D
:40198000DBB203F00103002B13D0194AFB881380134A7B79002B01D0032300E00123137000BF0F4B1B78DBB203F00103002BF8D10BE0094AFB8813800649064B1B78DAB2EB
:4019C000FB7A1343DBB20B70FFE700BF1037BD4680BD00BFA24300408040004082400040014000401040004014400040084000400240004080B400AF034B1B889BB21846D4
:401A0000BD4680BC704700BF8040004080B483B000AF0346FB710949084B1B78DBB25AB297F9073023F007035BB213435BB2DBB20B7000BF0C37BD4680BC704782400040FF
:401A400080B400AF044B1B78DBB203F00703DBB21846BD4680BC70478240004080B500AF00F042F8044800F00FF8072000F01EF800F02EF800BF80BD7D1A000080B400AF2A
:401A800000BFBD4680BC704780B485B000AF7860054B1B68FB60FB68B4337A681A6000BF1437BD4680BC704708ED00E080B483B000AF0346FB71054AFB795B01DBB21370DE
:401AC00000BF0C37BD4680BC704700BF1DE400E080B400AF034B4FF000521A6000BFBD4680BC704700E100E080B400AF034B4FF000521A6000BFBD4680BC704780E100E06A
:401B000080B584B000AF03460A46FB8013467B7100F0CEF80346FB7300F0A4F80346BB81FA88BB899A4200F08880464B1B78DBB203F00103FB72FB7B002B20D1BB89002B06
:401B400002D0FB88002B1AD1BB89002B0BD13E4AFB8813803D4A3D4B1B78DBB223F04003DBB2137069E0394A384B1B78DBB243F04003DBB21370344AFB8813805DE0FB7A41
:401B8000002B33D0324B00221A70324B01221A70314B00221A70314A304B1B78DBB203F07F03DBB21370294B1B78DBB203F00803002B02D0FB88002B18D1294ABB89138071
:401BC000234B07221A7000BF214B1B78DBB203F00103002BF8D11B4A1A4B1B78DBB223F00103DBB213701A4B00221A70154B1B78DBB203F00103002B13D0194AFB8813806E
:401C0000134A7B79002B01D0032300E00123137000BF0F4B1B78DBB203F00103002BF8D10BE0094AFB8813800649064B1B78DAB2FB7A1343DBB20B70FFE700BF1037BD46B1
:401C400080BD00BFA14300400041004002410040014000401440004010400040084000400240004080B400AF034B1B889BB21846BD4680BC704700BF0041004080B483B075
:401C800000AF0346FB710949084B1B78DBB25AB297F9073023F007035BB213435BB2DBB20B7000BF0C37BD4680BC70470241004080B400AF044B1B78DBB203F00703DBB23C
:401CC0001846BD4680BC70470241004080B483B000AF134B7F221A70124B80221A707F23FB710CE0FB79DB0003F1804303F5F043FA79013AD2B21A70FB79013BFB71FB796E
:401D0000002BEFD1FB79DB0003F1804303F5F04300221A7000BF0C37BD4680BC704700BFD580FF1FD480FF1F80B485B000AF03460A46FB711346BB710123FB60FB79172B68
:401D40002FD8BB79002B0ED0FB791A01184B1344FA791101164A0A441278D2B242F02002D2B21A700DE0FB791A01114B1344FA7911010F4A0A441278D2B222F02002D2B212
:401D80001A70FB791A010A4B1344FA791101084A0A441278D2B242F00102D2B21A700023FB60FB6818461437BD4680BC704700BF1070004080B485B000AF03460A46FB71CC
:401DC0001346BB710123FB60FB79172B1BD8FB791A01104B13441B78DBB223F00E03FB72FB791A010B4B1344BA795200D2B252B202F00E0251B297F90B200A4352B2D2B266
:401E00001A700023FB60FB6818461437BD4680BC704700BF1070004080B485B000AF0346FB710B46BB8013467B800123FB60BB8841F6FF72934202D14FF40053BB807B8886
:401E400041F6FF72934202D14FF400537B80FB79172B17D8FB79DB0003F1804303F5EC430433BB60BB68BA881A80FB79DB0003F1804303F5EC430633BB60BB687A881A801E
:401E80000023FB60FB6818461437BD4680BC704780B485B000AF03460A46FB711346BB710123FB60FB79172B07D8FB791A01064B1344BA795A720023FB60FB68184614372C
:401EC000BD4680BC704700BF1070004090B484B000AF0446084611461A462346FB710346BB710B467B7113463B710123FB60FB79172B34D8FB79DB0003F1804303F5EC43FD
:401F0000BA7902F07F02D1B27A79D201D2B20A43D2B21A70FB79DB0003F1804303F5EC433A7E1201D1B23A7902F00F02D2B20A43D2B25A70FB79DB0003F1804303F5EC4356
:401F40003A7F02F00F02D2B29A70FB79DB0003F1804303F5EC430022DA700023FB60FB6818461037BD4690BC704700BF80B582B000AFFF23FB7100F0ABFD0346BB71104B27
:401F80001B78182B12D90F4B1B78FB710C4B1B78013BDAB20A4B1A70FB79DB0003F1804303F5F0431B78DAB2064B1A70BB79184600F092FDFB7918460837BD4680BD00BF2A
:401FC000D480FF1FD580FF1F90B484B000AF0446084611461A462346FB710346BB800B46BB711346FB700123FB6097F90730002B23DBBB8823F47F6323F00F039BB2002BA4
:402000001BD1FB79DB0003F1804303F5F043BB60BB68BA881A80FB79DB0003F1804303F5F043BA799A70FB79DB0003F1804303F5F043FA78DA700023FB60FB681846103788
:40204000BD4690BC704700BF80B485B000AF0346FB710B46BB8013467B800123FB6097F90730002B17DBFB79DB0003F1804303F5F0430433BB60BB68BA881A80FB79DB00BA
:4020800003F1804303F5F0430633BB60BB687A881A800023FB60FB6818461437BD4680BC704700BF80B483B000AF0346FB7101BE00BF0C37BD4680BC704700BF80B582B044
:4020C00000AF0346FB80FB88054A127802FB03F3184600F0F5FC00BF0837BD4680BD00BFE480FF1F80B584B000AF03463960FB710F4B1B68FB60FB791F2B02D90020FFF713
:40210000D1FFFB7903F01F0310339B00FA6813441B68BB60FB7903F01F0310339B00FA6813443A681A60BB6818461037BD4680BD08ED00E080B582B000AF03460A46FB71DD
:402140001346BB71BB79072B02D90020FFF7AAFFFB791F2B02D90020FFF7A4FFFB7903F01F0303F1604303F56443BA795201D2B21A7000BF0837BD4680BD00BF80B500AF54
:4021800000F04AF9022000F07FF9002000F09CF9FFF7ECFE03461A46084B1A70FFF7E6FE03461A46064B1A706421064800F03AF86421054800F06AF800BF80BD8D81FF1FB8
:4021C0008E81FF1F243B0000883B000080B500AF00F040F9084B1B7801211846FFF7A4FD064B1B7801211846FFF79EFD002000F08BF900BF80BD00BF8B81FF1F8C81FF1FED
:4022000080B500AF064B1B78002B04D1FFF7B6FF034B01221A70FFF7D9FF00BF80BD00BF8A81FF1F80B582B000AF78600B467B807B681B0C9AB24FF480430121012000F0B5
:4022400087F803461A460F4B1A700F4B18780E4B1A7879880123FFF7B7FE0B4B1B787A6891B24FF4B7421846FFF7EEFE054B1A78054B1B7819461046FFF70AFE00BF0837AD
:40228000BD4680BD8B81FF1F8D81FF1F80B582B000AF78600B467B807B681B0C9AB24FF480430121012000F085F803461A460F4B1A700F4B18780E4B1A7879880123FFF7C5
:4022C00083FE0B4B1B787A6891B24FF4B7421846FFF7BAFE054B1A78054B1B7819461046FFF7D6FD00BF0837BD4680BD8C81FF1F8E81FF1F80B582B000AF0023FB7106E0A3
:40230000FB791846FEF7F4FBFB790133FB71FB79012BF5D9034BFF221A7000BF0837BD4680BD00BFEC80FF1F80B582B000AF0346FB71FFF7DFFFFB791846FEF7B9FB034A7E
:40234000FB79137000BF0837BD4680BDEC80FF1F90B585B002AF0446084611461A462346FB710346BB710B46BB8013467B80104B00221A700E4B1878BA79F97900230193AE
:40238000002300930023FFF7A1FD094B1B787A88B9881846FFF740FD054B1B7802211846FFF708FD024B1B7818460C37BD4690BDED80FF1F90B585B002AF04460846114620
:4023C0001A462346FB710346BB710B46BB8013467B80104B01221A700E4B1878BA79F97900230193002300930023FFF76FFD094B1B787A88B9881846FFF70EFD054B1B785F
:4024000002211846FFF7D6FC024B1B7818460C37BD4690BDEE80FF1F80B500AF0A4B00221A700A4B00221A70094A094B1B78DBB243F00803DBB21370002000F045F802208C
:4024400000F022F800BF80BD2058004021580040875A004080B400AF094A094B1B78DBB243F00103DBB21370064A064B1B78DBB243F00103DBB2137000BFBD4680BC704716
:40248000A8430040B843004080B483B000AF0346FB710C4A0B4B1B78DBB223F00203DBB213700849074B1B78DAB2FB7903F00203DBB21343DBB20B7000BF0C37BD4680BC9D
:4024C000704700BF2058004080B582B000AF0346FB710C4A0B4B1B78DBB223F00C03DBB213700849074B1B78DAB2FB7903F00C03DBB21343DBB20B7000F016F800BF0837C6
:40250000BD4680BD2058004080B483B000AF0346FB71044AFB79137000BF0C37BD4680BC704700BF805B004080B483B000AF0B4B1B78DBB203F00C039B08DBB20633FB715E
:40254000074AFB7903F1924303F590731B78DBB2137000BF0C37BD4680BC7047205800400846004080B500AF064B1B78002B04D100F00AF8034B01221A7000F025F800BF70
:4025800080BD00BF8F81FF1F80B400AF094B72221A70094B20221A70084B06221A70084B47221A70074B00221A7000BFBD4680BC704700BF896400408A6500402864004097
:4025C000386400408865004080B582B000AF00F07FFA0346FB71114A104B1B78DBB243F02003DBB213700E4A0D4B1B78DBB243F01003DBB213700B4A0A4B1B78DBB243F03F
:402600001003DBB2137000F025F9FB79184600F063FA00BF0837BD4680BD00BF996400409A6500409865004080B483B000AF0023FB710C4B1B78BB71BB7903F02003002B64
:4026400009D0094B1B78FB71BB7903F01E03002B01D00023FB71FB7918460C37BD4680BC704700BF6A6500404A65004080B483B000AF0346FB7100BF074B1B78DBB203F0A4
:402680000403002BF8D1054AFB79137000BF0C37BD4680BC704700BF686500404B65004080B584B000AF78600023FB810C4B1B78002B10D009E0FB897A6813441B7818460A
:4026C000FFF7D4FFFB890133FB81FB897A6813441B78002BEFD100BF1037BD4680BD00BF8F81FF1F80B500AF224A224B1B78DBB203F00103DBB213701F4A1F4B1B78DBB298
:4027000023F00303DBB213701C4A1C4B1B78DBB223F03003DBB21370184A184B1B78DBB243F03003DBB21370144A144B1B78DBB223F00F03DBB21370104A104B1B78DBB2EB
:4027400043F00F03DBB213700D4A0D4B1B78DBB243F00103DBB2137040F2F31000F058F840F2F31000F066F8002000F041F800BF80BD00BF004F0040024F00400B4F004038
:40278000014F004080B400AF0D4A0D4B1B78DBB243F00103DBB213700A4A0A4B1B78DBB243F00103DBB21370074A074B1B78DBB243F00103DBB2137000BFBD4680BC7047C1
:4027C000A3430040B3430040004F004080B500AF064B1B78002B04D1FFF784FF034B01221A70FFF7CFFF00BF80BD00BF9181FF1F80B483B000AF0346FB71044AFB791370F3
:4028000000BF0C37BD4680BC704700BF034F004080B485B000AF0346FB80FB88FB81044AFB89138000BF1437BD4680BC704700BF044F004080B483B000AF0346FB80044A95
:40284000FB88138000BF0C37BD4680BC704700BF064F004080B400AF094A094B1B78DBB243F00803DBB21370064A064B1B78DBB243F00803DBB2137000BFBD4680BC70473A
:40288000A2430040B243004080B582B000AF786000F03CF8786800F009F8072000F018F800F028F800BF0837BD4680BD80B485B000AF7860054B1B68FB60FB6840337A6890
:4028C0001A6000BF1437BD4680BC704708ED00E080B483B000AF0346FB71054AFB795B01DBB2137000BF0C37BD4680BC704700BF00E400E080B400AF034B01221A6000BF87
:40290000BD4680BC704700BF00E100E080B400AF034B01221A6000BFBD4680BC704700BF80E100E080B584B000AF03460A46FB8013467B7100F0B4F80346FB7300F0A4F84E
:402940000346BB81FA88BB899A4200F08880464B1B78DBB203F00203FB72FB7B002B20D1BB89002B02D0FB88002B1AD1BB89002B0BD13E4AFB8813803D4A3D4B1B78DBB29E
:4029800023F04003DBB2137069E0394A384B1B78DBB243F04003DBB21370344AFB8813805DE0FB7A002B33D0324B00221A70324B02221A70314B00221A70314A304B1B7843
:4029C000DBB203F07F03DBB21370294B1B78DBB203F00803002B02D0FB88002B18D1294ABB891380234B07221A7000BF214B1B78DBB203F00103002BF8D11B4A1A4B1B78A1
:402A0000DBB223F00203DBB213701A4B00221A70154B1B78DBB203F00203002B13D0194AFB881380134A7B79002B01D0032300E00123137000BF0F4B1B78DBB203F00103A7
:402A4000002BF8D10BE0094AFB8813800649064B1B78DAB2FB7A1343DBB20B70FFE700BF1037BD4680BD00BFA24300408440004086400040014000401040004014400040BD
:402A8000084000400240004080B400AF034B1B889BB21846BD4680BC704700BF8440004080B400AF044B1B78DBB203F00703DBB21846BD4680BC704786400040000000009E
:402AC0000230800803D000BF01380046FCD17047EFF3108072B6704780F31088704700BF014B1868704700BF5081FF1F0E4B70B51E460E4C0025E41AA410A54204D056F868
:402B0000253098470135F8E701F08CF8084B094C1E46E41AA4100025A54204D056F8253098470135F8E770BD303C0000303C0000303C0000383C000010B5431E0A44914276
:402B400004D011F8014B03F8014FF8E710BD03460244934202D003F8011BFAE7704700000EB400B54FF402719CB0ADF814106FF00041049107914FF6FF711DAB029006909C
:402B8000084853F8042BADF81610006802A9019300F064F8029B00221A701CB05DF804EB03B070475081FF1F2DE9F0478E6882469E420C46914698463ED88A8912F4906FBB
:402BC0003AD02568096902236F1A656905EB450595FBF3F57B1C43449D4238BF1D4653050FD5294600F040FB064698B13A462169FFF7A2FFA38923F4906343F08003A3812B
:402C000013E02A4600F08EFB064670B92169504600F0DEFA0C23CAF80030A3894FF0FF3043F04003A381BDE8F08726613E44266046466561ED1BA560464528BF464649466F
:402C40003246206800F0A8FAA36800209B1BA36023681E442660BDE8F08700002DE9F04F9DB003938B8980461C060D4616460DD50B695BB9402100F0F7FA2860286118B9DE
:402C80000C23C8F80030CDE040236B610023099320238DF82930DFF89CB130238DF82A3037463C4614F8013B1BB9B7EB060910D003E0252BF9D02746F3E74B46324629467C
:402CC0004046FFF771FF013000F0A780099B4B4409933B78002B00F0A08000234FF0FF3204930793059206938DF853301A930126052221784E4800F041FA671C049B38B187
:402D00004B4A3C46801A06FA00F018430490EFE7D90644BF20228DF853201A0744BF2B228DF8532022782A2A03D0079A00210A200BE0039A111D12680391002A10DA52428F
:402D400043F00200079204900BE027463B780134303B092B03D800FB02320121F5E701B107923B782E2B1ED17B782A2B0AD1039B02371A1D1B680392002BB8BF4FF0FF3368
:402D8000059310E0002319460593781C0A2407463A780130303A092A03D804FB01210123F5E703B1059103223978224800F0E6F940B14023CBEB000003FA00F0049B0137BF
:402DC00018430490397806221B487E1C8DF8281000F0D4F988B1194B33B9039B073323F007030833039314E003AB00932A46144B04A94046AFF3008007E003AB00932A4654
:402E00000F4B04A9404600F093F8B0F1FF3F824603D0099B5344099342E7AB895B0601D4099801E04FF0FF301DB0BDE8F08F00BFEE3B0000F43B0000F83B0000000000007B
:402E4000A92B00002DE9F04791461F460A698B6806469342B8BF1346C9F8003091F843200C46DDF8208012B10133C9F800302368990642BFD9F800300233C9F80030256833
:402E800015F0060510D104F1190A07E00123524639463046C04701301AD00135E368D9F800209B1A9D42F1DB94F843302268003318BF012392060FD5E118302081F8430045
:402EC0005A1C94F845102244023382F8431003E04FF0FF30BDE8F08704F1430239463046C0470130F4D02268D9F80050E36802F00602042A08BF5D1B2269A3680CBF25EAAE
:402F0000E57500259342C4BF9B1AED184FF000091A344D4509D00123224639463046C0470130D5D009F10109F3E70020BDE8F0872DE9F04317460A7E85B06E2A9846064662
:402F40000C460C9B01F1430E00F0AE8011D8632A22D009D8002A00F0BB80582A40F0CA8081F84520834955E0642A1ED0692A1CD0C0E0732A00F0B08009D86F2A2ED0702A14
:402F800040F0B8800A6842F020020A603EE0752A24D0782A3AD0ADE01A6801F14205111D1960136884F84230A8E021681A6811F0800F02D0111D196008E011F0400F02F1FD
:402FC0000401196002D0B2F9003000E01368002B3CDA2D225B4284F8432037E021681A6811F0800F02D0111D196007E011F0400F02F10401196001D0138800E01368227E05
:403000005C496F2A14BF0A2208221BE078225A4984F845202268186812F0800F00F104051D6003D1550601D5038800E00368D00744BF42F0200222601BB9226822F02002E1
:4030400022601022002084F8430001E049490A226568002DA56008DB206820F0040020602BB9002D7DD175460CE0002B79D07546B3FBF2F002FB1033CB5C05F8013D034670
:403080000028F5D1082A0BD12368DA0708D5236962689A42DEBF302305F8013C05F1FF35C5EB0E0323612EE008681A6810F0800F496903D0101D1860136808E010F0400F95
:4030C00002F104001860136801D0198000E0196000232361754616E01A68111D1960156800216268284600F049F808B1401B6060636804E004F1420584F842200123236156
:40310000002384F84330CDF800803B4603AA21463046FFF797FE013002D14FF0FF3026E023692A4639463046C0470130F5D023689B0710D5002504F1190907E001234A4653
:4031400039463046C0470130E7D00135E368039A9B1A9D42F2DBE068039B9842B8BF184605E00B7804F1420584F842308AE705B0BDE8F083FF3B0000103C000010B5C9B2C1
:4031800002449042034605D01C7801308C42F8D1184610BD002010BD884210B501EB020301D8421E0BE09842FBD28118D21AD34204D013F8014D01F8014DF8E710BD994285
:4031C00004D011F8014B02F8014FF8E710BD000038B50546002944D051F8043C0C1F002BB8BFE41800F0D4F81E4A1368114613B96360146030E0A3420DD92268A01883420E
:4032000001BF18685B681218226063600C6023E0A24203D813465A68002AF9D118681918A1420BD12168014458188242196013D110685268014419605A600DE002D90C236F
:403240002B6009E021686018824201BF106852680918216062605C602846BDE8384000F098B838BD9881FF1F70B5CD1C25F0030508350C2D38BF0C25002D064601DBA94203
:4032800002D90C23336046E000F082F8234B1C681A462146A1B10B685B1B0ED40B2B03D90B60CC18CD501EE08C420BBF63684B681360636018BF0C4615E00C464968E9E752
:4032C000174C23681BB9304600F052F820602946304600F04DF8431C18D0C41C24F00304A0420DD12560304600F053F804F10B00231D20F00700C31A0ED05A42E25070BD7D
:40330000211A304600F034F80130EBD10C233360304600F03EF8002070BD00BF9881FF1F9481FF1FF8B5074615460E4621B91146BDE8F840FFF798BF1AB9FFF749FF28467C
:40334000F8BD00F027F885420ED929463846FFF78BFF044650B131462A46FFF7EDFB31463846FFF735FF01E03046F8BD2046F8BD38B5064C0023054608462360FDF77AFC30
:40338000431C02D1236803B12B6038BDB881FF1F7047704751F8040C0028BEBF091851F8043CC018043870470000000025640D0A0000000025780D0A00000000434F4D2091
:4033C000506F7274204F70656E000000035B0040035B00404020000028000000300000003800000040000000480000004800000048000000480000007881FF1F7881FF1FBC
:403400007881FF1F7881FF1F7881FF1F7881FF1F7881FF1F7881FF1F7881FF1F7881FF1F7881FF1F7881FF1F7881FF1F7881FF1F7881FF1F08000048180000482400004845
:40344000AC030048CC030048100000482C000048AC0000482C010048AC0100482C020048AC0200482C030048EC030048FC0300480C0400488C0400480C0500488C05004851
:403480000C0600488C0600480C0700488C0700480C0800488C0800480C0900488C0900480C0A00488C0A00480C0B00488C0B00480C0C00488C0C00480C0D00488C0D004834
:4034C0000C0E00488C0E00480C0F00488C0F00480C1000488C1000480C1100488C1100480C120048201300256117802601008026E00E8026C20C8026020080066587186D2C
:403500006409183E00008026032080262102187F0000000000000000000000000000000000000000000000000000000000000000000000000000000000000000000000009F
:40354000000000000000000000000000000000000000000000000000000000000000000000000000000000000000000000000000000000000000000000000000000000004B
:40358000000000000000000000000000000000000000000000000000000000000000000000000000000000000000000000000000000000000000000000000000000000000B
:4035C00000000000000000000000000000000000000000000000000000000000000000000000000000000000000000000000000000000000000000000000000000000000CB
:40360000000000000000000000000000000000000000000000000000000000000000000000000000000000000000000000000000000000000000000000000000000000008A
:40364000000000000000000000000000000000000000000000000000000000000000000000000000000000000000000000000000000000000000000000000000000000004A
:40368000000000000000000000000000000000000000000000000000000000000000000000000000000000000000000000000000000000000000000000000000000000000A
:4036C00000000000000000000000000000000000000000000000000000000000000000000000000000000000000000000000000000000000000000000000000000000000CA
:403700000000000000000000000000000000000000000000000000000000000000000000000000000000000000000000000000000000000000000000000000000000000089
:403740000000000000000000000000000000000000000000000000000000000000000000000000000000000000000000000000000000000000000000000000000000000049
:403780000000000000000000000000000000000000000000000000000000000000000000000000000000000000000000000000000000000000000000000000000000000009
:4037C000000000000000000000000000000000000000000000000000000000000000000000000000010000000A0000003F00000017010000C1030000B70A00002C1A00009C
:40380000EF370000366A00002BB50000D9170100CF8901000DFB010028570200008B0200008B0200285702000DFB0100CF890100D91701002BB50000366A0000EF3700007A
:403840002C1A0000B70A0000C1030000170100003F0000000A000000010000000000000000000000000000000000000000000000000000000000000000000000000000001B
:403880000000000000000000000000000000000000000000000000000000000000000000000000000000000000000000000000000000000000000000000000000000000008
:4038C00000000000000000000000000000000000000000000000000000000000000000000000000000000000000000000000000000000000000000000000000000000000C8
:403900000000000000000000000000000000000000000000000000000000000000000000000000000000000000000000000000000000000000000000000000000000000087
:403940000000000000000000000000000000000000000000000000000000000000000000000000000000000000000000000000000000000000000000000000000000000047
:403980000000000000000000000000000000000000000000000000000000000000000000000000000000000000000000000000000000000000000000000000000000000007
:4039C0000000000000000000000000000000000000000000000000000000000000000000000000009D0E00000000000000000000000000000000000000000000000000001C
:403A000000000000000000000000000000000000000000000000000000000000000000000000000021F805014210864064F8150181F8050143518E2100000000000000001B
:403A40000000000000000000000000000000000000000000000000000000000000000000000000000000000000000000000000000000000000000000000000000000000046
:403A80000000000000000000000000000000000000000000000000000000000000000000000000000000000000000000000000000000000000000000000000000000000006
:403AC00000000000000000000000000000000000000000000000000000000000000000000000000000000000000000000000000000000000000000000000000000000000C6
:403B00000000000000000000000000000000000000000000000000000000000000000000000000000305080A0D0F121417191C1E212326282B2D303235383A3D3F42444783
:403B4000494C4E515356585B5D606265686A6D6F727477797C7E818386888B8D909295979A9D9FA2A4A7A9ACAEB1B3B6B8BBBDC0C2C5C7CACDCFD2D4D7D9DCDEE1E3E6E815
:403B8000EBEDF0F2F5F7FAFC80878F979FA6AEB5BCC2C9CFD5DBE0E5E9EDF1F4F6F9FAFCFCFCFCFCFAF9F6F4F1EDE9E5E0DBD5CFC9C2BCB5AEA69F978F878078706860596C
:403BC000514A433D36302A241F1A16120E0B09060503030303030506090B0E12161A1F242A30363D434A5159606870784300232D302B2000686C4C00656667454647003091
:403C0000313233343536373839414243444546003031323334353637383961626364656600000000F8B500BFF8BC08BC9E4670478D0200005D0D0000F8B500BFF8BC08BC54
:403C40009E46704769020000583C0000C880FF1F900000006800000000000000C081FF1FFF010000807F00000304000000366E01C05D0000180000000000E02EFFFFFF0002
:403C80000000000000000000000000000000000000000000000000000000000000000000EC3B000000000000000000000000000000000000000000000000000000000000DD
:403CC0000000000000000000000000000000000000000000000000000000000000000000F080FF1F0000000000000000000000000000000000000000000000000000000036
:403D00000000000000000000000000000000000000000000000000000000000000000000000000000000000000000000000000000000000000000000000000000000000083
:403D40000000000000000000000000000000000000000000000000000000000000000000000000000000000000000000000000000000000000000000000000000000000043
:403D80000000000000000000000000000000000000000000000000000000000000000000000000000000000000000000000000000000000000000000000000000000000003
:403DC00000000000000000000000000000000000000000000000000000000000000000000000000000000000000000000000000000000000000000000000000000000000C3
:020000040003F7
:0200000480007A
:400000000A0000000000000080800000400000000300000000000000002000000000000000004B000000000000000001000000000000000000000000000000000000000007
:400040000000000000000000000000000000000000000000000000000000000000000000000000000800000000000400000000000000000000000000000000000000000074
:40008000000000000400000000000001000000000000000000000000000000000000000000000000000000000000000000000000070000000700000000010000000000002C
:4000C0000001000000000100000003000400010000010000000100000000000001010000000006008000000000004101010000000000000400FF07FF4020F00508000000C3
:4001000000000000040404000003000140A840200000000000000000000000000000000000000000000000000000000001080600080C0000062201000033000007110000D0
:400140000833000C0604010000000133043F0000020F0030060C0033080000000000000F0700083000002208000000000000000000000000000000000000000000000000B0
:400180000000021004040004333000010000000000000000000000000000000000000000000000000000000000000000001000000C00110810000C0000000000000C00035D
:4001C0000001030E00010006140000001C0002030900100C100000000000000000001F000010000F00000080000000100000000000000000000000000000000000000000AE
:400200000100000004040004333000010000000000000000000000000000000000000000000000000000000000000000000004101C0321003C020201000100023F00001066
:4002400027001804000300000000230810000008080000041804000004040000380400031F10000800022000000000500000000000000000000000000000000000000000DD
:4002800000000000040400003300000100000000000000000000000000000000000000000000000000000000000000000000000000070800100401010001020600020009C9
:4002C00000000400000700000000000000000000000000000000110000000400010708001000060800000000000051002304050001C000E022FFFFFF62A0F0410C00000034
:400300001800000004040404313300010000000000004002001030100010101200000000000000000000000000000000000000000300340003041C00000000000000000111
:400340000001000003010400000215002A001400000028000000200000000000000038040F03000000202800000000046403000000EC00B023FFFFFF0000F0440C000000DA
:40038000000000000404040033030001000000000000C0000000400200000000000000000000000000000000000000000000000000000000000000000000000000000000F8
:4003C0000000000000720000000000000000000000000000000000000000000000000000000000000F003800000000000A01000000000000000000000A0100000800000026
:400400000000000000000000080000000000000000000000000000000000000080000000000000000000000000000000000000000000000000000000000000000000000034
:40044000000000000000000000000000000000000000000000000000000000000000000000000000000000000000000000000000000000000000000000000000000000007C
:400480000000001000000000000000000000000000000000A000000040000010400000000000000000000000000000000000000020000000000000000000000000000000DC
:4004C00000080000000000000000000000000000080000000000000000000000000000000000000000000000000004000000020006000100000000000800000000000000D7
:400500000000000000000000000000000000000000000000000000000000000040000000000000000000000000000000000000002008000000000000000000000000000053
:40054000000000000000000000000000000000000000000000000000000000000000000000000000000000000000000000000000000000000000000000000000000000007B
:4005800000000000000000000000000000000000000000000000000000000000400000000000000000000000000000000000000020080000000000000000000000000000D3
:4005C00000000000000000000000000000000000000000000000000000000000000000000000000000000000000000000000000000000000000000000000000000000000FB
:4006000000000000000000000000000000000000000000000000000000000000000000000000000000000000000000000000000000000000000000000000000000000000BA
:400640000000000000000000000000000000000000080000000000000000000000000000000000000000000000000000000000000000000000000000000000000000000072
:4006800000000000000000000000000000000000000000000000000000000000400000000000000000000000000000000000000020000000000000000000000020000000BA
:4006C00000000000000000000000000000000000000000000000000000000000010000000000000000000000000000000000000000000000010000000000000000000000F8
:400700000000000000000000000000004000000000000000000000000000000000000000000000000000000000000000000000000000000000000000000000000000000079
:400740000000000000000000000000000000000000000000000000000000000000000000000000000000000000000000000000000000000000000000000000000000000079
:4007800000000000000000000000000000000000000000000000000000000000000000000000000000000000200000000000000020000000000000000000000000000000F9
:4007C00000000000000000000000000002000000000000000000000000000000000000000000000000000000000000000000000000000000000000000000000000000000F7
:400800000000000000000000000000000000000000000000000000000000000000000000000000000000000000000000000000000000000000000000000000002000000098
:400840000000000000000000000000000000000000000000000000000000000000000000000000000000000000000000000000000000000000000000000000000000000078
:400880000000000000000000200000000000000000000000000000000000000000000000000000000000000000000000000000000000000000000000000000000000000018
:4008C00000000000000000000000000000000000000000000000000008000000000000000000000000000000000001000000000000000000000000000000000000000000EF
:4009000000000000000000000000000040080008001400000000001040000004020000200000040501008808001C000042000040200000040000000000000000020010006F
:40094000401400014004001000001000090440004008000000510800000008050000010000000001000000020000000004008000000000000000000000000000000000003B
:4009800000000000000000000000000000000000000004000200006010084000040C7010000000C548400403001501040000800003000001000000000000000000000000F7
:4009C0000000000000000000000000006700C4007300000000000000F5002E00CF002800000001000C000000000000000000100020000000000000001000000000000000F2
:400A000000000000000000000000000000000000000000000000000000000000000000000000000000000000000000000000000000000000000000000000000000000000B6
:400A4000000000000000000000000000000000000000000000000000000000000000000000000000000000000000000000001000200008000000000010000000000000002E
:400A800000000000000000000000000002200020001400002800410400001002A200002010000C0500208800000010000400811000000009090100205100400000405500D8
:400AC00000140001000401900000080100000000000000000000000000000000000000000000000000000000600000090000000000000000000000000000000000000000DA
:400B000000000000000000000000000000000000000000000000000000000000400C6100000000544800042200340001A00000200200000000000000000000000001080046
:400B40000000000000000000000000006E00AD007F0000000000CF00EF00CF00000000000000F000000000000000000000000000000000000000000000000000000000005E
:400B800000000000000000000000000000250000001400000000650040000005A040002000000001000145A040800000000008020000004000210020002000202200088036
:400BC000080008000800025000004000000000000080000000000000000000010000000000000400000000400000000000000000000000000044200000000000A40002205C
:400C000000000000000000000000000000000000000000000004010000000000000000000000000000000000000000000000000000000000000000000000000000000000AF
:400C40000000000000000000000000006E00CF001F000000000067004F001F001000000000000800000000000000000000000000000000000000000000000000000000002B
:400C80000000000000000000000000000000000000000000000000000000000000000000000000000000000000000000000000000000000000000000000000000000000034
:400CC0000000000000000000000000000000000000000000000000000000000000000000000000000000000000000000000000000000000080000000000000000000000074
:400D0000000000000000000000000000000000000000000000000000000000000000000000000000000000000000000000000000000000000000000800000000000010009B
:400D40000000000000000000000000000000000000000000000000000000000000000000000000000000000000000000000000000000000000000000000000000000000073
:400D8000000000000000000000000000000000000000000000000000000000000000000000000000000000000000200800000000000000000000000000000000000000000B
:400DC00000000000000000000000000000000000000000000000000000000000000000000000000000000000000000000000000000000000000000000000000000000000F3
:400E00000000000000000000000000000000000000100000000000200400000000000000081000000000002000000000000000000000000000000000000000000000000046
:400E40000010000000000000000000000000000000000000000000000000000000000000000000000000000000000000000000000000100000000000000000000000000052
:400E80000000000000000000000000000000000000000000000000000000000000000000000000000000000000000000000000200010000000000000000000000000000002
:400EC00000000000000000000000000000000000000000000000000000000000000000000000000000000000000000000000000000000000000000000000000000000000F2
:400F00000000000000000000000000000000000000000000000000000000000000000000081000000000000000000000000000000000000000000000000000000000000099
:400F40000000000000000000000000000000000000000000600000000000000000000000000000000000000000000000000000000000000000000000000000000000000011
:400F80000000000000000000000000000000000000000000000000000000000000000000081000000000000000000000000000000000000000000000000000000000000019
:400FC00000000000000000000000000000000000000000000000000000000000000000000000000000000000000000000000000000000000000000000000000000000000F1
:401000000000000000000000000000000000000000000000000000000000000000008000000000000000000000000000000000000000000000000000000000000000000030
:40104000000000000000000000000000000000000000000000000000000000000000000000000000000000020000000000000000000000000000000000000000000000006E
:401080000000000000000000000000000000000000000000000000000000000000000000081000000000000200000000000000000000800000000002000000000000000094
:4010C0000000000000000000000000000000000010000000000000000000000000000000000040000000000000000000000000000000000000000000000080000000000020
:401100000000000000000000000000000000000000000000000000000000000000000000081000000000000000000000000000000000800000000000000000000000000017
:40114000000000000000000000000000000000000000000000000000000000000000000000000000000000000000000000000000000000000000000000000000000000006F
:4011800000000000000000000000000000000000000000000000000000000000000000000000000000000000000000000000000000000000000000000000000000008000AF
:4011C00000000000080000000010000000000000000000000000000000000000000000000000000000000000000000000000000000000000000000000000000000000000D7
:4012000000000000000000000000000000000000000000000000000000000000000000000000000000000000000000000000000000000000000000000000000000000000AE
:4012400000000000000000000000000000000000000000000000000010006000000000000000000000000000000000000000000000000000000000000000000000000000FE
:401280000000000000000000000000000000000000000200800040808000800000000000000B0B0000000000040000040000000000000000BB0018010000000000000000FA
:4012C00000000000000000000000000000000000000000000000000000000000000000000000000000000000000000000000000000000000000000000000000000000000EE
:4013000000000000000000000000000000000000000000000000000000000000000000000000000000000000000000000000000000000000000000000000000000000000AD
:40134000000000000000000000000000000000000000000000000000000000000000000000000000000000000000000000000000000000000000000000000000000000006D
:40138000000000000000000000000000000000000000000000000000000000000000000000000000000000000000000000000000000000000000000000000000000000002D
:0200000490006A
:0400000000004004B8
:0200000490105A
:04000000BC90ACAF55
:0200000490303A
:02000000E94DC8
:0200000490402A
:4000000000000000000000000000000000000000000000000000000000000000000000000000000000000000000000000000000000000000000000000000000000000000C0
:400040000000000000000000000000000000000000000000000000000000000000000000000000000000000000000000000000000000000000000000000000000000000080
:400080000000000000000000000000000000000000000000000000000000000000000000000000000000000000000000000000000000000000000000000000000000000040
:4000C0000000000000000000000000000000000000000000000000000000000000000000000000000000000000000000000000000000000000000000000000000000000000
:0200000490501A
:0C00000000012E16106900012E29F9B62F
:00000001FF