:400000000010002011000000150200001502000080B500AF00F002F980B500AF0F4B0F4A12688021C9020A431A60182000F030FA0A4B0A4A12680A490A401A60094B0A4A0A
:400040001A600A4B802212061A60044B00221A60074B00221A60BD4680BDC04600010B40FFFFFBFF04010B400600008008010B400C020B4080B582B000AF72B6FB1D00221F
:400080001A7023E0FB1D1A78131C5B009B185B002D4A9B183B603B681A78597809020A43997809040A43DB781B061343191C3B681A795B791B0213439BB2081C191C00F0D1
:4000C0002BF9FB1D1A78FB1D01321A70FB1D1B78012BD7D91D4BEE2212021A601C4B992212041A601B4B992212041A601A4A1A4B1B78DBB202210B43DBB21370174A174B40
:400100001B78DBB23C218B43DBB214210B43DBB21370114A104B1B78DBB216210B43DBB213700F4B8A22FF321A600E4B09221A600D4BD82212011A60FFF76EFF00F0FCF814
:40014000BD4602B080BDC046180700000C00014000500F4030500F4000700F4001700F40080004400C0004400803044010B5064C2378002B07D1054B002B02D0044800E015
:4001800000BF0123237010BDE0000020000000001407000008B5084B002B03D00748084900E000BF07480368002B00D108BD064B002BFBD09847F9E70000000014070000F8
:4001C000E4000020C80000200000000080B500AF024B181C00F0CAF862B6FEE7E101000090B583B000AFFC1D00F0AAF8031C2370FB1D1B78012B03D1002000F00FF906E0F0
:40020000FB1D1B78022B02D1012000F007F9BD4603B090BD80B500AFFEE7C04680B586B000AF224B7B61224B3B61204B7B6135E03B691B68FB603B695B68BB603B699B68BD
:400240003B6000237B600CE0FB681A68BB681A60BB680433BB60FB680433FB607B6804337B607A683B689A42EED13B69DB683B6000237B6008E0BB6800221A60BB68043377
:40028000BB607B6804337B607A683B689A42F2D13B6910333B617B69013B7B617B69002BC6D100F009FAFFF791FFFEE7010000007807000080B582B000AF00237B600FE004
:4002C0007B68032B04D8104B7A689200D35800E00E4B0F4A796889008B507B6801337B607B682F2BECD9FFF7C5FE0A4B00221A608023DB058022D205126801210A431A6043
:40030000BD4602B080BDC046000000001502000000000020C000002080B582B000AF786039607A683B68101C00211A1C00F0EAF9BD4602B080BDC04680B500AFBD4680BD30
:4003400080B582B000AF084B1B68DAB2FB1D03210A401A70044BFA1D12781A60FB1D1B78181CBD4602B080BD1000044080B582B000AF786000F048F87B68181C00F008F841
:40038000032000F011F800F035F8BD4602B080BD80B582B000AF7860024B7A681A64BD4602B080BD0000002090B585B000AF021CFB1D1A700623FB600B23FC1800F05EF870
:4003C000031C23700A4B0A4A1268C0218A43111CFA1D1078FA689040021C0A431A600B23FB181B78181C00F04DF8BD4605B090BD00E400E080B500AF024B01221A60BD46C0
:4004000080BDC04600E100E080B500AF024B01221A60BD4680BDC04680E100E080B584B000AF021CFB1D1A700E4B1B68DAB20F23FB1804218A431A70FB1D1B789B00DBB28F
:4004400004221340D9B20F23FB180F22BA1812780A431A70034B0F22BA1812781A60BD4604B080BD000004400230800804D0C0460138FDD1C046C046C0467047EFF310806C
:4004800072B6704780F310887047C046C046C04690B585B000AF78600C23FC18FFF7EEFF031C23707B68022B00D8B4E07B68302B00D9B0E05E4B1B78DBB21A1E7B689A42CD
:4004C0000AD35C4A0F23FB1812781A705A4A0E23FB1812781A703FE0584B1B78DBB21A1E7B689A420AD3564A0F23FB1812781A70544A0E23FB1812781A702DE0524B1B7842
:40050000DBB21A1E7B689A420AD3504A0F23FB1812781A704E4A0E23FB1812781A701BE04C4B1B78DBB21A1E7B689A420AD34A4A0F23FB1812781A70484A0E23FB181278A4
:400540001A7009E0464A0F23FB1812781A70454A0E23FB1812781A707B68DA1E0B23FB1841498A5C1A700B23FB181B782F2B0DD97B682A2B0AD93D4B19221A600520FFF79B
:4005800073FF0D23FB1819221A7007E0374B1B68DAB20D23FB183F210A401A700B23FA180D23FB1812781B789A4208D22F4B7A68033A2D498A5C1A600520FFF755FF7B68BB
:4005C000284A9A180A23FB1812781A70284B0A22BA1812781A60274B0F22BA1812781A60254B0E22BA1812781A60052000F050F80B23FA180D23FB1812781B789A4209D964
:400600001A4B7A68033A18498A5C1A600520FFF72BFF03E002E0002000F030F80C23FB181B78181CFFF72EFFBD4605B090BDC046C0F1FF0FC1F1FF0FC2F1FF0FC3F1FF0FFA
:40064000C4F1FF0FC5F1FF0FC6F1FF0FC7F1FF0FC8F1FF0FC9F1FF0FCAF1FF0FCBF1FF0FCCF1FF0FCDF1FF0F240700002CFF0B4028FF0B401CFF0B4020FF0B4080B582B065
:4006800000AF021CFB1D1A7001BEBD4602B080BD80B582B000AF021CBB1D1A80BB1D1B88044A12785343181CFFF7DEFEBD4602B080BDC046D40000200E4B70B500251E1CBC
:4006C0000D4CE41AA410A54204D0AB00F35898470135F8E700F03EF8084B00251E1C084CE41AA410A54204D0AB00F35898470135F8E770BD60070000600700006007000065
:4007000068070000031C8218934202D019700133FAE770470000000000300F40000400400F400004030405060708090A0B0C0E0F101112131415161718191B1C1D1E1F2099
:4007400021222325262728292A2B2E2F3031323334350000F8B5C046F8BC08BC9E46704795010000B5020000F8B5C046F8BC08BC9E4670476D01000088070000C8000020B1
:4007800018000000200000000000000000366E01C05D0000180000000000E02E00000000000000000000000000000000000000000000000000000000000000000000000019
:4007C00000000000000000000000000000000000000000000000000000000000000000000000000000000000000000000000000000000000000000000000000000000000F9
:4008000000000000000000000000000000000000000000000000000000000000000000000000000000000000000000000000000000000000000000000000000000000000B8
:400840000000000000000000000000000000000000000000000000000000000000000000000000000000000000000000000000000000000000000000000000000000000078
:400880000000000000000000000000000000000000000000000000000000000000000000000000000000000000000000000000000000000000000000000000000000000038
:0200000490303A
:020000009FE57A
:0200000490402A
:200000000000000000000000000000000000000000000000000000000000000000000000E0
:0200000490501A
:0C000000000204C81193110104CAB17879
:0200000490600A
:0100000001FE
:00000001FF